{
  "_format": "hh-sol-artifact-1",
  "contractName": "BharatVote",
  "sourceName": "contracts/BharatVote.sol",
  "abi": [
    {
      "inputs": [],
      "stateMutability": "nonpayable",
      "type": "constructor"
    },
    {
      "inputs": [],
      "name": "AlreadyCommitted",
      "type": "error"
    },
    {
      "inputs": [],
      "name": "AlreadyRevealed",
      "type": "error"
    },
    {
      "inputs": [],
      "name": "CanOnlyResetAfterFinish",
      "type": "error"
    },
    {
      "inputs": [],
      "name": "EmptyHash",
      "type": "error"
    },
    {
      "inputs": [],
      "name": "HashMismatch",
      "type": "error"
    },
    {
      "inputs": [],
      "name": "InactiveCandidate",
      "type": "error"
    },
    {
      "inputs": [],
      "name": "InvalidCandidateId",
      "type": "error"
    },
    {
      "inputs": [],
      "name": "InvalidNameLength",
      "type": "error"
    },
    {
      "inputs": [],
      "name": "NoCommit",
      "type": "error"
    },
    {
      "inputs": [],
      "name": "NotAdmin",
      "type": "error"
    },
    {
      "inputs": [],
      "name": "NotEligible",
      "type": "error"
    },
    {
      "inputs": [],
      "name": "WrongPhase",
      "type": "error"
    },
    {
      "anonymous": false,
      "inputs": [],
      "name": "AllCandidatesCleared",
      "type": "event"
    },
    {
      "anonymous": false,
      "inputs": [
        {
          "indexed": false,
          "internalType": "uint256",
          "name": "id",
          "type": "uint256"
        },
        {
          "indexed": false,
          "internalType": "string",
          "name": "name",
          "type": "string"
        }
      ],
      "name": "CandidateAdded",
      "type": "event"
    },
    {
      "anonymous": false,
      "inputs": [
        {
          "indexed": false,
          "internalType": "uint256",
          "name": "id",
          "type": "uint256"
        }
      ],
      "name": "CandidateRemoved",
      "type": "event"
    },
    {
      "anonymous": false,
      "inputs": [],
      "name": "ElectionReset",
      "type": "event"
    },
    {
      "anonymous": false,
      "inputs": [
        {
          "indexed": false,
          "internalType": "uint8",
          "name": "newPhase",
          "type": "uint8"
        }
      ],
      "name": "PhaseChanged",
      "type": "event"
    },
    {
      "anonymous": false,
      "inputs": [
        {
          "indexed": false,
          "internalType": "uint256[]",
          "name": "finalTally",
          "type": "uint256[]"
        }
      ],
      "name": "TallyFinalized",
      "type": "event"
    },
    {
      "anonymous": false,
      "inputs": [
        {
          "indexed": true,
          "internalType": "address",
          "name": "voter",
          "type": "address"
        },
        {
          "indexed": false,
          "internalType": "bytes32",
          "name": "commit",
          "type": "bytes32"
        }
      ],
      "name": "VoteCommitted",
      "type": "event"
    },
    {
      "anonymous": false,
      "inputs": [
        {
          "indexed": true,
          "internalType": "address",
          "name": "voter",
          "type": "address"
        },
        {
          "indexed": false,
          "internalType": "uint256",
          "name": "choice",
          "type": "uint256"
        }
      ],
      "name": "VoteRevealed",
      "type": "event"
    },
    {
      "inputs": [
        {
          "internalType": "string",
          "name": "_name",
          "type": "string"
        }
      ],
      "name": "addCandidate",
      "outputs": [],
      "stateMutability": "nonpayable",
      "type": "function"
    },
    {
      "inputs": [],
      "name": "admin",
      "outputs": [
        {
          "internalType": "address",
          "name": "",
          "type": "address"
        }
      ],
      "stateMutability": "view",
      "type": "function"
    },
    {
      "inputs": [],
      "name": "candidateCount",
      "outputs": [
        {
          "internalType": "uint256",
          "name": "",
          "type": "uint256"
        }
      ],
      "stateMutability": "view",
      "type": "function"
    },
    {
      "inputs": [
        {
          "internalType": "uint256",
          "name": "",
          "type": "uint256"
        }
      ],
      "name": "candidates",
      "outputs": [
        {
          "internalType": "uint256",
          "name": "id",
          "type": "uint256"
        },
        {
          "internalType": "string",
          "name": "name",
          "type": "string"
        },
        {
          "internalType": "bool",
          "name": "isActive",
          "type": "bool"
        }
      ],
      "stateMutability": "view",
      "type": "function"
    },
    {
      "inputs": [],
      "name": "clearAllCandidates",
      "outputs": [],
      "stateMutability": "nonpayable",
      "type": "function"
    },
    {
      "inputs": [
        {
          "internalType": "bytes32",
          "name": "_commit",
          "type": "bytes32"
        },
        {
          "internalType": "bytes32[]",
          "name": "_proof",
          "type": "bytes32[]"
        }
      ],
      "name": "commitVote",
      "outputs": [],
      "stateMutability": "nonpayable",
      "type": "function"
    },
    {
      "inputs": [
        {
          "internalType": "address",
          "name": "",
          "type": "address"
        }
      ],
      "name": "commits",
      "outputs": [
        {
          "internalType": "bytes32",
          "name": "",
          "type": "bytes32"
        }
      ],
      "stateMutability": "view",
      "type": "function"
    },
    {
      "inputs": [],
      "name": "emergencyReset",
      "outputs": [],
      "stateMutability": "nonpayable",
      "type": "function"
    },
    {
      "inputs": [],
      "name": "finishElection",
      "outputs": [],
      "stateMutability": "nonpayable",
      "type": "function"
    },
    {
      "inputs": [],
      "name": "getCandidates",
      "outputs": [
        {
          "components": [
            {
              "internalType": "uint256",
              "name": "id",
              "type": "uint256"
            },
            {
              "internalType": "string",
              "name": "name",
              "type": "string"
            },
            {
              "internalType": "bool",
              "name": "isActive",
              "type": "bool"
            }
          ],
          "internalType": "struct BharatVote.Candidate[]",
          "name": "",
          "type": "tuple[]"
        }
      ],
      "stateMutability": "view",
      "type": "function"
    },
    {
      "inputs": [],
      "name": "getTally",
      "outputs": [
        {
          "internalType": "uint256[]",
          "name": "",
          "type": "uint256[]"
        }
      ],
      "stateMutability": "view",
      "type": "function"
    },
    {
      "inputs": [
        {
          "internalType": "address",
          "name": "_voter",
          "type": "address"
        }
      ],
      "name": "getVoterStatus",
      "outputs": [
        {
          "internalType": "bool",
          "name": "committed",
          "type": "bool"
        },
        {
          "internalType": "bool",
          "name": "revealed",
          "type": "bool"
        }
      ],
      "stateMutability": "view",
      "type": "function"
    },
    {
      "inputs": [
        {
          "internalType": "uint256",
          "name": "_id",
          "type": "uint256"
        }
      ],
      "name": "getVotes",
      "outputs": [
        {
          "internalType": "uint256",
          "name": "",
          "type": "uint256"
        }
      ],
      "stateMutability": "view",
      "type": "function"
    },
    {
      "inputs": [
        {
          "internalType": "address",
          "name": "",
          "type": "address"
        }
      ],
      "name": "hasCommitted",
      "outputs": [
        {
          "internalType": "bool",
          "name": "",
          "type": "bool"
        }
      ],
      "stateMutability": "view",
      "type": "function"
    },
    {
      "inputs": [
        {
          "internalType": "address",
          "name": "",
          "type": "address"
        }
      ],
      "name": "hasRevealed",
      "outputs": [
        {
          "internalType": "bool",
          "name": "",
          "type": "bool"
        }
      ],
      "stateMutability": "view",
      "type": "function"
    },
    {
      "inputs": [],
      "name": "merkleRoot",
      "outputs": [
        {
          "internalType": "bytes32",
          "name": "",
          "type": "bytes32"
        }
      ],
      "stateMutability": "view",
      "type": "function"
    },
    {
      "inputs": [],
      "name": "phase",
      "outputs": [
        {
          "internalType": "uint8",
          "name": "",
          "type": "uint8"
        }
      ],
      "stateMutability": "view",
      "type": "function"
    },
    {
      "inputs": [
        {
          "internalType": "uint256",
          "name": "_id",
          "type": "uint256"
        }
      ],
      "name": "removeCandidate",
      "outputs": [],
      "stateMutability": "nonpayable",
      "type": "function"
    },
    {
      "inputs": [],
      "name": "resetElection",
      "outputs": [],
      "stateMutability": "nonpayable",
      "type": "function"
    },
    {
      "inputs": [
        {
          "internalType": "uint256",
          "name": "_choice",
          "type": "uint256"
        },
        {
          "internalType": "bytes32",
          "name": "_salt",
          "type": "bytes32"
        }
      ],
      "name": "revealVote",
      "outputs": [],
      "stateMutability": "nonpayable",
      "type": "function"
    },
    {
      "inputs": [
        {
          "internalType": "bytes32",
          "name": "_root",
          "type": "bytes32"
        }
      ],
      "name": "setMerkleRoot",
      "outputs": [],
      "stateMutability": "nonpayable",
      "type": "function"
    },
    {
      "inputs": [],
      "name": "startReveal",
      "outputs": [],
      "stateMutability": "nonpayable",
      "type": "function"
    },
    {
      "inputs": [
        {
          "internalType": "uint256",
          "name": "",
          "type": "uint256"
        }
      ],
      "name": "tally",
      "outputs": [
        {
          "internalType": "uint256",
          "name": "",
          "type": "uint256"
        }
      ],
      "stateMutability": "view",
      "type": "function"
    }
  ],
  "bytecode": "0x60a06040526000805460ff1916905534801561001a57600080fd5b50336080526080516118fd6100726000396000818161035d015281816104c20152818161060b015281816107b00152818161094c01528181610ea501528181610ef301528181610fe8015261109601526118fd6000f3fe608060405234801561001057600080fd5b506004361061014d5760003560e01c80637b43a8e6116100c3578063b9a530131161007c578063b9a53013146102da578063c6dbe15a1461030d578063e8f3052314610330578063ed8b6b3114610338578063f851a44014610358578063ff9810991461039757600080fd5b80637b43a8e6146102705780637cb647591461029057806390173864146102a3578063a9a981a3146102ab578063ad72202b146102b3578063b1c9fe6e146102bb57600080fd5b80633477ee2e116101155780633477ee2e146101ac578063462e91ec146101ce578063489a1f4c146101e157806353b2b8d6146101f457806369edbcda1461020957806378e3ef201461021c57600080fd5b806306a49fce1461015257806309e9d7e21461017057806316388836146101855780631d29de631461018d5780632eb4a7ab14610195575b600080fd5b61015a6103aa565b6040516101679190611492565b60405180910390f35b61018361017e366004611515565b6104b7565b005b610183610600565b6101836107a5565b61019e60025481565b604051908152602001610167565b6101bf6101ba366004611515565b610880565b6040516101679392919061152e565b6101836101dc366004611559565b610941565b6101836101ef3660046115cb565b610ac3565b6101fc610c32565b604051610167919061164a565b61018361021736600461168e565b610cd1565b61025961022a3660046116b0565b6001600160a01b031660009081526004602090815260408083205460059092529091205460ff91821692911690565b604080519215158352901515602083015201610167565b61019e61027e3660046116b0565b60036020526000908152604090205481565b61018361029e366004611515565b610e9a565b610183610ee8565b60015461019e565b610183610fdd565b6000546102c89060ff1681565b60405160ff9091168152602001610167565b6102fd6102e83660046116b0565b60056020526000908152604090205460ff1681565b6040519015158152602001610167565b6102fd61031b3660046116b0565b60046020526000908152604090205460ff1681565b61018361108b565b61019e610346366004611515565b60066020526000908152604090205481565b61037f7f000000000000000000000000000000000000000000000000000000000000000081565b6040516001600160a01b039091168152602001610167565b61019e6103a5366004611515565b6111dc565b60606001805480602002602001604051908101604052809291908181526020016000905b828210156104ae57838290600052602060002090600302016040518060600160405290816000820154815260200160018201805461040b906116e0565b80601f0160208091040260200160405190810160405280929190818152602001828054610437906116e0565b80156104845780601f1061045957610100808354040283529160200191610484565b820191906000526020600020905b81548152906001019060200180831161046757829003601f168201915b50505091835250506002919091015460ff16151560209182015290825260019290920191016103ce565b50505050905090565b336001600160a01b037f0000000000000000000000000000000000000000000000000000000000000000161461050057604051637bfa4b9f60e01b815260040160405180910390fd5b6000805460ff1615610525576040516338961af360e21b815260040160405180910390fd5b600154829081106105495760405163347247e160e21b815260040160405180910390fd5b6001818154811061055c5761055c611714565b600091825260209091206002600390920201015460ff16610590576040516323581db160e11b815260040160405180910390fd5b6000600184815481106105a5576105a5611714565b600091825260209182902060039190910201600201805460ff1916921515929092179091556040518481527f294c5a9bc8a39e6e06502bc8da429980f6c7b0990d75b682c12cb8705e3ace85910160405180910390a1505050565b336001600160a01b037f0000000000000000000000000000000000000000000000000000000000000000161461064957604051637bfa4b9f60e01b815260040160405180910390fd5b60005b6001548110156106af57600180828154811061066a5761066a611714565b60009182526020808320600392909202909101600201805460ff19169315159390931790925582815260069091526040812055806106a781611740565b91505061064c565b5060005b60075481101561072b576000600782815481106106d2576106d2611714565b60009182526020808320909101546001600160a01b0316825260038152604080832083905560048252808320805460ff19908116909155600590925290912080549091169055508061072381611740565b9150506106b3565b5061073860076000611388565b6000805460ff191681556040517f8d1085cd9eceaab0b77fd20c66dea55df08e5ef2d52859c2cb4a1e16ba9476c09190a160005460405160ff90911681527fa6dcc92f45df25789d5639b7a0c97ba1edf3bb1c0b5dd3376fd96a0db87c46429060200160405180910390a1565b336001600160a01b037f000000000000000000000000000000000000000000000000000000000000000016146107ee57604051637bfa4b9f60e01b815260040160405180910390fd5b60005460029060ff168114610816576040516338961af360e21b815260040160405180910390fd5b60018054906108269060006113a9565b60005b81811015610852576000818152600660205260408120558061084a81611740565b915050610829565b506040517ff4b0aec151f41a0af93af55ce56e8ac81b97aeb8198f047c43b8a379ce303b7590600090a15050565b6001818154811061089057600080fd5b600091825260209091206003909102018054600182018054919350906108b5906116e0565b80601f01602080910402602001604051908101604052809291908181526020018280546108e1906116e0565b801561092e5780601f106109035761010080835404028352916020019161092e565b820191906000526020600020905b81548152906001019060200180831161091157829003601f168201915b5050506002909301549192505060ff1683565b336001600160a01b037f0000000000000000000000000000000000000000000000000000000000000000161461098a57604051637bfa4b9f60e01b815260040160405180910390fd5b6000805460ff16156109af576040516338961af360e21b815260040160405180910390fd5b8115806109bc5750606482115b156109da57604051631ae3550b60e01b815260040160405180910390fd5b600060018054905090506001604051806060016040528083815260200186868080601f016020809104026020016040519081016040528093929190818152602001838380828437600092018290525093855250506001602093840181905285548082018755958352918390208451600390960201948555509082015191929190820190610a6790826117be565b50604091820151600291909101805460ff1916911515919091179055517fe83b2a43e7e82d975c8a0a6d2f045153c869e111136a34d1889ab7b598e396a390610ab59083908790879061187e565b60405180910390a150505050565b6000805460ff1615610ae8576040516338961af360e21b815260040160405180910390fd5b3360009081526004602052604090205460ff1615610b19576040516317fd8aab60e31b815260040160405180910390fd5b83610b3757604051631c37cddf60e21b815260040160405180910390fd5b610b75838380806020026020016040519081016040528093929190818152602001838360200280828437600092019190915250339250611262915050565b610b9257604051637c75aa6f60e11b815260040160405180910390fd5b33600081815260036020908152604080832088905560048252808320805460ff191660019081179091556007805491820181559093527fa66cc928b5edb82af9bd49922954155ab7b0942694bea4ce44661d9a8736c68890920180546001600160a01b0319168417905590518681527f378881b5d2d0f50f0782bfc28c9194fbce3515be77236885f5256babb2e45c33910160405180910390a250505050565b60015460609060008167ffffffffffffffff811115610c5357610c53611759565b604051908082528060200260200182016040528015610c7c578160200160208202803683370190505b50905060005b82811015610cca576000818152600660205260409020548251839083908110610cad57610cad611714565b602090810291909101015280610cc281611740565b915050610c82565b5092915050565b60005460019060ff168114610cf9576040516338961af360e21b815260040160405180910390fd5b60015483908110610d1d5760405163347247e160e21b815260040160405180910390fd5b60018181548110610d3057610d30611714565b600091825260209091206002600390920201015460ff16610d64576040516323581db160e11b815260040160405180910390fd5b3360009081526004602052604090205460ff16610d9457604051637de832b560e11b815260040160405180910390fd5b3360009081526005602052604090205460ff1615610dc55760405163a89ac15160e01b815260040160405180910390fd5b604080516020808201879052818301869052825180830384018152606090920183528151918101919091203360009081526003909252919020548114610e1e57604051633f4d605360e01b815260040160405180910390fd5b336000908152600560209081526040808320805460ff1916600190811790915588845260069092528220805491929091610e599084906118b4565b909155505060405185815233907f522b45c661375abb939dc17b4b600412c93af64fcbe24859a73539d01bb4eec89060200160405180910390a25050505050565b336001600160a01b037f00000000000000000000000000000000000000000000000000000000000000001614610ee357604051637bfa4b9f60e01b815260040160405180910390fd5b600255565b336001600160a01b037f00000000000000000000000000000000000000000000000000000000000000001614610f3157604051637bfa4b9f60e01b815260040160405180910390fd5b60005460019060ff168114610f59576040516338961af360e21b815260040160405180910390fd5b6000805460ff191660029081179091556040519081527fa6dcc92f45df25789d5639b7a0c97ba1edf3bb1c0b5dd3376fd96a0db87c46429060200160405180910390a17f45cc000b7fa42997f6bd298de17f859587423252c9994fbfc4c0780db66747c9610fc5610c32565b604051610fd2919061164a565b60405180910390a150565b336001600160a01b037f0000000000000000000000000000000000000000000000000000000000000000161461102657604051637bfa4b9f60e01b815260040160405180910390fd5b6000805460ff161561104b576040516338961af360e21b815260040160405180910390fd5b6000805460ff191660019081179091556040519081527fa6dcc92f45df25789d5639b7a0c97ba1edf3bb1c0b5dd3376fd96a0db87c464290602001610fd2565b336001600160a01b037f000000000000000000000000000000000000000000000000000000000000000016146110d457604051637bfa4b9f60e01b815260040160405180910390fd5b60005460ff166002146110fa5760405163751dd61360e11b815260040160405180910390fd5b60005b60015481101561116057600180828154811061111b5761111b611714565b60009182526020808320600392909202909101600201805460ff191693151593909317909255828152600690915260408120558061115881611740565b9150506110fd565b5060005b60075481101561072b5760006007828154811061118357611183611714565b60009182526020808320909101546001600160a01b0316825260038152604080832083905560048252808320805460ff1990811690915560059092529091208054909116905550806111d481611740565b915050611164565b600154600090829081106112035760405163347247e160e21b815260040160405180910390fd5b6001818154811061121657611216611714565b600091825260209091206002600390920201015460ff1661124a576040516323581db160e11b815260040160405180910390fd5b60008381526006602052604090205491505b50919050565b6040516bffffffffffffffffffffffff19606083901b166020820152600090819060340160405160208183030381529060405280519060200120905060005b845181101561137a578481815181106112bc576112bc611714565b6020026020010151821061131a578481815181106112dc576112dc611714565b6020026020010151826040516020016112ff929190918252602082015260400190565b60405160208183030381529060405280519060200120611366565b8185828151811061132d5761132d611714565b602002602001015160405160200161134f929190918252602082015260400190565b604051602081830303815290604052805190602001205b91508061137281611740565b9150506112a1565b506002541490505b92915050565b50805460008255906000526020600020908101906113a691906113ca565b50565b50805460008255600302906000526020600020908101906113a691906113e3565b5b808211156113df57600081556001016113cb565b5090565b808211156113df5760008082556113fd6001830182611412565b5060028101805460ff191690556003016113e3565b50805461141e906116e0565b6000825580601f1061142e575050565b601f0160209004906000526020600020908101906113a691906113ca565b6000815180845260005b8181101561147257602081850181015186830182015201611456565b506000602082860101526020601f19601f83011685010191505092915050565b60006020808301818452808551808352604092508286019150828160051b87010184880160005b8381101561150757603f19898403018552815160608151855288820151818a8701526114e78287018261144c565b9289015115159589019590955250948701949250908601906001016114b9565b509098975050505050505050565b60006020828403121561152757600080fd5b5035919050565b838152606060208201526000611547606083018561144c565b90508215156040830152949350505050565b6000806020838503121561156c57600080fd5b823567ffffffffffffffff8082111561158457600080fd5b818501915085601f83011261159857600080fd5b8135818111156115a757600080fd5b8660208285010111156115b957600080fd5b60209290920196919550909350505050565b6000806000604084860312156115e057600080fd5b83359250602084013567ffffffffffffffff808211156115ff57600080fd5b818601915086601f83011261161357600080fd5b81358181111561162257600080fd5b8760208260051b850101111561163757600080fd5b6020830194508093505050509250925092565b6020808252825182820181905260009190848201906040850190845b8181101561168257835183529284019291840191600101611666565b50909695505050505050565b600080604083850312156116a157600080fd5b50508035926020909101359150565b6000602082840312156116c257600080fd5b81356001600160a01b03811681146116d957600080fd5b9392505050565b600181811c908216806116f457607f821691505b60208210810361125c57634e487b7160e01b600052602260045260246000fd5b634e487b7160e01b600052603260045260246000fd5b634e487b7160e01b600052601160045260246000fd5b6000600182016117525761175261172a565b5060010190565b634e487b7160e01b600052604160045260246000fd5b601f8211156117b957600081815260208120601f850160051c810160208610156117965750805b601f850160051c820191505b818110156117b5578281556001016117a2565b5050505b505050565b815167ffffffffffffffff8111156117d8576117d8611759565b6117ec816117e684546116e0565b8461176f565b602080601f83116001811461182157600084156118095750858301515b600019600386901b1c1916600185901b1785556117b5565b600085815260208120601f198616915b8281101561185057888601518255948401946001909101908401611831565b508582101561186e5787850151600019600388901b60f8161c191681555b5050505050600190811b01905550565b83815260406020820152816040820152818360608301376000818301606090810191909152601f909201601f1916010192915050565b808201808211156113825761138261172a56fea26469706673582212201463bf1ab6db7d16cb39b783df82679743a454b42fc1ccfa58dc2893dd6e87cf64736f6c63430008140033",
  "linkReferences": {},
  "deployedLinkReferences": {}
}