{
  "_format": "hh-sol-artifact-1",
  "contractName": "BharatVoteWithIPFS",
  "sourceName": "contracts/BharatVoteWithIPFS.sol",
  "abi": [
    {
      "inputs": [],
      "stateMutability": "nonpayable",
      "type": "constructor"
    },
    {
      "inputs": [],
      "name": "AlreadyCommitted",
      "type": "error"
    },
    {
      "inputs": [],
      "name": "AlreadyRevealed",
      "type": "error"
    },
    {
      "inputs": [],
      "name": "CanOnlyResetAfterFinish",
      "type": "error"
    },
    {
      "inputs": [],
      "name": "EmptyHash",
      "type": "error"
    },
    {
      "inputs": [],
      "name": "EmptyIPFSHash",
      "type": "error"
    },
    {
      "inputs": [],
      "name": "HashMismatch",
      "type": "error"
    },
    {
      "inputs": [],
      "name": "InactiveCandidate",
      "type": "error"
    },
    {
      "inputs": [],
      "name": "InvalidCandidateId",
      "type": "error"
    },
    {
      "inputs": [],
      "name": "InvalidNameLength",
      "type": "error"
    },
    {
      "inputs": [],
      "name": "NoCommit",
      "type": "error"
    },
    {
      "inputs": [],
      "name": "NotAdmin",
      "type": "error"
    },
    {
      "inputs": [],
      "name": "NotEligible",
      "type": "error"
    },
    {
      "inputs": [],
      "name": "WrongPhase",
      "type": "error"
    },
    {
      "anonymous": false,
      "inputs": [],
      "name": "AllCandidatesCleared",
      "type": "event"
    },
    {
      "anonymous": false,
      "inputs": [
        {
          "indexed": false,
          "internalType": "string",
          "name": "ipfsHash",
          "type": "string"
        },
        {
          "indexed": false,
          "internalType": "uint256",
          "name": "timestamp",
          "type": "uint256"
        }
      ],
      "name": "AuditTrailUpdated",
      "type": "event"
    },
    {
      "anonymous": false,
      "inputs": [
        {
          "indexed": false,
          "internalType": "uint256",
          "name": "id",
          "type": "uint256"
        },
        {
          "indexed": false,
          "internalType": "string",
          "name": "name",
          "type": "string"
        },
        {
          "indexed": false,
          "internalType": "string",
          "name": "ipfsHash",
          "type": "string"
        }
      ],
      "name": "CandidateAdded",
      "type": "event"
    },
    {
      "anonymous": false,
      "inputs": [
        {
          "indexed": false,
          "internalType": "uint256",
          "name": "id",
          "type": "uint256"
        }
      ],
      "name": "CandidateRemoved",
      "type": "event"
    },
    {
      "anonymous": false,
      "inputs": [
        {
          "indexed": true,
          "internalType": "uint256",
          "name": "electionId",
          "type": "uint256"
        },
        {
          "indexed": false,
          "internalType": "string",
          "name": "resultsIPFS",
          "type": "string"
        }
      ],
      "name": "ElectionArchived",
      "type": "event"
    },
    {
      "anonymous": false,
      "inputs": [],
      "name": "ElectionReset",
      "type": "event"
    },
    {
      "anonymous": false,
      "inputs": [
        {
          "indexed": false,
          "internalType": "string",
          "name": "ipfsHash",
          "type": "string"
        },
        {
          "indexed": false,
          "internalType": "uint256",
          "name": "timestamp",
          "type": "uint256"
        }
      ],
      "name": "KYCDataStored",
      "type": "event"
    },
    {
      "anonymous": false,
      "inputs": [
        {
          "indexed": false,
          "internalType": "uint8",
          "name": "newPhase",
          "type": "uint8"
        },
        {
          "indexed": false,
          "internalType": "uint256",
          "name": "timestamp",
          "type": "uint256"
        }
      ],
      "name": "PhaseChanged",
      "type": "event"
    },
    {
      "anonymous": false,
      "inputs": [
        {
          "indexed": false,
          "internalType": "string",
          "name": "ipfsHash",
          "type": "string"
        },
        {
          "indexed": false,
          "internalType": "uint256",
          "name": "timestamp",
          "type": "uint256"
        }
      ],
      "name": "ResultsArchived",
      "type": "event"
    },
    {
      "anonymous": false,
      "inputs": [
        {
          "indexed": false,
          "internalType": "uint256[]",
          "name": "finalTally",
          "type": "uint256[]"
        },
        {
          "indexed": false,
          "internalType": "string",
          "name": "resultsIPFS",
          "type": "string"
        }
      ],
      "name": "TallyFinalized",
      "type": "event"
    },
    {
      "anonymous": false,
      "inputs": [
        {
          "indexed": true,
          "internalType": "address",
          "name": "voter",
          "type": "address"
        },
        {
          "indexed": false,
          "internalType": "bytes32",
          "name": "commit",
          "type": "bytes32"
        },
        {
          "indexed": false,
          "internalType": "uint256",
          "name": "timestamp",
          "type": "uint256"
        }
      ],
      "name": "VoteCommitted",
      "type": "event"
    },
    {
      "anonymous": false,
      "inputs": [
        {
          "indexed": true,
          "internalType": "address",
          "name": "voter",
          "type": "address"
        },
        {
          "indexed": false,
          "internalType": "uint256",
          "name": "choice",
          "type": "uint256"
        },
        {
          "indexed": false,
          "internalType": "uint256",
          "name": "timestamp",
          "type": "uint256"
        }
      ],
      "name": "VoteRevealed",
      "type": "event"
    },
    {
      "anonymous": false,
      "inputs": [
        {
          "indexed": false,
          "internalType": "string",
          "name": "ipfsHash",
          "type": "string"
        },
        {
          "indexed": false,
          "internalType": "uint256",
          "name": "timestamp",
          "type": "uint256"
        }
      ],
      "name": "VoterListStored",
      "type": "event"
    },
    {
      "inputs": [
        {
          "internalType": "string",
          "name": "_name",
          "type": "string"
        },
        {
          "internalType": "string",
          "name": "_ipfsMetadata",
          "type": "string"
        }
      ],
      "name": "addCandidate",
      "outputs": [],
      "stateMutability": "nonpayable",
      "type": "function"
    },
    {
      "inputs": [],
      "name": "admin",
      "outputs": [
        {
          "internalType": "address",
          "name": "",
          "type": "address"
        }
      ],
      "stateMutability": "view",
      "type": "function"
    },
    {
      "inputs": [
        {
          "internalType": "string",
          "name": "_ipfsHash",
          "type": "string"
        }
      ],
      "name": "archiveResults",
      "outputs": [],
      "stateMutability": "nonpayable",
      "type": "function"
    },
    {
      "inputs": [
        {
          "internalType": "uint256",
          "name": "",
          "type": "uint256"
        }
      ],
      "name": "archivedElections",
      "outputs": [
        {
          "internalType": "string",
          "name": "kycDataIPFS",
          "type": "string"
        },
        {
          "internalType": "string",
          "name": "voterListIPFS",
          "type": "string"
        },
        {
          "internalType": "string",
          "name": "resultsIPFS",
          "type": "string"
        },
        {
          "internalType": "string",
          "name": "auditTrailIPFS",
          "type": "string"
        },
        {
          "internalType": "uint256",
          "name": "timestamp",
          "type": "uint256"
        },
        {
          "internalType": "bool",
          "name": "isArchived",
          "type": "bool"
        }
      ],
      "stateMutability": "view",
      "type": "function"
    },
    {
      "inputs": [],
      "name": "candidateCount",
      "outputs": [
        {
          "internalType": "uint256",
          "name": "",
          "type": "uint256"
        }
      ],
      "stateMutability": "view",
      "type": "function"
    },
    {
      "inputs": [
        {
          "internalType": "uint256",
          "name": "",
          "type": "uint256"
        }
      ],
      "name": "candidates",
      "outputs": [
        {
          "internalType": "uint256",
          "name": "id",
          "type": "uint256"
        },
        {
          "internalType": "string",
          "name": "name",
          "type": "string"
        },
        {
          "internalType": "bool",
          "name": "isActive",
          "type": "bool"
        },
        {
          "internalType": "string",
          "name": "ipfsMetadata",
          "type": "string"
        }
      ],
      "stateMutability": "view",
      "type": "function"
    },
    {
      "inputs": [],
      "name": "clearAllCandidates",
      "outputs": [],
      "stateMutability": "nonpayable",
      "type": "function"
    },
    {
      "inputs": [
        {
          "internalType": "bytes32",
          "name": "_commit",
          "type": "bytes32"
        },
        {
          "internalType": "bytes32[]",
          "name": "_proof",
          "type": "bytes32[]"
        }
      ],
      "name": "commitVote",
      "outputs": [],
      "stateMutability": "nonpayable",
      "type": "function"
    },
    {
      "inputs": [
        {
          "internalType": "address",
          "name": "",
          "type": "address"
        }
      ],
      "name": "commits",
      "outputs": [
        {
          "internalType": "bytes32",
          "name": "",
          "type": "bytes32"
        }
      ],
      "stateMutability": "view",
      "type": "function"
    },
    {
      "inputs": [],
      "name": "currentElection",
      "outputs": [
        {
          "internalType": "string",
          "name": "kycDataIPFS",
          "type": "string"
        },
        {
          "internalType": "string",
          "name": "voterListIPFS",
          "type": "string"
        },
        {
          "internalType": "string",
          "name": "resultsIPFS",
          "type": "string"
        },
        {
          "internalType": "string",
          "name": "auditTrailIPFS",
          "type": "string"
        },
        {
          "internalType": "uint256",
          "name": "timestamp",
          "type": "uint256"
        },
        {
          "internalType": "bool",
          "name": "isArchived",
          "type": "bool"
        }
      ],
      "stateMutability": "view",
      "type": "function"
    },
    {
      "inputs": [],
      "name": "emergencyReset",
      "outputs": [],
      "stateMutability": "nonpayable",
      "type": "function"
    },
    {
      "inputs": [],
      "name": "finishElection",
      "outputs": [],
      "stateMutability": "nonpayable",
      "type": "function"
    },
    {
      "inputs": [
        {
          "internalType": "uint256",
          "name": "_id",
          "type": "uint256"
        }
      ],
      "name": "getArchivedElection",
      "outputs": [
        {
          "components": [
            {
              "internalType": "string",
              "name": "kycDataIPFS",
              "type": "string"
            },
            {
              "internalType": "string",
              "name": "voterListIPFS",
              "type": "string"
            },
            {
              "internalType": "string",
              "name": "resultsIPFS",
              "type": "string"
            },
            {
              "internalType": "string",
              "name": "auditTrailIPFS",
              "type": "string"
            },
            {
              "internalType": "uint256",
              "name": "timestamp",
              "type": "uint256"
            },
            {
              "internalType": "bool",
              "name": "isArchived",
              "type": "bool"
            }
          ],
          "internalType": "struct BharatVoteWithIPFS.ElectionData",
          "name": "",
          "type": "tuple"
        }
      ],
      "stateMutability": "view",
      "type": "function"
    },
    {
      "inputs": [],
      "name": "getArchivedElectionsCount",
      "outputs": [
        {
          "internalType": "uint256",
          "name": "",
          "type": "uint256"
        }
      ],
      "stateMutability": "view",
      "type": "function"
    },
    {
      "inputs": [],
      "name": "getCandidates",
      "outputs": [
        {
          "components": [
            {
              "internalType": "uint256",
              "name": "id",
              "type": "uint256"
            },
            {
              "internalType": "string",
              "name": "name",
              "type": "string"
            },
            {
              "internalType": "bool",
              "name": "isActive",
              "type": "bool"
            },
            {
              "internalType": "string",
              "name": "ipfsMetadata",
              "type": "string"
            }
          ],
          "internalType": "struct BharatVoteWithIPFS.Candidate[]",
          "name": "",
          "type": "tuple[]"
        }
      ],
      "stateMutability": "view",
      "type": "function"
    },
    {
      "inputs": [],
      "name": "getCurrentElectionData",
      "outputs": [
        {
          "components": [
            {
              "internalType": "string",
              "name": "kycDataIPFS",
              "type": "string"
            },
            {
              "internalType": "string",
              "name": "voterListIPFS",
              "type": "string"
            },
            {
              "internalType": "string",
              "name": "resultsIPFS",
              "type": "string"
            },
            {
              "internalType": "string",
              "name": "auditTrailIPFS",
              "type": "string"
            },
            {
              "internalType": "uint256",
              "name": "timestamp",
              "type": "uint256"
            },
            {
              "internalType": "bool",
              "name": "isArchived",
              "type": "bool"
            }
          ],
          "internalType": "struct BharatVoteWithIPFS.ElectionData",
          "name": "",
          "type": "tuple"
        }
      ],
      "stateMutability": "view",
      "type": "function"
    },
    {
      "inputs": [],
      "name": "getTally",
      "outputs": [
        {
          "internalType": "uint256[]",
          "name": "",
          "type": "uint256[]"
        }
      ],
      "stateMutability": "view",
      "type": "function"
    },
    {
      "inputs": [
        {
          "internalType": "address",
          "name": "_voter",
          "type": "address"
        }
      ],
      "name": "getVoterProofIPFS",
      "outputs": [
        {
          "internalType": "string",
          "name": "",
          "type": "string"
        }
      ],
      "stateMutability": "view",
      "type": "function"
    },
    {
      "inputs": [
        {
          "internalType": "address",
          "name": "_voter",
          "type": "address"
        }
      ],
      "name": "getVoterStatus",
      "outputs": [
        {
          "internalType": "bool",
          "name": "committed",
          "type": "bool"
        },
        {
          "internalType": "bool",
          "name": "revealed",
          "type": "bool"
        }
      ],
      "stateMutability": "view",
      "type": "function"
    },
    {
      "inputs": [
        {
          "internalType": "uint256",
          "name": "_id",
          "type": "uint256"
        }
      ],
      "name": "getVotes",
      "outputs": [
        {
          "internalType": "uint256",
          "name": "",
          "type": "uint256"
        }
      ],
      "stateMutability": "view",
      "type": "function"
    },
    {
      "inputs": [
        {
          "internalType": "address",
          "name": "",
          "type": "address"
        }
      ],
      "name": "hasCommitted",
      "outputs": [
        {
          "internalType": "bool",
          "name": "",
          "type": "bool"
        }
      ],
      "stateMutability": "view",
      "type": "function"
    },
    {
      "inputs": [
        {
          "internalType": "address",
          "name": "",
          "type": "address"
        }
      ],
      "name": "hasRevealed",
      "outputs": [
        {
          "internalType": "bool",
          "name": "",
          "type": "bool"
        }
      ],
      "stateMutability": "view",
      "type": "function"
    },
    {
      "inputs": [],
      "name": "merkleRoot",
      "outputs": [
        {
          "internalType": "bytes32",
          "name": "",
          "type": "bytes32"
        }
      ],
      "stateMutability": "view",
      "type": "function"
    },
    {
      "inputs": [],
      "name": "phase",
      "outputs": [
        {
          "internalType": "uint8",
          "name": "",
          "type": "uint8"
        }
      ],
      "stateMutability": "view",
      "type": "function"
    },
    {
      "inputs": [
        {
          "internalType": "uint256",
          "name": "_id",
          "type": "uint256"
        }
      ],
      "name": "removeCandidate",
      "outputs": [],
      "stateMutability": "nonpayable",
      "type": "function"
    },
    {
      "inputs": [],
      "name": "resetElection",
      "outputs": [],
      "stateMutability": "nonpayable",
      "type": "function"
    },
    {
      "inputs": [
        {
          "internalType": "uint256",
          "name": "_choice",
          "type": "uint256"
        },
        {
          "internalType": "bytes32",
          "name": "_salt",
          "type": "bytes32"
        }
      ],
      "name": "revealVote",
      "outputs": [],
      "stateMutability": "nonpayable",
      "type": "function"
    },
    {
      "inputs": [
        {
          "internalType": "string",
          "name": "_ipfsHash",
          "type": "string"
        }
      ],
      "name": "setAuditTrailIPFS",
      "outputs": [],
      "stateMutability": "nonpayable",
      "type": "function"
    },
    {
      "inputs": [
        {
          "internalType": "string",
          "name": "_ipfsHash",
          "type": "string"
        }
      ],
      "name": "setKYCDataIPFS",
      "outputs": [],
      "stateMutability": "nonpayable",
      "type": "function"
    },
    {
      "inputs": [
        {
          "internalType": "bytes32",
          "name": "_root",
          "type": "bytes32"
        }
      ],
      "name": "setMerkleRoot",
      "outputs": [],
      "stateMutability": "nonpayable",
      "type": "function"
    },
    {
      "inputs": [
        {
          "internalType": "string",
          "name": "_ipfsHash",
          "type": "string"
        }
      ],
      "name": "setVoterListIPFS",
      "outputs": [],
      "stateMutability": "nonpayable",
      "type": "function"
    },
    {
      "inputs": [
        {
          "internalType": "address",
          "name": "_voter",
          "type": "address"
        },
        {
          "internalType": "string",
          "name": "_ipfsHash",
          "type": "string"
        }
      ],
      "name": "setVoterProofIPFS",
      "outputs": [],
      "stateMutability": "nonpayable",
      "type": "function"
    },
    {
      "inputs": [],
      "name": "startReveal",
      "outputs": [],
      "stateMutability": "nonpayable",
      "type": "function"
    },
    {
      "inputs": [
        {
          "internalType": "uint256",
          "name": "",
          "type": "uint256"
        }
      ],
      "name": "tally",
      "outputs": [
        {
          "internalType": "uint256",
          "name": "",
          "type": "uint256"
        }
      ],
      "stateMutability": "view",
      "type": "function"
    },
    {
      "inputs": [
        {
          "internalType": "address",
          "name": "",
          "type": "address"
        }
      ],
      "name": "voterProofIPFS",
      "outputs": [
        {
          "internalType": "string",
          "name": "",
          "type": "string"
        }
      ],
      "stateMutability": "view",
      "type": "function"
    }
  ],
  "bytecode": "0x60a06040526000805460ff1916905534801561001a57600080fd5b5033608052608051612fce6100956000396000818161050001528181610560015281816107bd01528181610bb501528181610d4e01528181610e29015281816112d00152818161154b01528181611b7e01528181611e3c01528181611eed01528181611fd80152818161207901526121970152612fce6000f3fe608060405234801561001057600080fd5b50600436106102105760003560e01c806378e3ef2011610125578063b8056d71116100ad578063e8f305231161007c578063e8f30523146104d3578063ed8b6b31146104db578063f851a440146104fb578063fcae83a71461053a578063ff9810991461054257600080fd5b8063b8056d7114610457578063b9a530131461046a578063c6dbe15a1461049d578063df48b377146104c057600080fd5b80638e112430116100f45780638e1124301461040d5780639017386414610420578063a9a981a314610428578063ad72202b14610430578063b1c9fe6e1461043857600080fd5b806378e3ef20146103615780637b43a8e6146103b55780637cb64759146103d557806384632dc0146103e857600080fd5b80632eb4a7ab116101a857806353b2b8d61161017757806353b2b8d6146102f357806355a6ecd61461030857806369edbcda1461031b5780636d5304a21461032e57806375885ede1461034157600080fd5b80632eb4a7ab146102a15780633477ee2e146102aa578063489a1f4c146102cd5780634ac8bea1146102e057600080fd5b80630baa1304116101e45780630baa130414610269578063163888361461027e5780631d29de631461028657806326541b561461028e57600080fd5b8062f1a30814610215578063020b93791461022a57806306a49fce1461024157806309e9d7e214610256575b600080fd5b610228610223366004612664565b610555565b005b600e545b6040519081526020015b60405180910390f35b610249610612565b60405161023891906126ec565b61022861026436600461278a565b6107b2565b6102716108fb565b60405161023891906127a3565b610228610baa565b610228610d43565b61022861029c36600461283b565b610e1e565b61022e60025481565b6102bd6102b836600461278a565b610ff9565b60405161023894939291906128a7565b6102286102db3660046128e5565b61114e565b6102286102ee366004612664565b6112c5565b6102fb6114a1565b604051610238919061299f565b610228610316366004612664565b611540565b6102286103293660046129b9565b6115f1565b61027161033c36600461278a565b6117bf565b61035461034f3660046129f7565b611ad9565b6040516102389190612a12565b61039e61036f3660046129f7565b6001600160a01b031660009081526004602090815260408083205460059092529091205460ff91821692911690565b604080519215158352901515602083015201610238565b61022e6103c33660046129f7565b60036020526000908152604090205481565b6102286103e336600461278a565b611b73565b6103fb6103f636600461278a565b611bc1565b60405161023896959493929190612a25565b61022861041b366004612664565b611e31565b610228611ee2565b60015461022e565b610228611fcd565b6000546104459060ff1681565b60405160ff9091168152602001610238565b610228610465366004612a8d565b61206e565b61048d6104783660046129f7565b60056020526000908152604090205460ff1681565b6040519015158152602001610238565b61048d6104ab3660046129f7565b60046020526000908152604090205460ff1681565b6103546104ce3660046129f7565b6120e0565b61022861218c565b61022e6104e936600461278a565b60066020526000908152604090205481565b6105227f000000000000000000000000000000000000000000000000000000000000000081565b6040516001600160a01b039091168152602001610238565b6103fb612392565b61022e61055036600461278a565b6123a1565b336001600160a01b037f0000000000000000000000000000000000000000000000000000000000000000161461059e57604051637bfa4b9f60e01b815260040160405180910390fd5b60008190036105c0576040516336225e2360e01b815260040160405180910390fd5b60086105cd828483612b8e565b5042600c8190556040517f819ba0c517bdf310fcf778b22d46385f3289796da041d2a54754df0d8ae98f04916106069185918591612c72565b60405180910390a15050565b60606001805480602002602001604051908101604052809291908181526020016000905b828210156107a957838290600052602060002090600402016040518060800160405290816000820154815260200160018201805461067390612af6565b80601f016020809104026020016040519081016040528092919081815260200182805461069f90612af6565b80156106ec5780601f106106c1576101008083540402835291602001916106ec565b820191906000526020600020905b8154815290600101906020018083116106cf57829003601f168201915b5050509183525050600282015460ff161515602082015260038201805460409092019161071890612af6565b80601f016020809104026020016040519081016040528092919081815260200182805461074490612af6565b80156107915780601f1061076657610100808354040283529160200191610791565b820191906000526020600020905b81548152906001019060200180831161077457829003601f168201915b50505050508152505081526020019060010190610636565b50505050905090565b336001600160a01b037f000000000000000000000000000000000000000000000000000000000000000016146107fb57604051637bfa4b9f60e01b815260040160405180910390fd5b6000805460ff1615610820576040516338961af360e21b815260040160405180910390fd5b600154829081106108445760405163347247e160e21b815260040160405180910390fd5b6001818154811061085757610857612c96565b600091825260209091206002600490920201015460ff1661088b576040516323581db160e11b815260040160405180910390fd5b6000600184815481106108a0576108a0612c96565b600091825260209182902060049190910201600201805460ff1916921515929092179091556040518481527f294c5a9bc8a39e6e06502bc8da429980f6c7b0990d75b682c12cb8705e3ace85910160405180910390a1505050565b6109366040518060c0016040528060608152602001606081526020016060815260200160608152602001600081526020016000151581525090565b60086040518060c001604052908160008201805461095390612af6565b80601f016020809104026020016040519081016040528092919081815260200182805461097f90612af6565b80156109cc5780601f106109a1576101008083540402835291602001916109cc565b820191906000526020600020905b8154815290600101906020018083116109af57829003601f168201915b505050505081526020016001820180546109e590612af6565b80601f0160208091040260200160405190810160405280929190818152602001828054610a1190612af6565b8015610a5e5780601f10610a3357610100808354040283529160200191610a5e565b820191906000526020600020905b815481529060010190602001808311610a4157829003601f168201915b50505050508152602001600282018054610a7790612af6565b80601f0160208091040260200160405190810160405280929190818152602001828054610aa390612af6565b8015610af05780601f10610ac557610100808354040283529160200191610af0565b820191906000526020600020905b815481529060010190602001808311610ad357829003601f168201915b50505050508152602001600382018054610b0990612af6565b80601f0160208091040260200160405190810160405280929190818152602001828054610b3590612af6565b8015610b825780601f10610b5757610100808354040283529160200191610b82565b820191906000526020600020905b815481529060010190602001808311610b6557829003601f168201915b50505091835250506004820154602082015260059091015460ff161515604090910152919050565b336001600160a01b037f00000000000000000000000000000000000000000000000000000000000000001614610bf357604051637bfa4b9f60e01b815260040160405180910390fd5b60005b600154811015610c59576001808281548110610c1457610c14612c96565b60009182526020808320600492909202909101600201805460ff1916931515939093179092558281526006909152604081205580610c5181612cc2565b915050610bf6565b5060005b600754811015610cd557600060078281548110610c7c57610c7c612c96565b60009182526020808320909101546001600160a01b0316825260038152604080832083905560048252808320805460ff199081169091556005909252909120805490911690555080610ccd81612cc2565b915050610c5d565b50610ce26007600061254d565b6000805460ff191681556040517f8d1085cd9eceaab0b77fd20c66dea55df08e5ef2d52859c2cb4a1e16ba9476c09190a16000546040805160ff9092168252426020830152600080516020612f7983398151915291015b60405180910390a1565b336001600160a01b037f00000000000000000000000000000000000000000000000000000000000000001614610d8c57604051637bfa4b9f60e01b815260040160405180910390fd5b60005460029060ff168114610db4576040516338961af360e21b815260040160405180910390fd5b6001805490610dc490600061256e565b60005b81811015610df05760008181526006602052604081205580610de881612cc2565b915050610dc7565b506040517ff4b0aec151f41a0af93af55ce56e8ac81b97aeb8198f047c43b8a379ce303b7590600090a15050565b336001600160a01b037f00000000000000000000000000000000000000000000000000000000000000001614610e6757604051637bfa4b9f60e01b815260040160405180910390fd5b6000805460ff1615610e8c576040516338961af360e21b815260040160405180910390fd5b831580610e995750606484115b15610eb757604051631ae3550b60e01b815260040160405180910390fd5b600060018054905090506001604051806080016040528083815260200188888080601f016020809104026020016040519081016040528093929190818152602001838380828437600092019190915250505090825250600160208083019190915260408051601f890183900483028101830182528881529201919088908890819084018382808284376000920182905250939094525050835460018181018655948252602091829020845160049092020190815590830151929390929083019150610f829082612cdb565b50604082015160028201805460ff191691151591909117905560608201516003820190610faf9082612cdb565b5050507fe64f834082661dd9ed89427b87edb6270fd6dad17198b0938f0edd058914c87f8187878787604051610fe9959493929190612d95565b60405180910390a1505050505050565b6001818154811061100957600080fd5b6000918252602090912060049091020180546001820180549193509061102e90612af6565b80601f016020809104026020016040519081016040528092919081815260200182805461105a90612af6565b80156110a75780601f1061107c576101008083540402835291602001916110a7565b820191906000526020600020905b81548152906001019060200180831161108a57829003601f168201915b5050506002840154600385018054949560ff9092169491935091506110cb90612af6565b80601f01602080910402602001604051908101604052809291908181526020018280546110f790612af6565b80156111445780601f1061111957610100808354040283529160200191611144565b820191906000526020600020905b81548152906001019060200180831161112757829003601f168201915b5050505050905084565b6000805460ff1615611173576040516338961af360e21b815260040160405180910390fd5b3360009081526004602052604090205460ff16156111a4576040516317fd8aab60e31b815260040160405180910390fd5b836111c257604051631c37cddf60e21b815260040160405180910390fd5b611200838380806020026020016040519081016040528093929190818152602001838360200280828437600092019190915250339250612427915050565b61121d57604051637c75aa6f60e11b815260040160405180910390fd5b33600081815260036020908152604080832088905560048252808320805460ff191660019081179091556007805491820181559093527fa66cc928b5edb82af9bd49922954155ab7b0942694bea4ce44661d9a8736c68890920180546001600160a01b03191684179055815187815242918101919091527f06fdcf30f0bb2c4ceab314db052ad51b198e3ff93ce4121183516fa1ae84fbc8910160405180910390a250505050565b336001600160a01b037f0000000000000000000000000000000000000000000000000000000000000000161461130e57604051637bfa4b9f60e01b815260040160405180910390fd5b60005460029060ff168114611336576040516338961af360e21b815260040160405180910390fd5b6000829003611358576040516336225e2360e01b815260040160405180910390fd5b600a611365838583612b8e565b50600d805460ff1916600190811790915542600c55600e805491820181556000526008906006027fbb7b4a454dc3493923482f07822329ed19e8244eff582cc204f8554c3620c3fd01806113b98382612dce565b506001818101906113cc90840182612dce565b506002818101906113df90840182612dce565b506003818101906113f290840182612dce565b50600482810154908201556005918201549101805460ff191660ff90921615159190911790556040517fdca7f2930a1eb17324299567c2bd10f43412e226a24676846211c9426ee3af979061144c90859085904290612c72565b60405180910390a1600e5461146390600190612e9b565b7f6cdbe1d240c24194ec144cf90e10f06030875eeb06ae2770da3542b8c31663778484604051611494929190612eae565b60405180910390a2505050565b60015460609060008167ffffffffffffffff8111156114c2576114c2612ae0565b6040519080825280602002602001820160405280156114eb578160200160208202803683370190505b50905060005b8281101561153957600081815260066020526040902054825183908390811061151c5761151c612c96565b60209081029190910101528061153181612cc2565b9150506114f1565b5092915050565b336001600160a01b037f0000000000000000000000000000000000000000000000000000000000000000161461158957604051637bfa4b9f60e01b815260040160405180910390fd5b60008190036115ab576040516336225e2360e01b815260040160405180910390fd5b60096115b8828483612b8e565b5042600c8190556040517fd62c32aa8e5604b1948789c282d44df5262c01643f24b2dbf3b979192c4e6942916106069185918591612c72565b60005460019060ff168114611619576040516338961af360e21b815260040160405180910390fd5b6001548390811061163d5760405163347247e160e21b815260040160405180910390fd5b6001818154811061165057611650612c96565b600091825260209091206002600490920201015460ff16611684576040516323581db160e11b815260040160405180910390fd5b3360009081526004602052604090205460ff166116b457604051637de832b560e11b815260040160405180910390fd5b3360009081526005602052604090205460ff16156116e55760405163a89ac15160e01b815260040160405180910390fd5b60408051602080820187905281830186905282518083038401815260609092018352815191810191909120336000908152600390925291902054811461173e57604051633f4d605360e01b815260040160405180910390fd5b336000908152600560209081526040808320805460ff1916600190811790915588845260069092528220805491929091611779908490612eca565b90915550506040805186815242602082015233917ff65a04be847d83385f9a7abcf32cfb35055023a4affcc7eaa319160746f44528910160405180910390a25050505050565b6117fa6040518060c0016040528060608152602001606081526020016060815260200160608152602001600081526020016000151581525090565b600e5482106118455760405162461bcd60e51b8152602060048201526013602482015272125b9d985b1a5908195b1958dd1a5bdb881251606a1b604482015260640160405180910390fd5b600e828154811061185857611858612c96565b90600052602060002090600602016040518060c001604052908160008201805461188190612af6565b80601f01602080910402602001604051908101604052809291908181526020018280546118ad90612af6565b80156118fa5780601f106118cf576101008083540402835291602001916118fa565b820191906000526020600020905b8154815290600101906020018083116118dd57829003601f168201915b5050505050815260200160018201805461191390612af6565b80601f016020809104026020016040519081016040528092919081815260200182805461193f90612af6565b801561198c5780601f106119615761010080835404028352916020019161198c565b820191906000526020600020905b81548152906001019060200180831161196f57829003601f168201915b505050505081526020016002820180546119a590612af6565b80601f01602080910402602001604051908101604052809291908181526020018280546119d190612af6565b8015611a1e5780601f106119f357610100808354040283529160200191611a1e565b820191906000526020600020905b815481529060010190602001808311611a0157829003601f168201915b50505050508152602001600382018054611a3790612af6565b80601f0160208091040260200160405190810160405280929190818152602001828054611a6390612af6565b8015611ab05780601f10611a8557610100808354040283529160200191611ab0565b820191906000526020600020905b815481529060010190602001808311611a9357829003601f168201915b50505091835250506004820154602082015260059091015460ff16151560409091015292915050565b600f6020526000908152604090208054611af290612af6565b80601f0160208091040260200160405190810160405280929190818152602001828054611b1e90612af6565b8015611b6b5780601f10611b4057610100808354040283529160200191611b6b565b820191906000526020600020905b815481529060010190602001808311611b4e57829003601f168201915b505050505081565b336001600160a01b037f00000000000000000000000000000000000000000000000000000000000000001614611bbc57604051637bfa4b9f60e01b815260040160405180910390fd5b600255565b600e8181548110611bd157600080fd5b9060005260206000209060060201600091509050806000018054611bf490612af6565b80601f0160208091040260200160405190810160405280929190818152602001828054611c2090612af6565b8015611c6d5780601f10611c4257610100808354040283529160200191611c6d565b820191906000526020600020905b815481529060010190602001808311611c5057829003601f168201915b505050505090806001018054611c8290612af6565b80601f0160208091040260200160405190810160405280929190818152602001828054611cae90612af6565b8015611cfb5780601f10611cd057610100808354040283529160200191611cfb565b820191906000526020600020905b815481529060010190602001808311611cde57829003601f168201915b505050505090806002018054611d1090612af6565b80601f0160208091040260200160405190810160405280929190818152602001828054611d3c90612af6565b8015611d895780601f10611d5e57610100808354040283529160200191611d89565b820191906000526020600020905b815481529060010190602001808311611d6c57829003601f168201915b505050505090806003018054611d9e90612af6565b80601f0160208091040260200160405190810160405280929190818152602001828054611dca90612af6565b8015611e175780601f10611dec57610100808354040283529160200191611e17565b820191906000526020600020905b815481529060010190602001808311611dfa57829003601f168201915b50505050600483015460059093015491929160ff16905086565b336001600160a01b037f00000000000000000000000000000000000000000000000000000000000000001614611e7a57604051637bfa4b9f60e01b815260040160405180910390fd5b6000819003611e9c576040516336225e2360e01b815260040160405180910390fd5b600b611ea9828483612b8e565b5042600c8190556040517f679b49a7b2c30d21d5124f19f536635815a7838e16584b7a4e4e3181cc3ec01e916106069185918591612c72565b336001600160a01b037f00000000000000000000000000000000000000000000000000000000000000001614611f2b57604051637bfa4b9f60e01b815260040160405180910390fd5b60005460019060ff168114611f53576040516338961af360e21b815260040160405180910390fd5b6000805460ff1916600290811790915560408051918252426020830152600080516020612f79833981519152910160405180910390a17f9198c79550e07ed98ff2ad73443e892829c97a0f728984d052f739478c43e4ba611fb26114a1565b604051611fc29190600a90612edd565b60405180910390a150565b336001600160a01b037f0000000000000000000000000000000000000000000000000000000000000000161461201657604051637bfa4b9f60e01b815260040160405180910390fd5b6000805460ff161561203b576040516338961af360e21b815260040160405180910390fd5b6000805460ff1916600190811790915560408051918252426020830152600080516020612f798339815191529101611fc2565b336001600160a01b037f000000000000000000000000000000000000000000000000000000000000000016146120b757604051637bfa4b9f60e01b815260040160405180910390fd5b6001600160a01b0383166000908152600f602052604090206120da828483612b8e565b50505050565b6001600160a01b0381166000908152600f6020526040902080546060919061210790612af6565b80601f016020809104026020016040519081016040528092919081815260200182805461213390612af6565b80156121805780601f1061215557610100808354040283529160200191612180565b820191906000526020600020905b81548152906001019060200180831161216357829003601f168201915b50505050509050919050565b336001600160a01b037f000000000000000000000000000000000000000000000000000000000000000016146121d557604051637bfa4b9f60e01b815260040160405180910390fd5b60005460ff166002146121fb5760405163751dd61360e11b815260040160405180910390fd5b60005b60015481101561226157600180828154811061221c5761221c612c96565b60009182526020808320600492909202909101600201805460ff191693151593909317909255828152600690915260408120558061225981612cc2565b9150506121fe565b5060005b6007548110156122dd5760006007828154811061228457612284612c96565b60009182526020808320909101546001600160a01b0316825260038152604080832083905560048252808320805460ff1990811690915560059092529091208054909116905550806122d581612cc2565b915050612265565b506122ea6007600061254d565b600860006122f8828261258f565b61230660018301600061258f565b61231460028301600061258f565b61232260038301600061258f565b506000600482018190556005909101805460ff1990811690915581541681556040517f8d1085cd9eceaab0b77fd20c66dea55df08e5ef2d52859c2cb4a1e16ba9476c09190a16000546040805160ff9092168252426020830152600080516020612f798339815191529101610d39565b600880548190611bf490612af6565b600154600090829081106123c85760405163347247e160e21b815260040160405180910390fd5b600181815481106123db576123db612c96565b600091825260209091206002600490920201015460ff1661240f576040516323581db160e11b815260040160405180910390fd5b60008381526006602052604090205491505b50919050565b6040516bffffffffffffffffffffffff19606083901b166020820152600090819060340160405160208183030381529060405280519060200120905060005b845181101561253f5784818151811061248157612481612c96565b602002602001015182106124df578481815181106124a1576124a1612c96565b6020026020010151826040516020016124c4929190918252602082015260400190565b6040516020818303038152906040528051906020012061252b565b818582815181106124f2576124f2612c96565b6020026020010151604051602001612514929190918252602082015260400190565b604051602081830303815290604052805190602001205b91508061253781612cc2565b915050612466565b506002541490505b92915050565b508054600082559060005260206000209081019061256b91906125c5565b50565b508054600082556004029060005260206000209081019061256b91906125de565b50805461259b90612af6565b6000825580601f106125ab575050565b601f01602090049060005260206000209081019061256b91905b5b808211156125da57600081556001016125c6565b5090565b808211156125da5760008082556125f8600183018261258f565b60028201805460ff1916905561261260038301600061258f565b506004016125de565b60008083601f84011261262d57600080fd5b50813567ffffffffffffffff81111561264557600080fd5b60208301915083602082850101111561265d57600080fd5b9250929050565b6000806020838503121561267757600080fd5b823567ffffffffffffffff81111561268e57600080fd5b61269a8582860161261b565b90969095509350505050565b6000815180845260005b818110156126cc576020818501810151868301820152016126b0565b506000602082860101526020601f19601f83011685010191505092915050565b60006020808301818452808551808352604092508286019150828160051b87010184880160005b8381101561277c57603f19898403018552815160808151855288820151818a870152612741828701826126a6565b915050878201511515888601526060808301519250858203818701525061276881836126a6565b968901969450505090860190600101612713565b509098975050505050505050565b60006020828403121561279c57600080fd5b5035919050565b602081526000825160c060208401526127bf60e08401826126a6565b90506020840151601f19808584030160408601526127dd83836126a6565b925060408601519150808584030160608601526127fa83836126a6565b925060608601519150808584030160808601525061281882826126a6565b915050608084015160a084015260a0840151151560c08401528091505092915050565b6000806000806040858703121561285157600080fd5b843567ffffffffffffffff8082111561286957600080fd5b6128758883890161261b565b9096509450602087013591508082111561288e57600080fd5b5061289b8782880161261b565b95989497509550505050565b8481526080602082015260006128c060808301866126a6565b841515604084015282810360608401526128da81856126a6565b979650505050505050565b6000806000604084860312156128fa57600080fd5b83359250602084013567ffffffffffffffff8082111561291957600080fd5b818601915086601f83011261292d57600080fd5b81358181111561293c57600080fd5b8760208260051b850101111561295157600080fd5b6020830194508093505050509250925092565b600081518084526020808501945080840160005b8381101561299457815187529582019590820190600101612978565b509495945050505050565b6020815260006129b26020830184612964565b9392505050565b600080604083850312156129cc57600080fd5b50508035926020909101359150565b80356001600160a01b03811681146129f257600080fd5b919050565b600060208284031215612a0957600080fd5b6129b2826129db565b6020815260006129b260208301846126a6565b60c081526000612a3860c08301896126a6565b8281036020840152612a4a81896126a6565b90508281036040840152612a5e81886126a6565b90508281036060840152612a7281876126a6565b6080840195909552505090151560a090910152949350505050565b600080600060408486031215612aa257600080fd5b612aab846129db565b9250602084013567ffffffffffffffff811115612ac757600080fd5b612ad38682870161261b565b9497909650939450505050565b634e487b7160e01b600052604160045260246000fd5b600181811c90821680612b0a57607f821691505b60208210810361242157634e487b7160e01b600052602260045260246000fd5b601f821115612b7457600081815260208120601f850160051c81016020861015612b515750805b601f850160051c820191505b81811015612b7057828155600101612b5d565b5050505b505050565b600019600383901b1c191660019190911b1790565b67ffffffffffffffff831115612ba657612ba6612ae0565b612bba83612bb48354612af6565b83612b2a565b6000601f841160018114612be85760008515612bd65750838201355b612be08682612b79565b845550612c42565b600083815260209020601f19861690835b82811015612c195786850135825560209485019460019092019101612bf9565b5086821015612c365760001960f88860031b161c19848701351681555b505060018560011b0183555b5050505050565b81835281816020850137506000828201602090810191909152601f909101601f19169091010190565b604081526000612c86604083018587612c49565b9050826020830152949350505050565b634e487b7160e01b600052603260045260246000fd5b634e487b7160e01b600052601160045260246000fd5b600060018201612cd457612cd4612cac565b5060010190565b815167ffffffffffffffff811115612cf557612cf5612ae0565b612d0981612d038454612af6565b84612b2a565b602080601f831160018114612d385760008415612d265750858301515b612d308582612b79565b865550612b70565b600085815260208120601f198616915b82811015612d6757888601518255948401946001909101908401612d48565b5085821015612d855787850151600019600388901b60f8161c191681555b5050505050600190811b01905550565b858152606060208201526000612daf606083018688612c49565b8281036040840152612dc2818587612c49565b98975050505050505050565b818103612dd9575050565b612de38254612af6565b67ffffffffffffffff811115612dfb57612dfb612ae0565b612e0981612d038454612af6565b6000601f821160018114612e375760008315612e255750848201545b612e2f8482612b79565b855550612c42565b600085815260209020601f19841690600086815260209020845b83811015612e715782860154825560019586019590910190602001612e51565b5085831015612d855793015460001960f8600387901b161c19169092555050600190811b01905550565b8181038181111561254757612547612cac565b602081526000612ec2602083018486612c49565b949350505050565b8082018082111561254757612547612cac565b604081526000612ef06040830185612964565b60208382038185015260008554612f0681612af6565b80855260018281168015612f215760018114612f3b57612f69565b60ff1984168787015282151560051b870186019450612f69565b896000528560002060005b84811015612f61578154898201890152908301908701612f46565b880187019550505b5092999850505050505050505056fee65264342b0c60a079c9c89c73855ac517088348498810186d8c8ae6c7848ba1a2646970667358221220c3743fde81db71ac10ca0a88d4509d46be1a4b02c70ffd3ac45d54fe2930eaf864736f6c63430008140033",
  "linkReferences": {},
  "deployedLinkReferences": {}
}