{"contracts/BharatVoteWithIPFS.sol":{"BharatVoteWithIPFS":{"abi":[{"inputs":[],"stateMutability":"nonpayable","type":"constructor"},{"inputs":[],"name":"AlreadyCommitted","type":"error"},{"inputs":[],"name":"AlreadyRevealed","type":"error"},{"inputs":[],"name":"CanOnlyResetAfterFinish","type":"error"},{"inputs":[],"name":"EmptyHash","type":"error"},{"inputs":[],"name":"EmptyIPFSHash","type":"error"},{"inputs":[],"name":"HashMismatch","type":"error"},{"inputs":[],"name":"InactiveCandidate","type":"error"},{"inputs":[],"name":"InvalidCandidateId","type":"error"},{"inputs":[],"name":"InvalidNameLength","type":"error"},{"inputs":[],"name":"NoCommit","type":"error"},{"inputs":[],"name":"NotAdmin","type":"error"},{"inputs":[],"name":"NotEligible","type":"error"},{"inputs":[],"name":"WrongPhase","type":"error"},{"anonymous":false,"inputs":[],"name":"AllCandidatesCleared","type":"event"},{"anonymous":false,"inputs":[{"indexed":false,"internalType":"string","name":"ipfsHash","type":"string"},{"indexed":false,"internalType":"uint256","name":"timestamp","type":"uint256"}],"name":"AuditTrailUpdated","type":"event"},{"anonymous":false,"inputs":[{"indexed":false,"internalType":"uint256","name":"id","type":"uint256"},{"indexed":false,"internalType":"string","name":"name","type":"string"},{"indexed":false,"internalType":"string","name":"ipfsHash","type":"string"}],"name":"CandidateAdded","type":"event"},{"anonymous":false,"inputs":[{"indexed":false,"internalType":"uint256","name":"id","type":"uint256"}],"name":"CandidateRemoved","type":"event"},{"anonymous":false,"inputs":[{"indexed":true,"internalType":"uint256","name":"electionId","type":"uint256"},{"indexed":false,"internalType":"string","name":"resultsIPFS","type":"string"}],"name":"ElectionArchived","type":"event"},{"anonymous":false,"inputs":[],"name":"ElectionReset","type":"event"},{"anonymous":false,"inputs":[{"indexed":false,"internalType":"string","name":"ipfsHash","type":"string"},{"indexed":false,"internalType":"uint256","name":"timestamp","type":"uint256"}],"name":"KYCDataStored","type":"event"},{"anonymous":false,"inputs":[{"indexed":false,"internalType":"uint8","name":"newPhase","type":"uint8"},{"indexed":false,"internalType":"uint256","name":"timestamp","type":"uint256"}],"name":"PhaseChanged","type":"event"},{"anonymous":false,"inputs":[{"indexed":false,"internalType":"string","name":"ipfsHash","type":"string"},{"indexed":false,"internalType":"uint256","name":"timestamp","type":"uint256"}],"name":"ResultsArchived","type":"event"},{"anonymous":false,"inputs":[{"indexed":false,"internalType":"uint256[]","name":"finalTally","type":"uint256[]"},{"indexed":false,"internalType":"string","name":"resultsIPFS","type":"string"}],"name":"TallyFinalized","type":"event"},{"anonymous":false,"inputs":[{"indexed":true,"internalType":"address","name":"voter","type":"address"},{"indexed":false,"internalType":"bytes32","name":"commit","type":"bytes32"},{"indexed":false,"internalType":"uint256","name":"timestamp","type":"uint256"}],"name":"VoteCommitted","type":"event"},{"anonymous":false,"inputs":[{"indexed":true,"internalType":"address","name":"voter","type":"address"},{"indexed":false,"internalType":"uint256","name":"choice","type":"uint256"},{"indexed":false,"internalType":"uint256","name":"timestamp","type":"uint256"}],"name":"VoteRevealed","type":"event"},{"anonymous":false,"inputs":[{"indexed":false,"internalType":"string","name":"ipfsHash","type":"string"},{"indexed":false,"internalType":"uint256","name":"timestamp","type":"uint256"}],"name":"VoterListStored","type":"event"},{"inputs":[{"internalType":"string","name":"_name","type":"string"},{"internalType":"string","name":"_ipfsMetadata","type":"string"}],"name":"addCandidate","outputs":[],"stateMutability":"nonpayable","type":"function"},{"inputs":[],"name":"admin","outputs":[{"internalType":"address","name":"","type":"address"}],"stateMutability":"view","type":"function"},{"inputs":[{"internalType":"string","name":"_ipfsHash","type":"string"}],"name":"archiveResults","outputs":[],"stateMutability":"nonpayable","type":"function"},{"inputs":[{"internalType":"uint256","name":"","type":"uint256"}],"name":"archivedElections","outputs":[{"internalType":"string","name":"kycDataIPFS","type":"string"},{"internalType":"string","name":"voterListIPFS","type":"string"},{"internalType":"string","name":"resultsIPFS","type":"string"},{"internalType":"string","name":"auditTrailIPFS","type":"string"},{"internalType":"uint256","name":"timestamp","type":"uint256"},{"internalType":"bool","name":"isArchived","type":"bool"}],"stateMutability":"view","type":"function"},{"inputs":[],"name":"candidateCount","outputs":[{"internalType":"uint256","name":"","type":"uint256"}],"stateMutability":"view","type":"function"},{"inputs":[{"internalType":"uint256","name":"","type":"uint256"}],"name":"candidates","outputs":[{"internalType":"uint256","name":"id","type":"uint256"},{"internalType":"string","name":"name","type":"string"},{"internalType":"bool","name":"isActive","type":"bool"},{"internalType":"string","name":"ipfsMetadata","type":"string"}],"stateMutability":"view","type":"function"},{"inputs":[],"name":"clearAllCandidates","outputs":[],"stateMutability":"nonpayable","type":"function"},{"inputs":[{"internalType":"bytes32","name":"_commit","type":"bytes32"},{"internalType":"bytes32[]","name":"_proof","type":"bytes32[]"}],"name":"commitVote","outputs":[],"stateMutability":"nonpayable","type":"function"},{"inputs":[{"internalType":"address","name":"","type":"address"}],"name":"commits","outputs":[{"internalType":"bytes32","name":"","type":"bytes32"}],"stateMutability":"view","type":"function"},{"inputs":[],"name":"currentElection","outputs":[{"internalType":"string","name":"kycDataIPFS","type":"string"},{"internalType":"string","name":"voterListIPFS","type":"string"},{"internalType":"string","name":"resultsIPFS","type":"string"},{"internalType":"string","name":"auditTrailIPFS","type":"string"},{"internalType":"uint256","name":"timestamp","type":"uint256"},{"internalType":"bool","name":"isArchived","type":"bool"}],"stateMutability":"view","type":"function"},{"inputs":[],"name":"emergencyReset","outputs":[],"stateMutability":"nonpayable","type":"function"},{"inputs":[],"name":"finishElection","outputs":[],"stateMutability":"nonpayable","type":"function"},{"inputs":[{"internalType":"uint256","name":"_id","type":"uint256"}],"name":"getArchivedElection","outputs":[{"components":[{"internalType":"string","name":"kycDataIPFS","type":"string"},{"internalType":"string","name":"voterListIPFS","type":"string"},{"internalType":"string","name":"resultsIPFS","type":"string"},{"internalType":"string","name":"auditTrailIPFS","type":"string"},{"internalType":"uint256","name":"timestamp","type":"uint256"},{"internalType":"bool","name":"isArchived","type":"bool"}],"internalType":"struct BharatVoteWithIPFS.ElectionData","name":"","type":"tuple"}],"stateMutability":"view","type":"function"},{"inputs":[],"name":"getArchivedElectionsCount","outputs":[{"internalType":"uint256","name":"","type":"uint256"}],"stateMutability":"view","type":"function"},{"inputs":[],"name":"getCandidates","outputs":[{"components":[{"internalType":"uint256","name":"id","type":"uint256"},{"internalType":"string","name":"name","type":"string"},{"internalType":"bool","name":"isActive","type":"bool"},{"internalType":"string","name":"ipfsMetadata","type":"string"}],"internalType":"struct BharatVoteWithIPFS.Candidate[]","name":"","type":"tuple[]"}],"stateMutability":"view","type":"function"},{"inputs":[],"name":"getCurrentElectionData","outputs":[{"components":[{"internalType":"string","name":"kycDataIPFS","type":"string"},{"internalType":"string","name":"voterListIPFS","type":"string"},{"internalType":"string","name":"resultsIPFS","type":"string"},{"internalType":"string","name":"auditTrailIPFS","type":"string"},{"internalType":"uint256","name":"timestamp","type":"uint256"},{"internalType":"bool","name":"isArchived","type":"bool"}],"internalType":"struct BharatVoteWithIPFS.ElectionData","name":"","type":"tuple"}],"stateMutability":"view","type":"function"},{"inputs":[],"name":"getTally","outputs":[{"internalType":"uint256[]","name":"","type":"uint256[]"}],"stateMutability":"view","type":"function"},{"inputs":[{"internalType":"address","name":"_voter","type":"address"}],"name":"getVoterProofIPFS","outputs":[{"internalType":"string","name":"","type":"string"}],"stateMutability":"view","type":"function"},{"inputs":[{"internalType":"address","name":"_voter","type":"address"}],"name":"getVoterStatus","outputs":[{"internalType":"bool","name":"committed","type":"bool"},{"internalType":"bool","name":"revealed","type":"bool"}],"stateMutability":"view","type":"function"},{"inputs":[{"internalType":"uint256","name":"_id","type":"uint256"}],"name":"getVotes","outputs":[{"internalType":"uint256","name":"","type":"uint256"}],"stateMutability":"view","type":"function"},{"inputs":[{"internalType":"address","name":"","type":"address"}],"name":"hasCommitted","outputs":[{"internalType":"bool","name":"","type":"bool"}],"stateMutability":"view","type":"function"},{"inputs":[{"internalType":"address","name":"","type":"address"}],"name":"hasRevealed","outputs":[{"internalType":"bool","name":"","type":"bool"}],"stateMutability":"view","type":"function"},{"inputs":[],"name":"merkleRoot","outputs":[{"internalType":"bytes32","name":"","type":"bytes32"}],"stateMutability":"view","type":"function"},{"inputs":[],"name":"phase","outputs":[{"internalType":"uint8","name":"","type":"uint8"}],"stateMutability":"view","type":"function"},{"inputs":[{"internalType":"uint256","name":"_id","type":"uint256"}],"name":"removeCandidate","outputs":[],"stateMutability":"nonpayable","type":"function"},{"inputs":[],"name":"resetElection","outputs":[],"stateMutability":"nonpayable","type":"function"},{"inputs":[{"internalType":"uint256","name":"_choice","type":"uint256"},{"internalType":"bytes32","name":"_salt","type":"bytes32"}],"name":"revealVote","outputs":[],"stateMutability":"nonpayable","type":"function"},{"inputs":[{"internalType":"string","name":"_ipfsHash","type":"string"}],"name":"setAuditTrailIPFS","outputs":[],"stateMutability":"nonpayable","type":"function"},{"inputs":[{"internalType":"string","name":"_ipfsHash","type":"string"}],"name":"setKYCDataIPFS","outputs":[],"stateMutability":"nonpayable","type":"function"},{"inputs":[{"internalType":"bytes32","name":"_root","type":"bytes32"}],"name":"setMerkleRoot","outputs":[],"stateMutability":"nonpayable","type":"function"},{"inputs":[{"internalType":"string","name":"_ipfsHash","type":"string"}],"name":"setVoterListIPFS","outputs":[],"stateMutability":"nonpayable","type":"function"},{"inputs":[{"internalType":"address","name":"_voter","type":"address"},{"internalType":"string","name":"_ipfsHash","type":"string"}],"name":"setVoterProofIPFS","outputs":[],"stateMutability":"nonpayable","type":"function"},{"inputs":[],"name":"startReveal","outputs":[],"stateMutability":"nonpayable","type":"function"},{"inputs":[{"internalType":"uint256","name":"","type":"uint256"}],"name":"tally","outputs":[{"internalType":"uint256","name":"","type":"uint256"}],"stateMutability":"view","type":"function"},{"inputs":[{"internalType":"address","name":"","type":"address"}],"name":"voterProofIPFS","outputs":[{"internalType":"string","name":"","type":"string"}],"stateMutability":"view","type":"function"}],"evm":{"bytecode":{"linkReferences":{},"object":"60a06040526000805460ff1916905534801561001a57600080fd5b5033608052608051612fce6100956000396000818161050001528181610560015281816107bd01528181610bb501528181610d4e01528181610e29015281816112d00152818161154b01528181611b7e01528181611e3c01528181611eed01528181611fd80152818161207901526121970152612fce6000f3fe608060405234801561001057600080fd5b50600436106102105760003560e01c806378e3ef2011610125578063b8056d71116100ad578063e8f305231161007c578063e8f30523146104d3578063ed8b6b31146104db578063f851a440146104fb578063fcae83a71461053a578063ff9810991461054257600080fd5b8063b8056d7114610457578063b9a530131461046a578063c6dbe15a1461049d578063df48b377146104c057600080fd5b80638e112430116100f45780638e1124301461040d5780639017386414610420578063a9a981a314610428578063ad72202b14610430578063b1c9fe6e1461043857600080fd5b806378e3ef20146103615780637b43a8e6146103b55780637cb64759146103d557806384632dc0146103e857600080fd5b80632eb4a7ab116101a857806353b2b8d61161017757806353b2b8d6146102f357806355a6ecd61461030857806369edbcda1461031b5780636d5304a21461032e57806375885ede1461034157600080fd5b80632eb4a7ab146102a15780633477ee2e146102aa578063489a1f4c146102cd5780634ac8bea1146102e057600080fd5b80630baa1304116101e45780630baa130414610269578063163888361461027e5780631d29de631461028657806326541b561461028e57600080fd5b8062f1a30814610215578063020b93791461022a57806306a49fce1461024157806309e9d7e214610256575b600080fd5b610228610223366004612664565b610555565b005b600e545b6040519081526020015b60405180910390f35b610249610612565b60405161023891906126ec565b61022861026436600461278a565b6107b2565b6102716108fb565b60405161023891906127a3565b610228610baa565b610228610d43565b61022861029c36600461283b565b610e1e565b61022e60025481565b6102bd6102b836600461278a565b610ff9565b60405161023894939291906128a7565b6102286102db3660046128e5565b61114e565b6102286102ee366004612664565b6112c5565b6102fb6114a1565b604051610238919061299f565b610228610316366004612664565b611540565b6102286103293660046129b9565b6115f1565b61027161033c36600461278a565b6117bf565b61035461034f3660046129f7565b611ad9565b6040516102389190612a12565b61039e61036f3660046129f7565b6001600160a01b031660009081526004602090815260408083205460059092529091205460ff91821692911690565b604080519215158352901515602083015201610238565b61022e6103c33660046129f7565b60036020526000908152604090205481565b6102286103e336600461278a565b611b73565b6103fb6103f636600461278a565b611bc1565b60405161023896959493929190612a25565b61022861041b366004612664565b611e31565b610228611ee2565b60015461022e565b610228611fcd565b6000546104459060ff1681565b60405160ff9091168152602001610238565b610228610465366004612a8d565b61206e565b61048d6104783660046129f7565b60056020526000908152604090205460ff1681565b6040519015158152602001610238565b61048d6104ab3660046129f7565b60046020526000908152604090205460ff1681565b6103546104ce3660046129f7565b6120e0565b61022861218c565b61022e6104e936600461278a565b60066020526000908152604090205481565b6105227f000000000000000000000000000000000000000000000000000000000000000081565b6040516001600160a01b039091168152602001610238565b6103fb612392565b61022e61055036600461278a565b6123a1565b336001600160a01b037f0000000000000000000000000000000000000000000000000000000000000000161461059e57604051637bfa4b9f60e01b815260040160405180910390fd5b60008190036105c0576040516336225e2360e01b815260040160405180910390fd5b60086105cd828483612b8e565b5042600c8190556040517f819ba0c517bdf310fcf778b22d46385f3289796da041d2a54754df0d8ae98f04916106069185918591612c72565b60405180910390a15050565b60606001805480602002602001604051908101604052809291908181526020016000905b828210156107a957838290600052602060002090600402016040518060800160405290816000820154815260200160018201805461067390612af6565b80601f016020809104026020016040519081016040528092919081815260200182805461069f90612af6565b80156106ec5780601f106106c1576101008083540402835291602001916106ec565b820191906000526020600020905b8154815290600101906020018083116106cf57829003601f168201915b5050509183525050600282015460ff161515602082015260038201805460409092019161071890612af6565b80601f016020809104026020016040519081016040528092919081815260200182805461074490612af6565b80156107915780601f1061076657610100808354040283529160200191610791565b820191906000526020600020905b81548152906001019060200180831161077457829003601f168201915b50505050508152505081526020019060010190610636565b50505050905090565b336001600160a01b037f000000000000000000000000000000000000000000000000000000000000000016146107fb57604051637bfa4b9f60e01b815260040160405180910390fd5b6000805460ff1615610820576040516338961af360e21b815260040160405180910390fd5b600154829081106108445760405163347247e160e21b815260040160405180910390fd5b6001818154811061085757610857612c96565b600091825260209091206002600490920201015460ff1661088b576040516323581db160e11b815260040160405180910390fd5b6000600184815481106108a0576108a0612c96565b600091825260209182902060049190910201600201805460ff1916921515929092179091556040518481527f294c5a9bc8a39e6e06502bc8da429980f6c7b0990d75b682c12cb8705e3ace85910160405180910390a1505050565b6109366040518060c0016040528060608152602001606081526020016060815260200160608152602001600081526020016000151581525090565b60086040518060c001604052908160008201805461095390612af6565b80601f016020809104026020016040519081016040528092919081815260200182805461097f90612af6565b80156109cc5780601f106109a1576101008083540402835291602001916109cc565b820191906000526020600020905b8154815290600101906020018083116109af57829003601f168201915b505050505081526020016001820180546109e590612af6565b80601f0160208091040260200160405190810160405280929190818152602001828054610a1190612af6565b8015610a5e5780601f10610a3357610100808354040283529160200191610a5e565b820191906000526020600020905b815481529060010190602001808311610a4157829003601f168201915b50505050508152602001600282018054610a7790612af6565b80601f0160208091040260200160405190810160405280929190818152602001828054610aa390612af6565b8015610af05780601f10610ac557610100808354040283529160200191610af0565b820191906000526020600020905b815481529060010190602001808311610ad357829003601f168201915b50505050508152602001600382018054610b0990612af6565b80601f0160208091040260200160405190810160405280929190818152602001828054610b3590612af6565b8015610b825780601f10610b5757610100808354040283529160200191610b82565b820191906000526020600020905b815481529060010190602001808311610b6557829003601f168201915b50505091835250506004820154602082015260059091015460ff161515604090910152919050565b336001600160a01b037f00000000000000000000000000000000000000000000000000000000000000001614610bf357604051637bfa4b9f60e01b815260040160405180910390fd5b60005b600154811015610c59576001808281548110610c1457610c14612c96565b60009182526020808320600492909202909101600201805460ff1916931515939093179092558281526006909152604081205580610c5181612cc2565b915050610bf6565b5060005b600754811015610cd557600060078281548110610c7c57610c7c612c96565b60009182526020808320909101546001600160a01b0316825260038152604080832083905560048252808320805460ff199081169091556005909252909120805490911690555080610ccd81612cc2565b915050610c5d565b50610ce26007600061254d565b6000805460ff191681556040517f8d1085cd9eceaab0b77fd20c66dea55df08e5ef2d52859c2cb4a1e16ba9476c09190a16000546040805160ff9092168252426020830152600080516020612f7983398151915291015b60405180910390a1565b336001600160a01b037f00000000000000000000000000000000000000000000000000000000000000001614610d8c57604051637bfa4b9f60e01b815260040160405180910390fd5b60005460029060ff168114610db4576040516338961af360e21b815260040160405180910390fd5b6001805490610dc490600061256e565b60005b81811015610df05760008181526006602052604081205580610de881612cc2565b915050610dc7565b506040517ff4b0aec151f41a0af93af55ce56e8ac81b97aeb8198f047c43b8a379ce303b7590600090a15050565b336001600160a01b037f00000000000000000000000000000000000000000000000000000000000000001614610e6757604051637bfa4b9f60e01b815260040160405180910390fd5b6000805460ff1615610e8c576040516338961af360e21b815260040160405180910390fd5b831580610e995750606484115b15610eb757604051631ae3550b60e01b815260040160405180910390fd5b600060018054905090506001604051806080016040528083815260200188888080601f016020809104026020016040519081016040528093929190818152602001838380828437600092019190915250505090825250600160208083019190915260408051601f890183900483028101830182528881529201919088908890819084018382808284376000920182905250939094525050835460018181018655948252602091829020845160049092020190815590830151929390929083019150610f829082612cdb565b50604082015160028201805460ff191691151591909117905560608201516003820190610faf9082612cdb565b5050507fe64f834082661dd9ed89427b87edb6270fd6dad17198b0938f0edd058914c87f8187878787604051610fe9959493929190612d95565b60405180910390a1505050505050565b6001818154811061100957600080fd5b6000918252602090912060049091020180546001820180549193509061102e90612af6565b80601f016020809104026020016040519081016040528092919081815260200182805461105a90612af6565b80156110a75780601f1061107c576101008083540402835291602001916110a7565b820191906000526020600020905b81548152906001019060200180831161108a57829003601f168201915b5050506002840154600385018054949560ff9092169491935091506110cb90612af6565b80601f01602080910402602001604051908101604052809291908181526020018280546110f790612af6565b80156111445780601f1061111957610100808354040283529160200191611144565b820191906000526020600020905b81548152906001019060200180831161112757829003601f168201915b5050505050905084565b6000805460ff1615611173576040516338961af360e21b815260040160405180910390fd5b3360009081526004602052604090205460ff16156111a4576040516317fd8aab60e31b815260040160405180910390fd5b836111c257604051631c37cddf60e21b815260040160405180910390fd5b611200838380806020026020016040519081016040528093929190818152602001838360200280828437600092019190915250339250612427915050565b61121d57604051637c75aa6f60e11b815260040160405180910390fd5b33600081815260036020908152604080832088905560048252808320805460ff191660019081179091556007805491820181559093527fa66cc928b5edb82af9bd49922954155ab7b0942694bea4ce44661d9a8736c68890920180546001600160a01b03191684179055815187815242918101919091527f06fdcf30f0bb2c4ceab314db052ad51b198e3ff93ce4121183516fa1ae84fbc8910160405180910390a250505050565b336001600160a01b037f0000000000000000000000000000000000000000000000000000000000000000161461130e57604051637bfa4b9f60e01b815260040160405180910390fd5b60005460029060ff168114611336576040516338961af360e21b815260040160405180910390fd5b6000829003611358576040516336225e2360e01b815260040160405180910390fd5b600a611365838583612b8e565b50600d805460ff1916600190811790915542600c55600e805491820181556000526008906006027fbb7b4a454dc3493923482f07822329ed19e8244eff582cc204f8554c3620c3fd01806113b98382612dce565b506001818101906113cc90840182612dce565b506002818101906113df90840182612dce565b506003818101906113f290840182612dce565b50600482810154908201556005918201549101805460ff191660ff90921615159190911790556040517fdca7f2930a1eb17324299567c2bd10f43412e226a24676846211c9426ee3af979061144c90859085904290612c72565b60405180910390a1600e5461146390600190612e9b565b7f6cdbe1d240c24194ec144cf90e10f06030875eeb06ae2770da3542b8c31663778484604051611494929190612eae565b60405180910390a2505050565b60015460609060008167ffffffffffffffff8111156114c2576114c2612ae0565b6040519080825280602002602001820160405280156114eb578160200160208202803683370190505b50905060005b8281101561153957600081815260066020526040902054825183908390811061151c5761151c612c96565b60209081029190910101528061153181612cc2565b9150506114f1565b5092915050565b336001600160a01b037f0000000000000000000000000000000000000000000000000000000000000000161461158957604051637bfa4b9f60e01b815260040160405180910390fd5b60008190036115ab576040516336225e2360e01b815260040160405180910390fd5b60096115b8828483612b8e565b5042600c8190556040517fd62c32aa8e5604b1948789c282d44df5262c01643f24b2dbf3b979192c4e6942916106069185918591612c72565b60005460019060ff168114611619576040516338961af360e21b815260040160405180910390fd5b6001548390811061163d5760405163347247e160e21b815260040160405180910390fd5b6001818154811061165057611650612c96565b600091825260209091206002600490920201015460ff16611684576040516323581db160e11b815260040160405180910390fd5b3360009081526004602052604090205460ff166116b457604051637de832b560e11b815260040160405180910390fd5b3360009081526005602052604090205460ff16156116e55760405163a89ac15160e01b815260040160405180910390fd5b60408051602080820187905281830186905282518083038401815260609092018352815191810191909120336000908152600390925291902054811461173e57604051633f4d605360e01b815260040160405180910390fd5b336000908152600560209081526040808320805460ff1916600190811790915588845260069092528220805491929091611779908490612eca565b90915550506040805186815242602082015233917ff65a04be847d83385f9a7abcf32cfb35055023a4affcc7eaa319160746f44528910160405180910390a25050505050565b6117fa6040518060c0016040528060608152602001606081526020016060815260200160608152602001600081526020016000151581525090565b600e5482106118455760405162461bcd60e51b8152602060048201526013602482015272125b9d985b1a5908195b1958dd1a5bdb881251606a1b604482015260640160405180910390fd5b600e828154811061185857611858612c96565b90600052602060002090600602016040518060c001604052908160008201805461188190612af6565b80601f01602080910402602001604051908101604052809291908181526020018280546118ad90612af6565b80156118fa5780601f106118cf576101008083540402835291602001916118fa565b820191906000526020600020905b8154815290600101906020018083116118dd57829003601f168201915b5050505050815260200160018201805461191390612af6565b80601f016020809104026020016040519081016040528092919081815260200182805461193f90612af6565b801561198c5780601f106119615761010080835404028352916020019161198c565b820191906000526020600020905b81548152906001019060200180831161196f57829003601f168201915b505050505081526020016002820180546119a590612af6565b80601f01602080910402602001604051908101604052809291908181526020018280546119d190612af6565b8015611a1e5780601f106119f357610100808354040283529160200191611a1e565b820191906000526020600020905b815481529060010190602001808311611a0157829003601f168201915b50505050508152602001600382018054611a3790612af6565b80601f0160208091040260200160405190810160405280929190818152602001828054611a6390612af6565b8015611ab05780601f10611a8557610100808354040283529160200191611ab0565b820191906000526020600020905b815481529060010190602001808311611a9357829003601f168201915b50505091835250506004820154602082015260059091015460ff16151560409091015292915050565b600f6020526000908152604090208054611af290612af6565b80601f0160208091040260200160405190810160405280929190818152602001828054611b1e90612af6565b8015611b6b5780601f10611b4057610100808354040283529160200191611b6b565b820191906000526020600020905b815481529060010190602001808311611b4e57829003601f168201915b505050505081565b336001600160a01b037f00000000000000000000000000000000000000000000000000000000000000001614611bbc57604051637bfa4b9f60e01b815260040160405180910390fd5b600255565b600e8181548110611bd157600080fd5b9060005260206000209060060201600091509050806000018054611bf490612af6565b80601f0160208091040260200160405190810160405280929190818152602001828054611c2090612af6565b8015611c6d5780601f10611c4257610100808354040283529160200191611c6d565b820191906000526020600020905b815481529060010190602001808311611c5057829003601f168201915b505050505090806001018054611c8290612af6565b80601f0160208091040260200160405190810160405280929190818152602001828054611cae90612af6565b8015611cfb5780601f10611cd057610100808354040283529160200191611cfb565b820191906000526020600020905b815481529060010190602001808311611cde57829003601f168201915b505050505090806002018054611d1090612af6565b80601f0160208091040260200160405190810160405280929190818152602001828054611d3c90612af6565b8015611d895780601f10611d5e57610100808354040283529160200191611d89565b820191906000526020600020905b815481529060010190602001808311611d6c57829003601f168201915b505050505090806003018054611d9e90612af6565b80601f0160208091040260200160405190810160405280929190818152602001828054611dca90612af6565b8015611e175780601f10611dec57610100808354040283529160200191611e17565b820191906000526020600020905b815481529060010190602001808311611dfa57829003601f168201915b50505050600483015460059093015491929160ff16905086565b336001600160a01b037f00000000000000000000000000000000000000000000000000000000000000001614611e7a57604051637bfa4b9f60e01b815260040160405180910390fd5b6000819003611e9c576040516336225e2360e01b815260040160405180910390fd5b600b611ea9828483612b8e565b5042600c8190556040517f679b49a7b2c30d21d5124f19f536635815a7838e16584b7a4e4e3181cc3ec01e916106069185918591612c72565b336001600160a01b037f00000000000000000000000000000000000000000000000000000000000000001614611f2b57604051637bfa4b9f60e01b815260040160405180910390fd5b60005460019060ff168114611f53576040516338961af360e21b815260040160405180910390fd5b6000805460ff1916600290811790915560408051918252426020830152600080516020612f79833981519152910160405180910390a17f9198c79550e07ed98ff2ad73443e892829c97a0f728984d052f739478c43e4ba611fb26114a1565b604051611fc29190600a90612edd565b60405180910390a150565b336001600160a01b037f0000000000000000000000000000000000000000000000000000000000000000161461201657604051637bfa4b9f60e01b815260040160405180910390fd5b6000805460ff161561203b576040516338961af360e21b815260040160405180910390fd5b6000805460ff1916600190811790915560408051918252426020830152600080516020612f798339815191529101611fc2565b336001600160a01b037f000000000000000000000000000000000000000000000000000000000000000016146120b757604051637bfa4b9f60e01b815260040160405180910390fd5b6001600160a01b0383166000908152600f602052604090206120da828483612b8e565b50505050565b6001600160a01b0381166000908152600f6020526040902080546060919061210790612af6565b80601f016020809104026020016040519081016040528092919081815260200182805461213390612af6565b80156121805780601f1061215557610100808354040283529160200191612180565b820191906000526020600020905b81548152906001019060200180831161216357829003601f168201915b50505050509050919050565b336001600160a01b037f000000000000000000000000000000000000000000000000000000000000000016146121d557604051637bfa4b9f60e01b815260040160405180910390fd5b60005460ff166002146121fb5760405163751dd61360e11b815260040160405180910390fd5b60005b60015481101561226157600180828154811061221c5761221c612c96565b60009182526020808320600492909202909101600201805460ff191693151593909317909255828152600690915260408120558061225981612cc2565b9150506121fe565b5060005b6007548110156122dd5760006007828154811061228457612284612c96565b60009182526020808320909101546001600160a01b0316825260038152604080832083905560048252808320805460ff1990811690915560059092529091208054909116905550806122d581612cc2565b915050612265565b506122ea6007600061254d565b600860006122f8828261258f565b61230660018301600061258f565b61231460028301600061258f565b61232260038301600061258f565b506000600482018190556005909101805460ff1990811690915581541681556040517f8d1085cd9eceaab0b77fd20c66dea55df08e5ef2d52859c2cb4a1e16ba9476c09190a16000546040805160ff9092168252426020830152600080516020612f798339815191529101610d39565b600880548190611bf490612af6565b600154600090829081106123c85760405163347247e160e21b815260040160405180910390fd5b600181815481106123db576123db612c96565b600091825260209091206002600490920201015460ff1661240f576040516323581db160e11b815260040160405180910390fd5b60008381526006602052604090205491505b50919050565b6040516bffffffffffffffffffffffff19606083901b166020820152600090819060340160405160208183030381529060405280519060200120905060005b845181101561253f5784818151811061248157612481612c96565b602002602001015182106124df578481815181106124a1576124a1612c96565b6020026020010151826040516020016124c4929190918252602082015260400190565b6040516020818303038152906040528051906020012061252b565b818582815181106124f2576124f2612c96565b6020026020010151604051602001612514929190918252602082015260400190565b604051602081830303815290604052805190602001205b91508061253781612cc2565b915050612466565b506002541490505b92915050565b508054600082559060005260206000209081019061256b91906125c5565b50565b508054600082556004029060005260206000209081019061256b91906125de565b50805461259b90612af6565b6000825580601f106125ab575050565b601f01602090049060005260206000209081019061256b91905b5b808211156125da57600081556001016125c6565b5090565b808211156125da5760008082556125f8600183018261258f565b60028201805460ff1916905561261260038301600061258f565b506004016125de565b60008083601f84011261262d57600080fd5b50813567ffffffffffffffff81111561264557600080fd5b60208301915083602082850101111561265d57600080fd5b9250929050565b6000806020838503121561267757600080fd5b823567ffffffffffffffff81111561268e57600080fd5b61269a8582860161261b565b90969095509350505050565b6000815180845260005b818110156126cc576020818501810151868301820152016126b0565b506000602082860101526020601f19601f83011685010191505092915050565b60006020808301818452808551808352604092508286019150828160051b87010184880160005b8381101561277c57603f19898403018552815160808151855288820151818a870152612741828701826126a6565b915050878201511515888601526060808301519250858203818701525061276881836126a6565b968901969450505090860190600101612713565b509098975050505050505050565b60006020828403121561279c57600080fd5b5035919050565b602081526000825160c060208401526127bf60e08401826126a6565b90506020840151601f19808584030160408601526127dd83836126a6565b925060408601519150808584030160608601526127fa83836126a6565b925060608601519150808584030160808601525061281882826126a6565b915050608084015160a084015260a0840151151560c08401528091505092915050565b6000806000806040858703121561285157600080fd5b843567ffffffffffffffff8082111561286957600080fd5b6128758883890161261b565b9096509450602087013591508082111561288e57600080fd5b5061289b8782880161261b565b95989497509550505050565b8481526080602082015260006128c060808301866126a6565b841515604084015282810360608401526128da81856126a6565b979650505050505050565b6000806000604084860312156128fa57600080fd5b83359250602084013567ffffffffffffffff8082111561291957600080fd5b818601915086601f83011261292d57600080fd5b81358181111561293c57600080fd5b8760208260051b850101111561295157600080fd5b6020830194508093505050509250925092565b600081518084526020808501945080840160005b8381101561299457815187529582019590820190600101612978565b509495945050505050565b6020815260006129b26020830184612964565b9392505050565b600080604083850312156129cc57600080fd5b50508035926020909101359150565b80356001600160a01b03811681146129f257600080fd5b919050565b600060208284031215612a0957600080fd5b6129b2826129db565b6020815260006129b260208301846126a6565b60c081526000612a3860c08301896126a6565b8281036020840152612a4a81896126a6565b90508281036040840152612a5e81886126a6565b90508281036060840152612a7281876126a6565b6080840195909552505090151560a090910152949350505050565b600080600060408486031215612aa257600080fd5b612aab846129db565b9250602084013567ffffffffffffffff811115612ac757600080fd5b612ad38682870161261b565b9497909650939450505050565b634e487b7160e01b600052604160045260246000fd5b600181811c90821680612b0a57607f821691505b60208210810361242157634e487b7160e01b600052602260045260246000fd5b601f821115612b7457600081815260208120601f850160051c81016020861015612b515750805b601f850160051c820191505b81811015612b7057828155600101612b5d565b5050505b505050565b600019600383901b1c191660019190911b1790565b67ffffffffffffffff831115612ba657612ba6612ae0565b612bba83612bb48354612af6565b83612b2a565b6000601f841160018114612be85760008515612bd65750838201355b612be08682612b79565b845550612c42565b600083815260209020601f19861690835b82811015612c195786850135825560209485019460019092019101612bf9565b5086821015612c365760001960f88860031b161c19848701351681555b505060018560011b0183555b5050505050565b81835281816020850137506000828201602090810191909152601f909101601f19169091010190565b604081526000612c86604083018587612c49565b9050826020830152949350505050565b634e487b7160e01b600052603260045260246000fd5b634e487b7160e01b600052601160045260246000fd5b600060018201612cd457612cd4612cac565b5060010190565b815167ffffffffffffffff811115612cf557612cf5612ae0565b612d0981612d038454612af6565b84612b2a565b602080601f831160018114612d385760008415612d265750858301515b612d308582612b79565b865550612b70565b600085815260208120601f198616915b82811015612d6757888601518255948401946001909101908401612d48565b5085821015612d855787850151600019600388901b60f8161c191681555b5050505050600190811b01905550565b858152606060208201526000612daf606083018688612c49565b8281036040840152612dc2818587612c49565b98975050505050505050565b818103612dd9575050565b612de38254612af6565b67ffffffffffffffff811115612dfb57612dfb612ae0565b612e0981612d038454612af6565b6000601f821160018114612e375760008315612e255750848201545b612e2f8482612b79565b855550612c42565b600085815260209020601f19841690600086815260209020845b83811015612e715782860154825560019586019590910190602001612e51565b5085831015612d855793015460001960f8600387901b161c19169092555050600190811b01905550565b8181038181111561254757612547612cac565b602081526000612ec2602083018486612c49565b949350505050565b8082018082111561254757612547612cac565b604081526000612ef06040830185612964565b60208382038185015260008554612f0681612af6565b80855260018281168015612f215760018114612f3b57612f69565b60ff1984168787015282151560051b870186019450612f69565b896000528560002060005b84811015612f61578154898201890152908301908701612f46565b880187019550505b5092999850505050505050505056fee65264342b0c60a079c9c89c73855ac517088348498810186d8c8ae6c7848ba1a2646970667358221220c3743fde81db71ac10ca0a88d4509d46be1a4b02c70ffd3ac45d54fe2930eaf864736f6c63430008140033","opcodes":"PUSH1 0xA0 PUSH1 0x40 MSTORE PUSH1 0x0 DUP1 SLOAD PUSH1 0xFF NOT AND SWAP1 SSTORE CALLVALUE DUP1 ISZERO PUSH2 0x1A JUMPI PUSH1 0x0 DUP1 REVERT JUMPDEST POP CALLER PUSH1 0x80 MSTORE PUSH1 0x80 MLOAD PUSH2 0x2FCE PUSH2 0x95 PUSH1 0x0 CODECOPY PUSH1 0x0 DUP2 DUP2 PUSH2 0x500 ADD MSTORE DUP2 DUP2 PUSH2 0x560 ADD MSTORE DUP2 DUP2 PUSH2 0x7BD ADD MSTORE DUP2 DUP2 PUSH2 0xBB5 ADD MSTORE DUP2 DUP2 PUSH2 0xD4E ADD MSTORE DUP2 DUP2 PUSH2 0xE29 ADD MSTORE DUP2 DUP2 PUSH2 0x12D0 ADD MSTORE DUP2 DUP2 PUSH2 0x154B ADD MSTORE DUP2 DUP2 PUSH2 0x1B7E ADD MSTORE DUP2 DUP2 PUSH2 0x1E3C ADD MSTORE DUP2 DUP2 PUSH2 0x1EED ADD MSTORE DUP2 DUP2 PUSH2 0x1FD8 ADD MSTORE DUP2 DUP2 PUSH2 0x2079 ADD MSTORE PUSH2 0x2197 ADD MSTORE PUSH2 0x2FCE PUSH1 0x0 RETURN INVALID PUSH1 0x80 PUSH1 0x40 MSTORE CALLVALUE DUP1 ISZERO PUSH2 0x10 JUMPI PUSH1 0x0 DUP1 REVERT JUMPDEST POP PUSH1 0x4 CALLDATASIZE LT PUSH2 0x210 JUMPI PUSH1 0x0 CALLDATALOAD PUSH1 0xE0 SHR DUP1 PUSH4 0x78E3EF20 GT PUSH2 0x125 JUMPI DUP1 PUSH4 0xB8056D71 GT PUSH2 0xAD JUMPI DUP1 PUSH4 0xE8F30523 GT PUSH2 0x7C JUMPI DUP1 PUSH4 0xE8F30523 EQ PUSH2 0x4D3 JUMPI DUP1 PUSH4 0xED8B6B31 EQ PUSH2 0x4DB JUMPI DUP1 PUSH4 0xF851A440 EQ PUSH2 0x4FB JUMPI DUP1 PUSH4 0xFCAE83A7 EQ PUSH2 0x53A JUMPI DUP1 PUSH4 0xFF981099 EQ PUSH2 0x542 JUMPI PUSH1 0x0 DUP1 REVERT JUMPDEST DUP1 PUSH4 0xB8056D71 EQ PUSH2 0x457 JUMPI DUP1 PUSH4 0xB9A53013 EQ PUSH2 0x46A JUMPI DUP1 PUSH4 0xC6DBE15A EQ PUSH2 0x49D JUMPI DUP1 PUSH4 0xDF48B377 EQ PUSH2 0x4C0 JUMPI PUSH1 0x0 DUP1 REVERT JUMPDEST DUP1 PUSH4 0x8E112430 GT PUSH2 0xF4 JUMPI DUP1 PUSH4 0x8E112430 EQ PUSH2 0x40D JUMPI DUP1 PUSH4 0x90173864 EQ PUSH2 0x420 JUMPI DUP1 PUSH4 0xA9A981A3 EQ PUSH2 0x428 JUMPI DUP1 PUSH4 0xAD72202B EQ PUSH2 0x430 JUMPI DUP1 PUSH4 0xB1C9FE6E EQ PUSH2 0x438 JUMPI PUSH1 0x0 DUP1 REVERT JUMPDEST DUP1 PUSH4 0x78E3EF20 EQ PUSH2 0x361 JUMPI DUP1 PUSH4 0x7B43A8E6 EQ PUSH2 0x3B5 JUMPI DUP1 PUSH4 0x7CB64759 EQ PUSH2 0x3D5 JUMPI DUP1 PUSH4 0x84632DC0 EQ PUSH2 0x3E8 JUMPI PUSH1 0x0 DUP1 REVERT JUMPDEST DUP1 PUSH4 0x2EB4A7AB GT PUSH2 0x1A8 JUMPI DUP1 PUSH4 0x53B2B8D6 GT PUSH2 0x177 JUMPI DUP1 PUSH4 0x53B2B8D6 EQ PUSH2 0x2F3 JUMPI DUP1 PUSH4 0x55A6ECD6 EQ PUSH2 0x308 JUMPI DUP1 PUSH4 0x69EDBCDA EQ PUSH2 0x31B JUMPI DUP1 PUSH4 0x6D5304A2 EQ PUSH2 0x32E JUMPI DUP1 PUSH4 0x75885EDE EQ PUSH2 0x341 JUMPI PUSH1 0x0 DUP1 REVERT JUMPDEST DUP1 PUSH4 0x2EB4A7AB EQ PUSH2 0x2A1 JUMPI DUP1 PUSH4 0x3477EE2E EQ PUSH2 0x2AA JUMPI DUP1 PUSH4 0x489A1F4C EQ PUSH2 0x2CD JUMPI DUP1 PUSH4 0x4AC8BEA1 EQ PUSH2 0x2E0 JUMPI PUSH1 0x0 DUP1 REVERT JUMPDEST DUP1 PUSH4 0xBAA1304 GT PUSH2 0x1E4 JUMPI DUP1 PUSH4 0xBAA1304 EQ PUSH2 0x269 JUMPI DUP1 PUSH4 0x16388836 EQ PUSH2 0x27E JUMPI DUP1 PUSH4 0x1D29DE63 EQ PUSH2 0x286 JUMPI DUP1 PUSH4 0x26541B56 EQ PUSH2 0x28E JUMPI PUSH1 0x0 DUP1 REVERT JUMPDEST DUP1 PUSH3 0xF1A308 EQ PUSH2 0x215 JUMPI DUP1 PUSH4 0x20B9379 EQ PUSH2 0x22A JUMPI DUP1 PUSH4 0x6A49FCE EQ PUSH2 0x241 JUMPI DUP1 PUSH4 0x9E9D7E2 EQ PUSH2 0x256 JUMPI JUMPDEST PUSH1 0x0 DUP1 REVERT JUMPDEST PUSH2 0x228 PUSH2 0x223 CALLDATASIZE PUSH1 0x4 PUSH2 0x2664 JUMP JUMPDEST PUSH2 0x555 JUMP JUMPDEST STOP JUMPDEST PUSH1 0xE SLOAD JUMPDEST PUSH1 0x40 MLOAD SWAP1 DUP2 MSTORE PUSH1 0x20 ADD JUMPDEST PUSH1 0x40 MLOAD DUP1 SWAP2 SUB SWAP1 RETURN JUMPDEST PUSH2 0x249 PUSH2 0x612 JUMP JUMPDEST PUSH1 0x40 MLOAD PUSH2 0x238 SWAP2 SWAP1 PUSH2 0x26EC JUMP JUMPDEST PUSH2 0x228 PUSH2 0x264 CALLDATASIZE PUSH1 0x4 PUSH2 0x278A JUMP JUMPDEST PUSH2 0x7B2 JUMP JUMPDEST PUSH2 0x271 PUSH2 0x8FB JUMP JUMPDEST PUSH1 0x40 MLOAD PUSH2 0x238 SWAP2 SWAP1 PUSH2 0x27A3 JUMP JUMPDEST PUSH2 0x228 PUSH2 0xBAA JUMP JUMPDEST PUSH2 0x228 PUSH2 0xD43 JUMP JUMPDEST PUSH2 0x228 PUSH2 0x29C CALLDATASIZE PUSH1 0x4 PUSH2 0x283B JUMP JUMPDEST PUSH2 0xE1E JUMP JUMPDEST PUSH2 0x22E PUSH1 0x2 SLOAD DUP2 JUMP JUMPDEST PUSH2 0x2BD PUSH2 0x2B8 CALLDATASIZE PUSH1 0x4 PUSH2 0x278A JUMP JUMPDEST PUSH2 0xFF9 JUMP JUMPDEST PUSH1 0x40 MLOAD PUSH2 0x238 SWAP5 SWAP4 SWAP3 SWAP2 SWAP1 PUSH2 0x28A7 JUMP JUMPDEST PUSH2 0x228 PUSH2 0x2DB CALLDATASIZE PUSH1 0x4 PUSH2 0x28E5 JUMP JUMPDEST PUSH2 0x114E JUMP JUMPDEST PUSH2 0x228 PUSH2 0x2EE CALLDATASIZE PUSH1 0x4 PUSH2 0x2664 JUMP JUMPDEST PUSH2 0x12C5 JUMP JUMPDEST PUSH2 0x2FB PUSH2 0x14A1 JUMP JUMPDEST PUSH1 0x40 MLOAD PUSH2 0x238 SWAP2 SWAP1 PUSH2 0x299F JUMP JUMPDEST PUSH2 0x228 PUSH2 0x316 CALLDATASIZE PUSH1 0x4 PUSH2 0x2664 JUMP JUMPDEST PUSH2 0x1540 JUMP JUMPDEST PUSH2 0x228 PUSH2 0x329 CALLDATASIZE PUSH1 0x4 PUSH2 0x29B9 JUMP JUMPDEST PUSH2 0x15F1 JUMP JUMPDEST PUSH2 0x271 PUSH2 0x33C CALLDATASIZE PUSH1 0x4 PUSH2 0x278A JUMP JUMPDEST PUSH2 0x17BF JUMP JUMPDEST PUSH2 0x354 PUSH2 0x34F CALLDATASIZE PUSH1 0x4 PUSH2 0x29F7 JUMP JUMPDEST PUSH2 0x1AD9 JUMP JUMPDEST PUSH1 0x40 MLOAD PUSH2 0x238 SWAP2 SWAP1 PUSH2 0x2A12 JUMP JUMPDEST PUSH2 0x39E PUSH2 0x36F CALLDATASIZE PUSH1 0x4 PUSH2 0x29F7 JUMP JUMPDEST PUSH1 0x1 PUSH1 0x1 PUSH1 0xA0 SHL SUB AND PUSH1 0x0 SWAP1 DUP2 MSTORE PUSH1 0x4 PUSH1 0x20 SWAP1 DUP2 MSTORE PUSH1 0x40 DUP1 DUP4 KECCAK256 SLOAD PUSH1 0x5 SWAP1 SWAP3 MSTORE SWAP1 SWAP2 KECCAK256 SLOAD PUSH1 0xFF SWAP2 DUP3 AND SWAP3 SWAP2 AND SWAP1 JUMP JUMPDEST PUSH1 0x40 DUP1 MLOAD SWAP3 ISZERO ISZERO DUP4 MSTORE SWAP1 ISZERO ISZERO PUSH1 0x20 DUP4 ADD MSTORE ADD PUSH2 0x238 JUMP JUMPDEST PUSH2 0x22E PUSH2 0x3C3 CALLDATASIZE PUSH1 0x4 PUSH2 0x29F7 JUMP JUMPDEST PUSH1 0x3 PUSH1 0x20 MSTORE PUSH1 0x0 SWAP1 DUP2 MSTORE PUSH1 0x40 SWAP1 KECCAK256 SLOAD DUP2 JUMP JUMPDEST PUSH2 0x228 PUSH2 0x3E3 CALLDATASIZE PUSH1 0x4 PUSH2 0x278A JUMP JUMPDEST PUSH2 0x1B73 JUMP JUMPDEST PUSH2 0x3FB PUSH2 0x3F6 CALLDATASIZE PUSH1 0x4 PUSH2 0x278A JUMP JUMPDEST PUSH2 0x1BC1 JUMP JUMPDEST PUSH1 0x40 MLOAD PUSH2 0x238 SWAP7 SWAP6 SWAP5 SWAP4 SWAP3 SWAP2 SWAP1 PUSH2 0x2A25 JUMP JUMPDEST PUSH2 0x228 PUSH2 0x41B CALLDATASIZE PUSH1 0x4 PUSH2 0x2664 JUMP JUMPDEST PUSH2 0x1E31 JUMP JUMPDEST PUSH2 0x228 PUSH2 0x1EE2 JUMP JUMPDEST PUSH1 0x1 SLOAD PUSH2 0x22E JUMP JUMPDEST PUSH2 0x228 PUSH2 0x1FCD JUMP JUMPDEST PUSH1 0x0 SLOAD PUSH2 0x445 SWAP1 PUSH1 0xFF AND DUP2 JUMP JUMPDEST PUSH1 0x40 MLOAD PUSH1 0xFF SWAP1 SWAP2 AND DUP2 MSTORE PUSH1 0x20 ADD PUSH2 0x238 JUMP JUMPDEST PUSH2 0x228 PUSH2 0x465 CALLDATASIZE PUSH1 0x4 PUSH2 0x2A8D JUMP JUMPDEST PUSH2 0x206E JUMP JUMPDEST PUSH2 0x48D PUSH2 0x478 CALLDATASIZE PUSH1 0x4 PUSH2 0x29F7 JUMP JUMPDEST PUSH1 0x5 PUSH1 0x20 MSTORE PUSH1 0x0 SWAP1 DUP2 MSTORE PUSH1 0x40 SWAP1 KECCAK256 SLOAD PUSH1 0xFF AND DUP2 JUMP JUMPDEST PUSH1 0x40 MLOAD SWAP1 ISZERO ISZERO DUP2 MSTORE PUSH1 0x20 ADD PUSH2 0x238 JUMP JUMPDEST PUSH2 0x48D PUSH2 0x4AB CALLDATASIZE PUSH1 0x4 PUSH2 0x29F7 JUMP JUMPDEST PUSH1 0x4 PUSH1 0x20 MSTORE PUSH1 0x0 SWAP1 DUP2 MSTORE PUSH1 0x40 SWAP1 KECCAK256 SLOAD PUSH1 0xFF AND DUP2 JUMP JUMPDEST PUSH2 0x354 PUSH2 0x4CE CALLDATASIZE PUSH1 0x4 PUSH2 0x29F7 JUMP JUMPDEST PUSH2 0x20E0 JUMP JUMPDEST PUSH2 0x228 PUSH2 0x218C JUMP JUMPDEST PUSH2 0x22E PUSH2 0x4E9 CALLDATASIZE PUSH1 0x4 PUSH2 0x278A JUMP JUMPDEST PUSH1 0x6 PUSH1 0x20 MSTORE PUSH1 0x0 SWAP1 DUP2 MSTORE PUSH1 0x40 SWAP1 KECCAK256 SLOAD DUP2 JUMP JUMPDEST PUSH2 0x522 PUSH32 0x0 DUP2 JUMP JUMPDEST PUSH1 0x40 MLOAD PUSH1 0x1 PUSH1 0x1 PUSH1 0xA0 SHL SUB SWAP1 SWAP2 AND DUP2 MSTORE PUSH1 0x20 ADD PUSH2 0x238 JUMP JUMPDEST PUSH2 0x3FB PUSH2 0x2392 JUMP JUMPDEST PUSH2 0x22E PUSH2 0x550 CALLDATASIZE PUSH1 0x4 PUSH2 0x278A JUMP JUMPDEST PUSH2 0x23A1 JUMP JUMPDEST CALLER PUSH1 0x1 PUSH1 0x1 PUSH1 0xA0 SHL SUB PUSH32 0x0 AND EQ PUSH2 0x59E JUMPI PUSH1 0x40 MLOAD PUSH4 0x7BFA4B9F PUSH1 0xE0 SHL DUP2 MSTORE PUSH1 0x4 ADD PUSH1 0x40 MLOAD DUP1 SWAP2 SUB SWAP1 REVERT JUMPDEST PUSH1 0x0 DUP2 SWAP1 SUB PUSH2 0x5C0 JUMPI PUSH1 0x40 MLOAD PUSH4 0x36225E23 PUSH1 0xE0 SHL DUP2 MSTORE PUSH1 0x4 ADD PUSH1 0x40 MLOAD DUP1 SWAP2 SUB SWAP1 REVERT JUMPDEST PUSH1 0x8 PUSH2 0x5CD DUP3 DUP5 DUP4 PUSH2 0x2B8E JUMP JUMPDEST POP TIMESTAMP PUSH1 0xC DUP2 SWAP1 SSTORE PUSH1 0x40 MLOAD PUSH32 0x819BA0C517BDF310FCF778B22D46385F3289796DA041D2A54754DF0D8AE98F04 SWAP2 PUSH2 0x606 SWAP2 DUP6 SWAP2 DUP6 SWAP2 PUSH2 0x2C72 JUMP JUMPDEST PUSH1 0x40 MLOAD DUP1 SWAP2 SUB SWAP1 LOG1 POP POP JUMP JUMPDEST PUSH1 0x60 PUSH1 0x1 DUP1 SLOAD DUP1 PUSH1 0x20 MUL PUSH1 0x20 ADD PUSH1 0x40 MLOAD SWAP1 DUP2 ADD PUSH1 0x40 MSTORE DUP1 SWAP3 SWAP2 SWAP1 DUP2 DUP2 MSTORE PUSH1 0x20 ADD PUSH1 0x0 SWAP1 JUMPDEST DUP3 DUP3 LT ISZERO PUSH2 0x7A9 JUMPI DUP4 DUP3 SWAP1 PUSH1 0x0 MSTORE PUSH1 0x20 PUSH1 0x0 KECCAK256 SWAP1 PUSH1 0x4 MUL ADD PUSH1 0x40 MLOAD DUP1 PUSH1 0x80 ADD PUSH1 0x40 MSTORE SWAP1 DUP2 PUSH1 0x0 DUP3 ADD SLOAD DUP2 MSTORE PUSH1 0x20 ADD PUSH1 0x1 DUP3 ADD DUP1 SLOAD PUSH2 0x673 SWAP1 PUSH2 0x2AF6 JUMP JUMPDEST DUP1 PUSH1 0x1F ADD PUSH1 0x20 DUP1 SWAP2 DIV MUL PUSH1 0x20 ADD PUSH1 0x40 MLOAD SWAP1 DUP2 ADD PUSH1 0x40 MSTORE DUP1 SWAP3 SWAP2 SWAP1 DUP2 DUP2 MSTORE PUSH1 0x20 ADD DUP3 DUP1 SLOAD PUSH2 0x69F SWAP1 PUSH2 0x2AF6 JUMP JUMPDEST DUP1 ISZERO PUSH2 0x6EC JUMPI DUP1 PUSH1 0x1F LT PUSH2 0x6C1 JUMPI PUSH2 0x100 DUP1 DUP4 SLOAD DIV MUL DUP4 MSTORE SWAP2 PUSH1 0x20 ADD SWAP2 PUSH2 0x6EC JUMP JUMPDEST DUP3 ADD SWAP2 SWAP1 PUSH1 0x0 MSTORE PUSH1 0x20 PUSH1 0x0 KECCAK256 SWAP1 JUMPDEST DUP2 SLOAD DUP2 MSTORE SWAP1 PUSH1 0x1 ADD SWAP1 PUSH1 0x20 ADD DUP1 DUP4 GT PUSH2 0x6CF JUMPI DUP3 SWAP1 SUB PUSH1 0x1F AND DUP3 ADD SWAP2 JUMPDEST POP POP POP SWAP2 DUP4 MSTORE POP POP PUSH1 0x2 DUP3 ADD SLOAD PUSH1 0xFF AND ISZERO ISZERO PUSH1 0x20 DUP3 ADD MSTORE PUSH1 0x3 DUP3 ADD DUP1 SLOAD PUSH1 0x40 SWAP1 SWAP3 ADD SWAP2 PUSH2 0x718 SWAP1 PUSH2 0x2AF6 JUMP JUMPDEST DUP1 PUSH1 0x1F ADD PUSH1 0x20 DUP1 SWAP2 DIV MUL PUSH1 0x20 ADD PUSH1 0x40 MLOAD SWAP1 DUP2 ADD PUSH1 0x40 MSTORE DUP1 SWAP3 SWAP2 SWAP1 DUP2 DUP2 MSTORE PUSH1 0x20 ADD DUP3 DUP1 SLOAD PUSH2 0x744 SWAP1 PUSH2 0x2AF6 JUMP JUMPDEST DUP1 ISZERO PUSH2 0x791 JUMPI DUP1 PUSH1 0x1F LT PUSH2 0x766 JUMPI PUSH2 0x100 DUP1 DUP4 SLOAD DIV MUL DUP4 MSTORE SWAP2 PUSH1 0x20 ADD SWAP2 PUSH2 0x791 JUMP JUMPDEST DUP3 ADD SWAP2 SWAP1 PUSH1 0x0 MSTORE PUSH1 0x20 PUSH1 0x0 KECCAK256 SWAP1 JUMPDEST DUP2 SLOAD DUP2 MSTORE SWAP1 PUSH1 0x1 ADD SWAP1 PUSH1 0x20 ADD DUP1 DUP4 GT PUSH2 0x774 JUMPI DUP3 SWAP1 SUB PUSH1 0x1F AND DUP3 ADD SWAP2 JUMPDEST POP POP POP POP POP DUP2 MSTORE POP POP DUP2 MSTORE PUSH1 0x20 ADD SWAP1 PUSH1 0x1 ADD SWAP1 PUSH2 0x636 JUMP JUMPDEST POP POP POP POP SWAP1 POP SWAP1 JUMP JUMPDEST CALLER PUSH1 0x1 PUSH1 0x1 PUSH1 0xA0 SHL SUB PUSH32 0x0 AND EQ PUSH2 0x7FB JUMPI PUSH1 0x40 MLOAD PUSH4 0x7BFA4B9F PUSH1 0xE0 SHL DUP2 MSTORE PUSH1 0x4 ADD PUSH1 0x40 MLOAD DUP1 SWAP2 SUB SWAP1 REVERT JUMPDEST PUSH1 0x0 DUP1 SLOAD PUSH1 0xFF AND ISZERO PUSH2 0x820 JUMPI PUSH1 0x40 MLOAD PUSH4 0x38961AF3 PUSH1 0xE2 SHL DUP2 MSTORE PUSH1 0x4 ADD PUSH1 0x40 MLOAD DUP1 SWAP2 SUB SWAP1 REVERT JUMPDEST PUSH1 0x1 SLOAD DUP3 SWAP1 DUP2 LT PUSH2 0x844 JUMPI PUSH1 0x40 MLOAD PUSH4 0x347247E1 PUSH1 0xE2 SHL DUP2 MSTORE PUSH1 0x4 ADD PUSH1 0x40 MLOAD DUP1 SWAP2 SUB SWAP1 REVERT JUMPDEST PUSH1 0x1 DUP2 DUP2 SLOAD DUP2 LT PUSH2 0x857 JUMPI PUSH2 0x857 PUSH2 0x2C96 JUMP JUMPDEST PUSH1 0x0 SWAP2 DUP3 MSTORE PUSH1 0x20 SWAP1 SWAP2 KECCAK256 PUSH1 0x2 PUSH1 0x4 SWAP1 SWAP3 MUL ADD ADD SLOAD PUSH1 0xFF AND PUSH2 0x88B JUMPI PUSH1 0x40 MLOAD PUSH4 0x23581DB1 PUSH1 0xE1 SHL DUP2 MSTORE PUSH1 0x4 ADD PUSH1 0x40 MLOAD DUP1 SWAP2 SUB SWAP1 REVERT JUMPDEST PUSH1 0x0 PUSH1 0x1 DUP5 DUP2 SLOAD DUP2 LT PUSH2 0x8A0 JUMPI PUSH2 0x8A0 PUSH2 0x2C96 JUMP JUMPDEST PUSH1 0x0 SWAP2 DUP3 MSTORE PUSH1 0x20 SWAP2 DUP3 SWAP1 KECCAK256 PUSH1 0x4 SWAP2 SWAP1 SWAP2 MUL ADD PUSH1 0x2 ADD DUP1 SLOAD PUSH1 0xFF NOT AND SWAP3 ISZERO ISZERO SWAP3 SWAP1 SWAP3 OR SWAP1 SWAP2 SSTORE PUSH1 0x40 MLOAD DUP5 DUP2 MSTORE PUSH32 0x294C5A9BC8A39E6E06502BC8DA429980F6C7B0990D75B682C12CB8705E3ACE85 SWAP2 ADD PUSH1 0x40 MLOAD DUP1 SWAP2 SUB SWAP1 LOG1 POP POP POP JUMP JUMPDEST PUSH2 0x936 PUSH1 0x40 MLOAD DUP1 PUSH1 0xC0 ADD PUSH1 0x40 MSTORE DUP1 PUSH1 0x60 DUP2 MSTORE PUSH1 0x20 ADD PUSH1 0x60 DUP2 MSTORE PUSH1 0x20 ADD PUSH1 0x60 DUP2 MSTORE PUSH1 0x20 ADD PUSH1 0x60 DUP2 MSTORE PUSH1 0x20 ADD PUSH1 0x0 DUP2 MSTORE PUSH1 0x20 ADD PUSH1 0x0 ISZERO ISZERO DUP2 MSTORE POP SWAP1 JUMP JUMPDEST PUSH1 0x8 PUSH1 0x40 MLOAD DUP1 PUSH1 0xC0 ADD PUSH1 0x40 MSTORE SWAP1 DUP2 PUSH1 0x0 DUP3 ADD DUP1 SLOAD PUSH2 0x953 SWAP1 PUSH2 0x2AF6 JUMP JUMPDEST DUP1 PUSH1 0x1F ADD PUSH1 0x20 DUP1 SWAP2 DIV MUL PUSH1 0x20 ADD PUSH1 0x40 MLOAD SWAP1 DUP2 ADD PUSH1 0x40 MSTORE DUP1 SWAP3 SWAP2 SWAP1 DUP2 DUP2 MSTORE PUSH1 0x20 ADD DUP3 DUP1 SLOAD PUSH2 0x97F SWAP1 PUSH2 0x2AF6 JUMP JUMPDEST DUP1 ISZERO PUSH2 0x9CC JUMPI DUP1 PUSH1 0x1F LT PUSH2 0x9A1 JUMPI PUSH2 0x100 DUP1 DUP4 SLOAD DIV MUL DUP4 MSTORE SWAP2 PUSH1 0x20 ADD SWAP2 PUSH2 0x9CC JUMP JUMPDEST DUP3 ADD SWAP2 SWAP1 PUSH1 0x0 MSTORE PUSH1 0x20 PUSH1 0x0 KECCAK256 SWAP1 JUMPDEST DUP2 SLOAD DUP2 MSTORE SWAP1 PUSH1 0x1 ADD SWAP1 PUSH1 0x20 ADD DUP1 DUP4 GT PUSH2 0x9AF JUMPI DUP3 SWAP1 SUB PUSH1 0x1F AND DUP3 ADD SWAP2 JUMPDEST POP POP POP POP POP DUP2 MSTORE PUSH1 0x20 ADD PUSH1 0x1 DUP3 ADD DUP1 SLOAD PUSH2 0x9E5 SWAP1 PUSH2 0x2AF6 JUMP JUMPDEST DUP1 PUSH1 0x1F ADD PUSH1 0x20 DUP1 SWAP2 DIV MUL PUSH1 0x20 ADD PUSH1 0x40 MLOAD SWAP1 DUP2 ADD PUSH1 0x40 MSTORE DUP1 SWAP3 SWAP2 SWAP1 DUP2 DUP2 MSTORE PUSH1 0x20 ADD DUP3 DUP1 SLOAD PUSH2 0xA11 SWAP1 PUSH2 0x2AF6 JUMP JUMPDEST DUP1 ISZERO PUSH2 0xA5E JUMPI DUP1 PUSH1 0x1F LT PUSH2 0xA33 JUMPI PUSH2 0x100 DUP1 DUP4 SLOAD DIV MUL DUP4 MSTORE SWAP2 PUSH1 0x20 ADD SWAP2 PUSH2 0xA5E JUMP JUMPDEST DUP3 ADD SWAP2 SWAP1 PUSH1 0x0 MSTORE PUSH1 0x20 PUSH1 0x0 KECCAK256 SWAP1 JUMPDEST DUP2 SLOAD DUP2 MSTORE SWAP1 PUSH1 0x1 ADD SWAP1 PUSH1 0x20 ADD DUP1 DUP4 GT PUSH2 0xA41 JUMPI DUP3 SWAP1 SUB PUSH1 0x1F AND DUP3 ADD SWAP2 JUMPDEST POP POP POP POP POP DUP2 MSTORE PUSH1 0x20 ADD PUSH1 0x2 DUP3 ADD DUP1 SLOAD PUSH2 0xA77 SWAP1 PUSH2 0x2AF6 JUMP JUMPDEST DUP1 PUSH1 0x1F ADD PUSH1 0x20 DUP1 SWAP2 DIV MUL PUSH1 0x20 ADD PUSH1 0x40 MLOAD SWAP1 DUP2 ADD PUSH1 0x40 MSTORE DUP1 SWAP3 SWAP2 SWAP1 DUP2 DUP2 MSTORE PUSH1 0x20 ADD DUP3 DUP1 SLOAD PUSH2 0xAA3 SWAP1 PUSH2 0x2AF6 JUMP JUMPDEST DUP1 ISZERO PUSH2 0xAF0 JUMPI DUP1 PUSH1 0x1F LT PUSH2 0xAC5 JUMPI PUSH2 0x100 DUP1 DUP4 SLOAD DIV MUL DUP4 MSTORE SWAP2 PUSH1 0x20 ADD SWAP2 PUSH2 0xAF0 JUMP JUMPDEST DUP3 ADD SWAP2 SWAP1 PUSH1 0x0 MSTORE PUSH1 0x20 PUSH1 0x0 KECCAK256 SWAP1 JUMPDEST DUP2 SLOAD DUP2 MSTORE SWAP1 PUSH1 0x1 ADD SWAP1 PUSH1 0x20 ADD DUP1 DUP4 GT PUSH2 0xAD3 JUMPI DUP3 SWAP1 SUB PUSH1 0x1F AND DUP3 ADD SWAP2 JUMPDEST POP POP POP POP POP DUP2 MSTORE PUSH1 0x20 ADD PUSH1 0x3 DUP3 ADD DUP1 SLOAD PUSH2 0xB09 SWAP1 PUSH2 0x2AF6 JUMP JUMPDEST DUP1 PUSH1 0x1F ADD PUSH1 0x20 DUP1 SWAP2 DIV MUL PUSH1 0x20 ADD PUSH1 0x40 MLOAD SWAP1 DUP2 ADD PUSH1 0x40 MSTORE DUP1 SWAP3 SWAP2 SWAP1 DUP2 DUP2 MSTORE PUSH1 0x20 ADD DUP3 DUP1 SLOAD PUSH2 0xB35 SWAP1 PUSH2 0x2AF6 JUMP JUMPDEST DUP1 ISZERO PUSH2 0xB82 JUMPI DUP1 PUSH1 0x1F LT PUSH2 0xB57 JUMPI PUSH2 0x100 DUP1 DUP4 SLOAD DIV MUL DUP4 MSTORE SWAP2 PUSH1 0x20 ADD SWAP2 PUSH2 0xB82 JUMP JUMPDEST DUP3 ADD SWAP2 SWAP1 PUSH1 0x0 MSTORE PUSH1 0x20 PUSH1 0x0 KECCAK256 SWAP1 JUMPDEST DUP2 SLOAD DUP2 MSTORE SWAP1 PUSH1 0x1 ADD SWAP1 PUSH1 0x20 ADD DUP1 DUP4 GT PUSH2 0xB65 JUMPI DUP3 SWAP1 SUB PUSH1 0x1F AND DUP3 ADD SWAP2 JUMPDEST POP POP POP SWAP2 DUP4 MSTORE POP POP PUSH1 0x4 DUP3 ADD SLOAD PUSH1 0x20 DUP3 ADD MSTORE PUSH1 0x5 SWAP1 SWAP2 ADD SLOAD PUSH1 0xFF AND ISZERO ISZERO PUSH1 0x40 SWAP1 SWAP2 ADD MSTORE SWAP2 SWAP1 POP JUMP JUMPDEST CALLER PUSH1 0x1 PUSH1 0x1 PUSH1 0xA0 SHL SUB PUSH32 0x0 AND EQ PUSH2 0xBF3 JUMPI PUSH1 0x40 MLOAD PUSH4 0x7BFA4B9F PUSH1 0xE0 SHL DUP2 MSTORE PUSH1 0x4 ADD PUSH1 0x40 MLOAD DUP1 SWAP2 SUB SWAP1 REVERT JUMPDEST PUSH1 0x0 JUMPDEST PUSH1 0x1 SLOAD DUP2 LT ISZERO PUSH2 0xC59 JUMPI PUSH1 0x1 DUP1 DUP3 DUP2 SLOAD DUP2 LT PUSH2 0xC14 JUMPI PUSH2 0xC14 PUSH2 0x2C96 JUMP JUMPDEST PUSH1 0x0 SWAP2 DUP3 MSTORE PUSH1 0x20 DUP1 DUP4 KECCAK256 PUSH1 0x4 SWAP3 SWAP1 SWAP3 MUL SWAP1 SWAP2 ADD PUSH1 0x2 ADD DUP1 SLOAD PUSH1 0xFF NOT AND SWAP4 ISZERO ISZERO SWAP4 SWAP1 SWAP4 OR SWAP1 SWAP3 SSTORE DUP3 DUP2 MSTORE PUSH1 0x6 SWAP1 SWAP2 MSTORE PUSH1 0x40 DUP2 KECCAK256 SSTORE DUP1 PUSH2 0xC51 DUP2 PUSH2 0x2CC2 JUMP JUMPDEST SWAP2 POP POP PUSH2 0xBF6 JUMP JUMPDEST POP PUSH1 0x0 JUMPDEST PUSH1 0x7 SLOAD DUP2 LT ISZERO PUSH2 0xCD5 JUMPI PUSH1 0x0 PUSH1 0x7 DUP3 DUP2 SLOAD DUP2 LT PUSH2 0xC7C JUMPI PUSH2 0xC7C PUSH2 0x2C96 JUMP JUMPDEST PUSH1 0x0 SWAP2 DUP3 MSTORE PUSH1 0x20 DUP1 DUP4 KECCAK256 SWAP1 SWAP2 ADD SLOAD PUSH1 0x1 PUSH1 0x1 PUSH1 0xA0 SHL SUB AND DUP3 MSTORE PUSH1 0x3 DUP2 MSTORE PUSH1 0x40 DUP1 DUP4 KECCAK256 DUP4 SWAP1 SSTORE PUSH1 0x4 DUP3 MSTORE DUP1 DUP4 KECCAK256 DUP1 SLOAD PUSH1 0xFF NOT SWAP1 DUP2 AND SWAP1 SWAP2 SSTORE PUSH1 0x5 SWAP1 SWAP3 MSTORE SWAP1 SWAP2 KECCAK256 DUP1 SLOAD SWAP1 SWAP2 AND SWAP1 SSTORE POP DUP1 PUSH2 0xCCD DUP2 PUSH2 0x2CC2 JUMP JUMPDEST SWAP2 POP POP PUSH2 0xC5D JUMP JUMPDEST POP PUSH2 0xCE2 PUSH1 0x7 PUSH1 0x0 PUSH2 0x254D JUMP JUMPDEST PUSH1 0x0 DUP1 SLOAD PUSH1 0xFF NOT AND DUP2 SSTORE PUSH1 0x40 MLOAD PUSH32 0x8D1085CD9ECEAAB0B77FD20C66DEA55DF08E5EF2D52859C2CB4A1E16BA9476C0 SWAP2 SWAP1 LOG1 PUSH1 0x0 SLOAD PUSH1 0x40 DUP1 MLOAD PUSH1 0xFF SWAP1 SWAP3 AND DUP3 MSTORE TIMESTAMP PUSH1 0x20 DUP4 ADD MSTORE PUSH1 0x0 DUP1 MLOAD PUSH1 0x20 PUSH2 0x2F79 DUP4 CODECOPY DUP2 MLOAD SWAP2 MSTORE SWAP2 ADD JUMPDEST PUSH1 0x40 MLOAD DUP1 SWAP2 SUB SWAP1 LOG1 JUMP JUMPDEST CALLER PUSH1 0x1 PUSH1 0x1 PUSH1 0xA0 SHL SUB PUSH32 0x0 AND EQ PUSH2 0xD8C JUMPI PUSH1 0x40 MLOAD PUSH4 0x7BFA4B9F PUSH1 0xE0 SHL DUP2 MSTORE PUSH1 0x4 ADD PUSH1 0x40 MLOAD DUP1 SWAP2 SUB SWAP1 REVERT JUMPDEST PUSH1 0x0 SLOAD PUSH1 0x2 SWAP1 PUSH1 0xFF AND DUP2 EQ PUSH2 0xDB4 JUMPI PUSH1 0x40 MLOAD PUSH4 0x38961AF3 PUSH1 0xE2 SHL DUP2 MSTORE PUSH1 0x4 ADD PUSH1 0x40 MLOAD DUP1 SWAP2 SUB SWAP1 REVERT JUMPDEST PUSH1 0x1 DUP1 SLOAD SWAP1 PUSH2 0xDC4 SWAP1 PUSH1 0x0 PUSH2 0x256E JUMP JUMPDEST PUSH1 0x0 JUMPDEST DUP2 DUP2 LT ISZERO PUSH2 0xDF0 JUMPI PUSH1 0x0 DUP2 DUP2 MSTORE PUSH1 0x6 PUSH1 0x20 MSTORE PUSH1 0x40 DUP2 KECCAK256 SSTORE DUP1 PUSH2 0xDE8 DUP2 PUSH2 0x2CC2 JUMP JUMPDEST SWAP2 POP POP PUSH2 0xDC7 JUMP JUMPDEST POP PUSH1 0x40 MLOAD PUSH32 0xF4B0AEC151F41A0AF93AF55CE56E8AC81B97AEB8198F047C43B8A379CE303B75 SWAP1 PUSH1 0x0 SWAP1 LOG1 POP POP JUMP JUMPDEST CALLER PUSH1 0x1 PUSH1 0x1 PUSH1 0xA0 SHL SUB PUSH32 0x0 AND EQ PUSH2 0xE67 JUMPI PUSH1 0x40 MLOAD PUSH4 0x7BFA4B9F PUSH1 0xE0 SHL DUP2 MSTORE PUSH1 0x4 ADD PUSH1 0x40 MLOAD DUP1 SWAP2 SUB SWAP1 REVERT JUMPDEST PUSH1 0x0 DUP1 SLOAD PUSH1 0xFF AND ISZERO PUSH2 0xE8C JUMPI PUSH1 0x40 MLOAD PUSH4 0x38961AF3 PUSH1 0xE2 SHL DUP2 MSTORE PUSH1 0x4 ADD PUSH1 0x40 MLOAD DUP1 SWAP2 SUB SWAP1 REVERT JUMPDEST DUP4 ISZERO DUP1 PUSH2 0xE99 JUMPI POP PUSH1 0x64 DUP5 GT JUMPDEST ISZERO PUSH2 0xEB7 JUMPI PUSH1 0x40 MLOAD PUSH4 0x1AE3550B PUSH1 0xE0 SHL DUP2 MSTORE PUSH1 0x4 ADD PUSH1 0x40 MLOAD DUP1 SWAP2 SUB SWAP1 REVERT JUMPDEST PUSH1 0x0 PUSH1 0x1 DUP1 SLOAD SWAP1 POP SWAP1 POP PUSH1 0x1 PUSH1 0x40 MLOAD DUP1 PUSH1 0x80 ADD PUSH1 0x40 MSTORE DUP1 DUP4 DUP2 MSTORE PUSH1 0x20 ADD DUP9 DUP9 DUP1 DUP1 PUSH1 0x1F ADD PUSH1 0x20 DUP1 SWAP2 DIV MUL PUSH1 0x20 ADD PUSH1 0x40 MLOAD SWAP1 DUP2 ADD PUSH1 0x40 MSTORE DUP1 SWAP4 SWAP3 SWAP2 SWAP1 DUP2 DUP2 MSTORE PUSH1 0x20 ADD DUP4 DUP4 DUP1 DUP3 DUP5 CALLDATACOPY PUSH1 0x0 SWAP3 ADD SWAP2 SWAP1 SWAP2 MSTORE POP POP POP SWAP1 DUP3 MSTORE POP PUSH1 0x1 PUSH1 0x20 DUP1 DUP4 ADD SWAP2 SWAP1 SWAP2 MSTORE PUSH1 0x40 DUP1 MLOAD PUSH1 0x1F DUP10 ADD DUP4 SWAP1 DIV DUP4 MUL DUP2 ADD DUP4 ADD DUP3 MSTORE DUP9 DUP2 MSTORE SWAP3 ADD SWAP2 SWAP1 DUP9 SWAP1 DUP9 SWAP1 DUP2 SWAP1 DUP5 ADD DUP4 DUP3 DUP1 DUP3 DUP5 CALLDATACOPY PUSH1 0x0 SWAP3 ADD DUP3 SWAP1 MSTORE POP SWAP4 SWAP1 SWAP5 MSTORE POP POP DUP4 SLOAD PUSH1 0x1 DUP2 DUP2 ADD DUP7 SSTORE SWAP5 DUP3 MSTORE PUSH1 0x20 SWAP2 DUP3 SWAP1 KECCAK256 DUP5 MLOAD PUSH1 0x4 SWAP1 SWAP3 MUL ADD SWAP1 DUP2 SSTORE SWAP1 DUP4 ADD MLOAD SWAP3 SWAP4 SWAP1 SWAP3 SWAP1 DUP4 ADD SWAP2 POP PUSH2 0xF82 SWAP1 DUP3 PUSH2 0x2CDB JUMP JUMPDEST POP PUSH1 0x40 DUP3 ADD MLOAD PUSH1 0x2 DUP3 ADD DUP1 SLOAD PUSH1 0xFF NOT AND SWAP2 ISZERO ISZERO SWAP2 SWAP1 SWAP2 OR SWAP1 SSTORE PUSH1 0x60 DUP3 ADD MLOAD PUSH1 0x3 DUP3 ADD SWAP1 PUSH2 0xFAF SWAP1 DUP3 PUSH2 0x2CDB JUMP JUMPDEST POP POP POP PUSH32 0xE64F834082661DD9ED89427B87EDB6270FD6DAD17198B0938F0EDD058914C87F DUP2 DUP8 DUP8 DUP8 DUP8 PUSH1 0x40 MLOAD PUSH2 0xFE9 SWAP6 SWAP5 SWAP4 SWAP3 SWAP2 SWAP1 PUSH2 0x2D95 JUMP JUMPDEST PUSH1 0x40 MLOAD DUP1 SWAP2 SUB SWAP1 LOG1 POP POP POP POP POP POP JUMP JUMPDEST PUSH1 0x1 DUP2 DUP2 SLOAD DUP2 LT PUSH2 0x1009 JUMPI PUSH1 0x0 DUP1 REVERT JUMPDEST PUSH1 0x0 SWAP2 DUP3 MSTORE PUSH1 0x20 SWAP1 SWAP2 KECCAK256 PUSH1 0x4 SWAP1 SWAP2 MUL ADD DUP1 SLOAD PUSH1 0x1 DUP3 ADD DUP1 SLOAD SWAP2 SWAP4 POP SWAP1 PUSH2 0x102E SWAP1 PUSH2 0x2AF6 JUMP JUMPDEST DUP1 PUSH1 0x1F ADD PUSH1 0x20 DUP1 SWAP2 DIV MUL PUSH1 0x20 ADD PUSH1 0x40 MLOAD SWAP1 DUP2 ADD PUSH1 0x40 MSTORE DUP1 SWAP3 SWAP2 SWAP1 DUP2 DUP2 MSTORE PUSH1 0x20 ADD DUP3 DUP1 SLOAD PUSH2 0x105A SWAP1 PUSH2 0x2AF6 JUMP JUMPDEST DUP1 ISZERO PUSH2 0x10A7 JUMPI DUP1 PUSH1 0x1F LT PUSH2 0x107C JUMPI PUSH2 0x100 DUP1 DUP4 SLOAD DIV MUL DUP4 MSTORE SWAP2 PUSH1 0x20 ADD SWAP2 PUSH2 0x10A7 JUMP JUMPDEST DUP3 ADD SWAP2 SWAP1 PUSH1 0x0 MSTORE PUSH1 0x20 PUSH1 0x0 KECCAK256 SWAP1 JUMPDEST DUP2 SLOAD DUP2 MSTORE SWAP1 PUSH1 0x1 ADD SWAP1 PUSH1 0x20 ADD DUP1 DUP4 GT PUSH2 0x108A JUMPI DUP3 SWAP1 SUB PUSH1 0x1F AND DUP3 ADD SWAP2 JUMPDEST POP POP POP PUSH1 0x2 DUP5 ADD SLOAD PUSH1 0x3 DUP6 ADD DUP1 SLOAD SWAP5 SWAP6 PUSH1 0xFF SWAP1 SWAP3 AND SWAP5 SWAP2 SWAP4 POP SWAP2 POP PUSH2 0x10CB SWAP1 PUSH2 0x2AF6 JUMP JUMPDEST DUP1 PUSH1 0x1F ADD PUSH1 0x20 DUP1 SWAP2 DIV MUL PUSH1 0x20 ADD PUSH1 0x40 MLOAD SWAP1 DUP2 ADD PUSH1 0x40 MSTORE DUP1 SWAP3 SWAP2 SWAP1 DUP2 DUP2 MSTORE PUSH1 0x20 ADD DUP3 DUP1 SLOAD PUSH2 0x10F7 SWAP1 PUSH2 0x2AF6 JUMP JUMPDEST DUP1 ISZERO PUSH2 0x1144 JUMPI DUP1 PUSH1 0x1F LT PUSH2 0x1119 JUMPI PUSH2 0x100 DUP1 DUP4 SLOAD DIV MUL DUP4 MSTORE SWAP2 PUSH1 0x20 ADD SWAP2 PUSH2 0x1144 JUMP JUMPDEST DUP3 ADD SWAP2 SWAP1 PUSH1 0x0 MSTORE PUSH1 0x20 PUSH1 0x0 KECCAK256 SWAP1 JUMPDEST DUP2 SLOAD DUP2 MSTORE SWAP1 PUSH1 0x1 ADD SWAP1 PUSH1 0x20 ADD DUP1 DUP4 GT PUSH2 0x1127 JUMPI DUP3 SWAP1 SUB PUSH1 0x1F AND DUP3 ADD SWAP2 JUMPDEST POP POP POP POP POP SWAP1 POP DUP5 JUMP JUMPDEST PUSH1 0x0 DUP1 SLOAD PUSH1 0xFF AND ISZERO PUSH2 0x1173 JUMPI PUSH1 0x40 MLOAD PUSH4 0x38961AF3 PUSH1 0xE2 SHL DUP2 MSTORE PUSH1 0x4 ADD PUSH1 0x40 MLOAD DUP1 SWAP2 SUB SWAP1 REVERT JUMPDEST CALLER PUSH1 0x0 SWAP1 DUP2 MSTORE PUSH1 0x4 PUSH1 0x20 MSTORE PUSH1 0x40 SWAP1 KECCAK256 SLOAD PUSH1 0xFF AND ISZERO PUSH2 0x11A4 JUMPI PUSH1 0x40 MLOAD PUSH4 0x17FD8AAB PUSH1 0xE3 SHL DUP2 MSTORE PUSH1 0x4 ADD PUSH1 0x40 MLOAD DUP1 SWAP2 SUB SWAP1 REVERT JUMPDEST DUP4 PUSH2 0x11C2 JUMPI PUSH1 0x40 MLOAD PUSH4 0x1C37CDDF PUSH1 0xE2 SHL DUP2 MSTORE PUSH1 0x4 ADD PUSH1 0x40 MLOAD DUP1 SWAP2 SUB SWAP1 REVERT JUMPDEST PUSH2 0x1200 DUP4 DUP4 DUP1 DUP1 PUSH1 0x20 MUL PUSH1 0x20 ADD PUSH1 0x40 MLOAD SWAP1 DUP2 ADD PUSH1 0x40 MSTORE DUP1 SWAP4 SWAP3 SWAP2 SWAP1 DUP2 DUP2 MSTORE PUSH1 0x20 ADD DUP4 DUP4 PUSH1 0x20 MUL DUP1 DUP3 DUP5 CALLDATACOPY PUSH1 0x0 SWAP3 ADD SWAP2 SWAP1 SWAP2 MSTORE POP CALLER SWAP3 POP PUSH2 0x2427 SWAP2 POP POP JUMP JUMPDEST PUSH2 0x121D JUMPI PUSH1 0x40 MLOAD PUSH4 0x7C75AA6F PUSH1 0xE1 SHL DUP2 MSTORE PUSH1 0x4 ADD PUSH1 0x40 MLOAD DUP1 SWAP2 SUB SWAP1 REVERT JUMPDEST CALLER PUSH1 0x0 DUP2 DUP2 MSTORE PUSH1 0x3 PUSH1 0x20 SWAP1 DUP2 MSTORE PUSH1 0x40 DUP1 DUP4 KECCAK256 DUP9 SWAP1 SSTORE PUSH1 0x4 DUP3 MSTORE DUP1 DUP4 KECCAK256 DUP1 SLOAD PUSH1 0xFF NOT AND PUSH1 0x1 SWAP1 DUP2 OR SWAP1 SWAP2 SSTORE PUSH1 0x7 DUP1 SLOAD SWAP2 DUP3 ADD DUP2 SSTORE SWAP1 SWAP4 MSTORE PUSH32 0xA66CC928B5EDB82AF9BD49922954155AB7B0942694BEA4CE44661D9A8736C688 SWAP1 SWAP3 ADD DUP1 SLOAD PUSH1 0x1 PUSH1 0x1 PUSH1 0xA0 SHL SUB NOT AND DUP5 OR SWAP1 SSTORE DUP2 MLOAD DUP8 DUP2 MSTORE TIMESTAMP SWAP2 DUP2 ADD SWAP2 SWAP1 SWAP2 MSTORE PUSH32 0x6FDCF30F0BB2C4CEAB314DB052AD51B198E3FF93CE4121183516FA1AE84FBC8 SWAP2 ADD PUSH1 0x40 MLOAD DUP1 SWAP2 SUB SWAP1 LOG2 POP POP POP POP JUMP JUMPDEST CALLER PUSH1 0x1 PUSH1 0x1 PUSH1 0xA0 SHL SUB PUSH32 0x0 AND EQ PUSH2 0x130E JUMPI PUSH1 0x40 MLOAD PUSH4 0x7BFA4B9F PUSH1 0xE0 SHL DUP2 MSTORE PUSH1 0x4 ADD PUSH1 0x40 MLOAD DUP1 SWAP2 SUB SWAP1 REVERT JUMPDEST PUSH1 0x0 SLOAD PUSH1 0x2 SWAP1 PUSH1 0xFF AND DUP2 EQ PUSH2 0x1336 JUMPI PUSH1 0x40 MLOAD PUSH4 0x38961AF3 PUSH1 0xE2 SHL DUP2 MSTORE PUSH1 0x4 ADD PUSH1 0x40 MLOAD DUP1 SWAP2 SUB SWAP1 REVERT JUMPDEST PUSH1 0x0 DUP3 SWAP1 SUB PUSH2 0x1358 JUMPI PUSH1 0x40 MLOAD PUSH4 0x36225E23 PUSH1 0xE0 SHL DUP2 MSTORE PUSH1 0x4 ADD PUSH1 0x40 MLOAD DUP1 SWAP2 SUB SWAP1 REVERT JUMPDEST PUSH1 0xA PUSH2 0x1365 DUP4 DUP6 DUP4 PUSH2 0x2B8E JUMP JUMPDEST POP PUSH1 0xD DUP1 SLOAD PUSH1 0xFF NOT AND PUSH1 0x1 SWAP1 DUP2 OR SWAP1 SWAP2 SSTORE TIMESTAMP PUSH1 0xC SSTORE PUSH1 0xE DUP1 SLOAD SWAP2 DUP3 ADD DUP2 SSTORE PUSH1 0x0 MSTORE PUSH1 0x8 SWAP1 PUSH1 0x6 MUL PUSH32 0xBB7B4A454DC3493923482F07822329ED19E8244EFF582CC204F8554C3620C3FD ADD DUP1 PUSH2 0x13B9 DUP4 DUP3 PUSH2 0x2DCE JUMP JUMPDEST POP PUSH1 0x1 DUP2 DUP2 ADD SWAP1 PUSH2 0x13CC SWAP1 DUP5 ADD DUP3 PUSH2 0x2DCE JUMP JUMPDEST POP PUSH1 0x2 DUP2 DUP2 ADD SWAP1 PUSH2 0x13DF SWAP1 DUP5 ADD DUP3 PUSH2 0x2DCE JUMP JUMPDEST POP PUSH1 0x3 DUP2 DUP2 ADD SWAP1 PUSH2 0x13F2 SWAP1 DUP5 ADD DUP3 PUSH2 0x2DCE JUMP JUMPDEST POP PUSH1 0x4 DUP3 DUP2 ADD SLOAD SWAP1 DUP3 ADD SSTORE PUSH1 0x5 SWAP2 DUP3 ADD SLOAD SWAP2 ADD DUP1 SLOAD PUSH1 0xFF NOT AND PUSH1 0xFF SWAP1 SWAP3 AND ISZERO ISZERO SWAP2 SWAP1 SWAP2 OR SWAP1 SSTORE PUSH1 0x40 MLOAD PUSH32 0xDCA7F2930A1EB17324299567C2BD10F43412E226A24676846211C9426EE3AF97 SWAP1 PUSH2 0x144C SWAP1 DUP6 SWAP1 DUP6 SWAP1 TIMESTAMP SWAP1 PUSH2 0x2C72 JUMP JUMPDEST PUSH1 0x40 MLOAD DUP1 SWAP2 SUB SWAP1 LOG1 PUSH1 0xE SLOAD PUSH2 0x1463 SWAP1 PUSH1 0x1 SWAP1 PUSH2 0x2E9B JUMP JUMPDEST PUSH32 0x6CDBE1D240C24194EC144CF90E10F06030875EEB06AE2770DA3542B8C3166377 DUP5 DUP5 PUSH1 0x40 MLOAD PUSH2 0x1494 SWAP3 SWAP2 SWAP1 PUSH2 0x2EAE JUMP JUMPDEST PUSH1 0x40 MLOAD DUP1 SWAP2 SUB SWAP1 LOG2 POP POP POP JUMP JUMPDEST PUSH1 0x1 SLOAD PUSH1 0x60 SWAP1 PUSH1 0x0 DUP2 PUSH8 0xFFFFFFFFFFFFFFFF DUP2 GT ISZERO PUSH2 0x14C2 JUMPI PUSH2 0x14C2 PUSH2 0x2AE0 JUMP JUMPDEST PUSH1 0x40 MLOAD SWAP1 DUP1 DUP3 MSTORE DUP1 PUSH1 0x20 MUL PUSH1 0x20 ADD DUP3 ADD PUSH1 0x40 MSTORE DUP1 ISZERO PUSH2 0x14EB JUMPI DUP2 PUSH1 0x20 ADD PUSH1 0x20 DUP3 MUL DUP1 CALLDATASIZE DUP4 CALLDATACOPY ADD SWAP1 POP JUMPDEST POP SWAP1 POP PUSH1 0x0 JUMPDEST DUP3 DUP2 LT ISZERO PUSH2 0x1539 JUMPI PUSH1 0x0 DUP2 DUP2 MSTORE PUSH1 0x6 PUSH1 0x20 MSTORE PUSH1 0x40 SWAP1 KECCAK256 SLOAD DUP3 MLOAD DUP4 SWAP1 DUP4 SWAP1 DUP2 LT PUSH2 0x151C JUMPI PUSH2 0x151C PUSH2 0x2C96 JUMP JUMPDEST PUSH1 0x20 SWAP1 DUP2 MUL SWAP2 SWAP1 SWAP2 ADD ADD MSTORE DUP1 PUSH2 0x1531 DUP2 PUSH2 0x2CC2 JUMP JUMPDEST SWAP2 POP POP PUSH2 0x14F1 JUMP JUMPDEST POP SWAP3 SWAP2 POP POP JUMP JUMPDEST CALLER PUSH1 0x1 PUSH1 0x1 PUSH1 0xA0 SHL SUB PUSH32 0x0 AND EQ PUSH2 0x1589 JUMPI PUSH1 0x40 MLOAD PUSH4 0x7BFA4B9F PUSH1 0xE0 SHL DUP2 MSTORE PUSH1 0x4 ADD PUSH1 0x40 MLOAD DUP1 SWAP2 SUB SWAP1 REVERT JUMPDEST PUSH1 0x0 DUP2 SWAP1 SUB PUSH2 0x15AB JUMPI PUSH1 0x40 MLOAD PUSH4 0x36225E23 PUSH1 0xE0 SHL DUP2 MSTORE PUSH1 0x4 ADD PUSH1 0x40 MLOAD DUP1 SWAP2 SUB SWAP1 REVERT JUMPDEST PUSH1 0x9 PUSH2 0x15B8 DUP3 DUP5 DUP4 PUSH2 0x2B8E JUMP JUMPDEST POP TIMESTAMP PUSH1 0xC DUP2 SWAP1 SSTORE PUSH1 0x40 MLOAD PUSH32 0xD62C32AA8E5604B1948789C282D44DF5262C01643F24B2DBF3B979192C4E6942 SWAP2 PUSH2 0x606 SWAP2 DUP6 SWAP2 DUP6 SWAP2 PUSH2 0x2C72 JUMP JUMPDEST PUSH1 0x0 SLOAD PUSH1 0x1 SWAP1 PUSH1 0xFF AND DUP2 EQ PUSH2 0x1619 JUMPI PUSH1 0x40 MLOAD PUSH4 0x38961AF3 PUSH1 0xE2 SHL DUP2 MSTORE PUSH1 0x4 ADD PUSH1 0x40 MLOAD DUP1 SWAP2 SUB SWAP1 REVERT JUMPDEST PUSH1 0x1 SLOAD DUP4 SWAP1 DUP2 LT PUSH2 0x163D JUMPI PUSH1 0x40 MLOAD PUSH4 0x347247E1 PUSH1 0xE2 SHL DUP2 MSTORE PUSH1 0x4 ADD PUSH1 0x40 MLOAD DUP1 SWAP2 SUB SWAP1 REVERT JUMPDEST PUSH1 0x1 DUP2 DUP2 SLOAD DUP2 LT PUSH2 0x1650 JUMPI PUSH2 0x1650 PUSH2 0x2C96 JUMP JUMPDEST PUSH1 0x0 SWAP2 DUP3 MSTORE PUSH1 0x20 SWAP1 SWAP2 KECCAK256 PUSH1 0x2 PUSH1 0x4 SWAP1 SWAP3 MUL ADD ADD SLOAD PUSH1 0xFF AND PUSH2 0x1684 JUMPI PUSH1 0x40 MLOAD PUSH4 0x23581DB1 PUSH1 0xE1 SHL DUP2 MSTORE PUSH1 0x4 ADD PUSH1 0x40 MLOAD DUP1 SWAP2 SUB SWAP1 REVERT JUMPDEST CALLER PUSH1 0x0 SWAP1 DUP2 MSTORE PUSH1 0x4 PUSH1 0x20 MSTORE PUSH1 0x40 SWAP1 KECCAK256 SLOAD PUSH1 0xFF AND PUSH2 0x16B4 JUMPI PUSH1 0x40 MLOAD PUSH4 0x7DE832B5 PUSH1 0xE1 SHL DUP2 MSTORE PUSH1 0x4 ADD PUSH1 0x40 MLOAD DUP1 SWAP2 SUB SWAP1 REVERT JUMPDEST CALLER PUSH1 0x0 SWAP1 DUP2 MSTORE PUSH1 0x5 PUSH1 0x20 MSTORE PUSH1 0x40 SWAP1 KECCAK256 SLOAD PUSH1 0xFF AND ISZERO PUSH2 0x16E5 JUMPI PUSH1 0x40 MLOAD PUSH4 0xA89AC151 PUSH1 0xE0 SHL DUP2 MSTORE PUSH1 0x4 ADD PUSH1 0x40 MLOAD DUP1 SWAP2 SUB SWAP1 REVERT JUMPDEST PUSH1 0x40 DUP1 MLOAD PUSH1 0x20 DUP1 DUP3 ADD DUP8 SWAP1 MSTORE DUP2 DUP4 ADD DUP7 SWAP1 MSTORE DUP3 MLOAD DUP1 DUP4 SUB DUP5 ADD DUP2 MSTORE PUSH1 0x60 SWAP1 SWAP3 ADD DUP4 MSTORE DUP2 MLOAD SWAP2 DUP2 ADD SWAP2 SWAP1 SWAP2 KECCAK256 CALLER PUSH1 0x0 SWAP1 DUP2 MSTORE PUSH1 0x3 SWAP1 SWAP3 MSTORE SWAP2 SWAP1 KECCAK256 SLOAD DUP2 EQ PUSH2 0x173E JUMPI PUSH1 0x40 MLOAD PUSH4 0x3F4D6053 PUSH1 0xE0 SHL DUP2 MSTORE PUSH1 0x4 ADD PUSH1 0x40 MLOAD DUP1 SWAP2 SUB SWAP1 REVERT JUMPDEST CALLER PUSH1 0x0 SWAP1 DUP2 MSTORE PUSH1 0x5 PUSH1 0x20 SWAP1 DUP2 MSTORE PUSH1 0x40 DUP1 DUP4 KECCAK256 DUP1 SLOAD PUSH1 0xFF NOT AND PUSH1 0x1 SWAP1 DUP2 OR SWAP1 SWAP2 SSTORE DUP9 DUP5 MSTORE PUSH1 0x6 SWAP1 SWAP3 MSTORE DUP3 KECCAK256 DUP1 SLOAD SWAP2 SWAP3 SWAP1 SWAP2 PUSH2 0x1779 SWAP1 DUP5 SWAP1 PUSH2 0x2ECA JUMP JUMPDEST SWAP1 SWAP2 SSTORE POP POP PUSH1 0x40 DUP1 MLOAD DUP7 DUP2 MSTORE TIMESTAMP PUSH1 0x20 DUP3 ADD MSTORE CALLER SWAP2 PUSH32 0xF65A04BE847D83385F9A7ABCF32CFB35055023A4AFFCC7EAA319160746F44528 SWAP2 ADD PUSH1 0x40 MLOAD DUP1 SWAP2 SUB SWAP1 LOG2 POP POP POP POP POP JUMP JUMPDEST PUSH2 0x17FA PUSH1 0x40 MLOAD DUP1 PUSH1 0xC0 ADD PUSH1 0x40 MSTORE DUP1 PUSH1 0x60 DUP2 MSTORE PUSH1 0x20 ADD PUSH1 0x60 DUP2 MSTORE PUSH1 0x20 ADD PUSH1 0x60 DUP2 MSTORE PUSH1 0x20 ADD PUSH1 0x60 DUP2 MSTORE PUSH1 0x20 ADD PUSH1 0x0 DUP2 MSTORE PUSH1 0x20 ADD PUSH1 0x0 ISZERO ISZERO DUP2 MSTORE POP SWAP1 JUMP JUMPDEST PUSH1 0xE SLOAD DUP3 LT PUSH2 0x1845 JUMPI PUSH1 0x40 MLOAD PUSH3 0x461BCD PUSH1 0xE5 SHL DUP2 MSTORE PUSH1 0x20 PUSH1 0x4 DUP3 ADD MSTORE PUSH1 0x13 PUSH1 0x24 DUP3 ADD MSTORE PUSH19 0x125B9D985B1A5908195B1958DD1A5BDB881251 PUSH1 0x6A SHL PUSH1 0x44 DUP3 ADD MSTORE PUSH1 0x64 ADD PUSH1 0x40 MLOAD DUP1 SWAP2 SUB SWAP1 REVERT JUMPDEST PUSH1 0xE DUP3 DUP2 SLOAD DUP2 LT PUSH2 0x1858 JUMPI PUSH2 0x1858 PUSH2 0x2C96 JUMP JUMPDEST SWAP1 PUSH1 0x0 MSTORE PUSH1 0x20 PUSH1 0x0 KECCAK256 SWAP1 PUSH1 0x6 MUL ADD PUSH1 0x40 MLOAD DUP1 PUSH1 0xC0 ADD PUSH1 0x40 MSTORE SWAP1 DUP2 PUSH1 0x0 DUP3 ADD DUP1 SLOAD PUSH2 0x1881 SWAP1 PUSH2 0x2AF6 JUMP JUMPDEST DUP1 PUSH1 0x1F ADD PUSH1 0x20 DUP1 SWAP2 DIV MUL PUSH1 0x20 ADD PUSH1 0x40 MLOAD SWAP1 DUP2 ADD PUSH1 0x40 MSTORE DUP1 SWAP3 SWAP2 SWAP1 DUP2 DUP2 MSTORE PUSH1 0x20 ADD DUP3 DUP1 SLOAD PUSH2 0x18AD SWAP1 PUSH2 0x2AF6 JUMP JUMPDEST DUP1 ISZERO PUSH2 0x18FA JUMPI DUP1 PUSH1 0x1F LT PUSH2 0x18CF JUMPI PUSH2 0x100 DUP1 DUP4 SLOAD DIV MUL DUP4 MSTORE SWAP2 PUSH1 0x20 ADD SWAP2 PUSH2 0x18FA JUMP JUMPDEST DUP3 ADD SWAP2 SWAP1 PUSH1 0x0 MSTORE PUSH1 0x20 PUSH1 0x0 KECCAK256 SWAP1 JUMPDEST DUP2 SLOAD DUP2 MSTORE SWAP1 PUSH1 0x1 ADD SWAP1 PUSH1 0x20 ADD DUP1 DUP4 GT PUSH2 0x18DD JUMPI DUP3 SWAP1 SUB PUSH1 0x1F AND DUP3 ADD SWAP2 JUMPDEST POP POP POP POP POP DUP2 MSTORE PUSH1 0x20 ADD PUSH1 0x1 DUP3 ADD DUP1 SLOAD PUSH2 0x1913 SWAP1 PUSH2 0x2AF6 JUMP JUMPDEST DUP1 PUSH1 0x1F ADD PUSH1 0x20 DUP1 SWAP2 DIV MUL PUSH1 0x20 ADD PUSH1 0x40 MLOAD SWAP1 DUP2 ADD PUSH1 0x40 MSTORE DUP1 SWAP3 SWAP2 SWAP1 DUP2 DUP2 MSTORE PUSH1 0x20 ADD DUP3 DUP1 SLOAD PUSH2 0x193F SWAP1 PUSH2 0x2AF6 JUMP JUMPDEST DUP1 ISZERO PUSH2 0x198C JUMPI DUP1 PUSH1 0x1F LT PUSH2 0x1961 JUMPI PUSH2 0x100 DUP1 DUP4 SLOAD DIV MUL DUP4 MSTORE SWAP2 PUSH1 0x20 ADD SWAP2 PUSH2 0x198C JUMP JUMPDEST DUP3 ADD SWAP2 SWAP1 PUSH1 0x0 MSTORE PUSH1 0x20 PUSH1 0x0 KECCAK256 SWAP1 JUMPDEST DUP2 SLOAD DUP2 MSTORE SWAP1 PUSH1 0x1 ADD SWAP1 PUSH1 0x20 ADD DUP1 DUP4 GT PUSH2 0x196F JUMPI DUP3 SWAP1 SUB PUSH1 0x1F AND DUP3 ADD SWAP2 JUMPDEST POP POP POP POP POP DUP2 MSTORE PUSH1 0x20 ADD PUSH1 0x2 DUP3 ADD DUP1 SLOAD PUSH2 0x19A5 SWAP1 PUSH2 0x2AF6 JUMP JUMPDEST DUP1 PUSH1 0x1F ADD PUSH1 0x20 DUP1 SWAP2 DIV MUL PUSH1 0x20 ADD PUSH1 0x40 MLOAD SWAP1 DUP2 ADD PUSH1 0x40 MSTORE DUP1 SWAP3 SWAP2 SWAP1 DUP2 DUP2 MSTORE PUSH1 0x20 ADD DUP3 DUP1 SLOAD PUSH2 0x19D1 SWAP1 PUSH2 0x2AF6 JUMP JUMPDEST DUP1 ISZERO PUSH2 0x1A1E JUMPI DUP1 PUSH1 0x1F LT PUSH2 0x19F3 JUMPI PUSH2 0x100 DUP1 DUP4 SLOAD DIV MUL DUP4 MSTORE SWAP2 PUSH1 0x20 ADD SWAP2 PUSH2 0x1A1E JUMP JUMPDEST DUP3 ADD SWAP2 SWAP1 PUSH1 0x0 MSTORE PUSH1 0x20 PUSH1 0x0 KECCAK256 SWAP1 JUMPDEST DUP2 SLOAD DUP2 MSTORE SWAP1 PUSH1 0x1 ADD SWAP1 PUSH1 0x20 ADD DUP1 DUP4 GT PUSH2 0x1A01 JUMPI DUP3 SWAP1 SUB PUSH1 0x1F AND DUP3 ADD SWAP2 JUMPDEST POP POP POP POP POP DUP2 MSTORE PUSH1 0x20 ADD PUSH1 0x3 DUP3 ADD DUP1 SLOAD PUSH2 0x1A37 SWAP1 PUSH2 0x2AF6 JUMP JUMPDEST DUP1 PUSH1 0x1F ADD PUSH1 0x20 DUP1 SWAP2 DIV MUL PUSH1 0x20 ADD PUSH1 0x40 MLOAD SWAP1 DUP2 ADD PUSH1 0x40 MSTORE DUP1 SWAP3 SWAP2 SWAP1 DUP2 DUP2 MSTORE PUSH1 0x20 ADD DUP3 DUP1 SLOAD PUSH2 0x1A63 SWAP1 PUSH2 0x2AF6 JUMP JUMPDEST DUP1 ISZERO PUSH2 0x1AB0 JUMPI DUP1 PUSH1 0x1F LT PUSH2 0x1A85 JUMPI PUSH2 0x100 DUP1 DUP4 SLOAD DIV MUL DUP4 MSTORE SWAP2 PUSH1 0x20 ADD SWAP2 PUSH2 0x1AB0 JUMP JUMPDEST DUP3 ADD SWAP2 SWAP1 PUSH1 0x0 MSTORE PUSH1 0x20 PUSH1 0x0 KECCAK256 SWAP1 JUMPDEST DUP2 SLOAD DUP2 MSTORE SWAP1 PUSH1 0x1 ADD SWAP1 PUSH1 0x20 ADD DUP1 DUP4 GT PUSH2 0x1A93 JUMPI DUP3 SWAP1 SUB PUSH1 0x1F AND DUP3 ADD SWAP2 JUMPDEST POP POP POP SWAP2 DUP4 MSTORE POP POP PUSH1 0x4 DUP3 ADD SLOAD PUSH1 0x20 DUP3 ADD MSTORE PUSH1 0x5 SWAP1 SWAP2 ADD SLOAD PUSH1 0xFF AND ISZERO ISZERO PUSH1 0x40 SWAP1 SWAP2 ADD MSTORE SWAP3 SWAP2 POP POP JUMP JUMPDEST PUSH1 0xF PUSH1 0x20 MSTORE PUSH1 0x0 SWAP1 DUP2 MSTORE PUSH1 0x40 SWAP1 KECCAK256 DUP1 SLOAD PUSH2 0x1AF2 SWAP1 PUSH2 0x2AF6 JUMP JUMPDEST DUP1 PUSH1 0x1F ADD PUSH1 0x20 DUP1 SWAP2 DIV MUL PUSH1 0x20 ADD PUSH1 0x40 MLOAD SWAP1 DUP2 ADD PUSH1 0x40 MSTORE DUP1 SWAP3 SWAP2 SWAP1 DUP2 DUP2 MSTORE PUSH1 0x20 ADD DUP3 DUP1 SLOAD PUSH2 0x1B1E SWAP1 PUSH2 0x2AF6 JUMP JUMPDEST DUP1 ISZERO PUSH2 0x1B6B JUMPI DUP1 PUSH1 0x1F LT PUSH2 0x1B40 JUMPI PUSH2 0x100 DUP1 DUP4 SLOAD DIV MUL DUP4 MSTORE SWAP2 PUSH1 0x20 ADD SWAP2 PUSH2 0x1B6B JUMP JUMPDEST DUP3 ADD SWAP2 SWAP1 PUSH1 0x0 MSTORE PUSH1 0x20 PUSH1 0x0 KECCAK256 SWAP1 JUMPDEST DUP2 SLOAD DUP2 MSTORE SWAP1 PUSH1 0x1 ADD SWAP1 PUSH1 0x20 ADD DUP1 DUP4 GT PUSH2 0x1B4E JUMPI DUP3 SWAP1 SUB PUSH1 0x1F AND DUP3 ADD SWAP2 JUMPDEST POP POP POP POP POP DUP2 JUMP JUMPDEST CALLER PUSH1 0x1 PUSH1 0x1 PUSH1 0xA0 SHL SUB PUSH32 0x0 AND EQ PUSH2 0x1BBC JUMPI PUSH1 0x40 MLOAD PUSH4 0x7BFA4B9F PUSH1 0xE0 SHL DUP2 MSTORE PUSH1 0x4 ADD PUSH1 0x40 MLOAD DUP1 SWAP2 SUB SWAP1 REVERT JUMPDEST PUSH1 0x2 SSTORE JUMP JUMPDEST PUSH1 0xE DUP2 DUP2 SLOAD DUP2 LT PUSH2 0x1BD1 JUMPI PUSH1 0x0 DUP1 REVERT JUMPDEST SWAP1 PUSH1 0x0 MSTORE PUSH1 0x20 PUSH1 0x0 KECCAK256 SWAP1 PUSH1 0x6 MUL ADD PUSH1 0x0 SWAP2 POP SWAP1 POP DUP1 PUSH1 0x0 ADD DUP1 SLOAD PUSH2 0x1BF4 SWAP1 PUSH2 0x2AF6 JUMP JUMPDEST DUP1 PUSH1 0x1F ADD PUSH1 0x20 DUP1 SWAP2 DIV MUL PUSH1 0x20 ADD PUSH1 0x40 MLOAD SWAP1 DUP2 ADD PUSH1 0x40 MSTORE DUP1 SWAP3 SWAP2 SWAP1 DUP2 DUP2 MSTORE PUSH1 0x20 ADD DUP3 DUP1 SLOAD PUSH2 0x1C20 SWAP1 PUSH2 0x2AF6 JUMP JUMPDEST DUP1 ISZERO PUSH2 0x1C6D JUMPI DUP1 PUSH1 0x1F LT PUSH2 0x1C42 JUMPI PUSH2 0x100 DUP1 DUP4 SLOAD DIV MUL DUP4 MSTORE SWAP2 PUSH1 0x20 ADD SWAP2 PUSH2 0x1C6D JUMP JUMPDEST DUP3 ADD SWAP2 SWAP1 PUSH1 0x0 MSTORE PUSH1 0x20 PUSH1 0x0 KECCAK256 SWAP1 JUMPDEST DUP2 SLOAD DUP2 MSTORE SWAP1 PUSH1 0x1 ADD SWAP1 PUSH1 0x20 ADD DUP1 DUP4 GT PUSH2 0x1C50 JUMPI DUP3 SWAP1 SUB PUSH1 0x1F AND DUP3 ADD SWAP2 JUMPDEST POP POP POP POP POP SWAP1 DUP1 PUSH1 0x1 ADD DUP1 SLOAD PUSH2 0x1C82 SWAP1 PUSH2 0x2AF6 JUMP JUMPDEST DUP1 PUSH1 0x1F ADD PUSH1 0x20 DUP1 SWAP2 DIV MUL PUSH1 0x20 ADD PUSH1 0x40 MLOAD SWAP1 DUP2 ADD PUSH1 0x40 MSTORE DUP1 SWAP3 SWAP2 SWAP1 DUP2 DUP2 MSTORE PUSH1 0x20 ADD DUP3 DUP1 SLOAD PUSH2 0x1CAE SWAP1 PUSH2 0x2AF6 JUMP JUMPDEST DUP1 ISZERO PUSH2 0x1CFB JUMPI DUP1 PUSH1 0x1F LT PUSH2 0x1CD0 JUMPI PUSH2 0x100 DUP1 DUP4 SLOAD DIV MUL DUP4 MSTORE SWAP2 PUSH1 0x20 ADD SWAP2 PUSH2 0x1CFB JUMP JUMPDEST DUP3 ADD SWAP2 SWAP1 PUSH1 0x0 MSTORE PUSH1 0x20 PUSH1 0x0 KECCAK256 SWAP1 JUMPDEST DUP2 SLOAD DUP2 MSTORE SWAP1 PUSH1 0x1 ADD SWAP1 PUSH1 0x20 ADD DUP1 DUP4 GT PUSH2 0x1CDE JUMPI DUP3 SWAP1 SUB PUSH1 0x1F AND DUP3 ADD SWAP2 JUMPDEST POP POP POP POP POP SWAP1 DUP1 PUSH1 0x2 ADD DUP1 SLOAD PUSH2 0x1D10 SWAP1 PUSH2 0x2AF6 JUMP JUMPDEST DUP1 PUSH1 0x1F ADD PUSH1 0x20 DUP1 SWAP2 DIV MUL PUSH1 0x20 ADD PUSH1 0x40 MLOAD SWAP1 DUP2 ADD PUSH1 0x40 MSTORE DUP1 SWAP3 SWAP2 SWAP1 DUP2 DUP2 MSTORE PUSH1 0x20 ADD DUP3 DUP1 SLOAD PUSH2 0x1D3C SWAP1 PUSH2 0x2AF6 JUMP JUMPDEST DUP1 ISZERO PUSH2 0x1D89 JUMPI DUP1 PUSH1 0x1F LT PUSH2 0x1D5E JUMPI PUSH2 0x100 DUP1 DUP4 SLOAD DIV MUL DUP4 MSTORE SWAP2 PUSH1 0x20 ADD SWAP2 PUSH2 0x1D89 JUMP JUMPDEST DUP3 ADD SWAP2 SWAP1 PUSH1 0x0 MSTORE PUSH1 0x20 PUSH1 0x0 KECCAK256 SWAP1 JUMPDEST DUP2 SLOAD DUP2 MSTORE SWAP1 PUSH1 0x1 ADD SWAP1 PUSH1 0x20 ADD DUP1 DUP4 GT PUSH2 0x1D6C JUMPI DUP3 SWAP1 SUB PUSH1 0x1F AND DUP3 ADD SWAP2 JUMPDEST POP POP POP POP POP SWAP1 DUP1 PUSH1 0x3 ADD DUP1 SLOAD PUSH2 0x1D9E SWAP1 PUSH2 0x2AF6 JUMP JUMPDEST DUP1 PUSH1 0x1F ADD PUSH1 0x20 DUP1 SWAP2 DIV MUL PUSH1 0x20 ADD PUSH1 0x40 MLOAD SWAP1 DUP2 ADD PUSH1 0x40 MSTORE DUP1 SWAP3 SWAP2 SWAP1 DUP2 DUP2 MSTORE PUSH1 0x20 ADD DUP3 DUP1 SLOAD PUSH2 0x1DCA SWAP1 PUSH2 0x2AF6 JUMP JUMPDEST DUP1 ISZERO PUSH2 0x1E17 JUMPI DUP1 PUSH1 0x1F LT PUSH2 0x1DEC JUMPI PUSH2 0x100 DUP1 DUP4 SLOAD DIV MUL DUP4 MSTORE SWAP2 PUSH1 0x20 ADD SWAP2 PUSH2 0x1E17 JUMP JUMPDEST DUP3 ADD SWAP2 SWAP1 PUSH1 0x0 MSTORE PUSH1 0x20 PUSH1 0x0 KECCAK256 SWAP1 JUMPDEST DUP2 SLOAD DUP2 MSTORE SWAP1 PUSH1 0x1 ADD SWAP1 PUSH1 0x20 ADD DUP1 DUP4 GT PUSH2 0x1DFA JUMPI DUP3 SWAP1 SUB PUSH1 0x1F AND DUP3 ADD SWAP2 JUMPDEST POP POP POP POP PUSH1 0x4 DUP4 ADD SLOAD PUSH1 0x5 SWAP1 SWAP4 ADD SLOAD SWAP2 SWAP3 SWAP2 PUSH1 0xFF AND SWAP1 POP DUP7 JUMP JUMPDEST CALLER PUSH1 0x1 PUSH1 0x1 PUSH1 0xA0 SHL SUB PUSH32 0x0 AND EQ PUSH2 0x1E7A JUMPI PUSH1 0x40 MLOAD PUSH4 0x7BFA4B9F PUSH1 0xE0 SHL DUP2 MSTORE PUSH1 0x4 ADD PUSH1 0x40 MLOAD DUP1 SWAP2 SUB SWAP1 REVERT JUMPDEST PUSH1 0x0 DUP2 SWAP1 SUB PUSH2 0x1E9C JUMPI PUSH1 0x40 MLOAD PUSH4 0x36225E23 PUSH1 0xE0 SHL DUP2 MSTORE PUSH1 0x4 ADD PUSH1 0x40 MLOAD DUP1 SWAP2 SUB SWAP1 REVERT JUMPDEST PUSH1 0xB PUSH2 0x1EA9 DUP3 DUP5 DUP4 PUSH2 0x2B8E JUMP JUMPDEST POP TIMESTAMP PUSH1 0xC DUP2 SWAP1 SSTORE PUSH1 0x40 MLOAD PUSH32 0x679B49A7B2C30D21D5124F19F536635815A7838E16584B7A4E4E3181CC3EC01E SWAP2 PUSH2 0x606 SWAP2 DUP6 SWAP2 DUP6 SWAP2 PUSH2 0x2C72 JUMP JUMPDEST CALLER PUSH1 0x1 PUSH1 0x1 PUSH1 0xA0 SHL SUB PUSH32 0x0 AND EQ PUSH2 0x1F2B JUMPI PUSH1 0x40 MLOAD PUSH4 0x7BFA4B9F PUSH1 0xE0 SHL DUP2 MSTORE PUSH1 0x4 ADD PUSH1 0x40 MLOAD DUP1 SWAP2 SUB SWAP1 REVERT JUMPDEST PUSH1 0x0 SLOAD PUSH1 0x1 SWAP1 PUSH1 0xFF AND DUP2 EQ PUSH2 0x1F53 JUMPI PUSH1 0x40 MLOAD PUSH4 0x38961AF3 PUSH1 0xE2 SHL DUP2 MSTORE PUSH1 0x4 ADD PUSH1 0x40 MLOAD DUP1 SWAP2 SUB SWAP1 REVERT JUMPDEST PUSH1 0x0 DUP1 SLOAD PUSH1 0xFF NOT AND PUSH1 0x2 SWAP1 DUP2 OR SWAP1 SWAP2 SSTORE PUSH1 0x40 DUP1 MLOAD SWAP2 DUP3 MSTORE TIMESTAMP PUSH1 0x20 DUP4 ADD MSTORE PUSH1 0x0 DUP1 MLOAD PUSH1 0x20 PUSH2 0x2F79 DUP4 CODECOPY DUP2 MLOAD SWAP2 MSTORE SWAP2 ADD PUSH1 0x40 MLOAD DUP1 SWAP2 SUB SWAP1 LOG1 PUSH32 0x9198C79550E07ED98FF2AD73443E892829C97A0F728984D052F739478C43E4BA PUSH2 0x1FB2 PUSH2 0x14A1 JUMP JUMPDEST PUSH1 0x40 MLOAD PUSH2 0x1FC2 SWAP2 SWAP1 PUSH1 0xA SWAP1 PUSH2 0x2EDD JUMP JUMPDEST PUSH1 0x40 MLOAD DUP1 SWAP2 SUB SWAP1 LOG1 POP JUMP JUMPDEST CALLER PUSH1 0x1 PUSH1 0x1 PUSH1 0xA0 SHL SUB PUSH32 0x0 AND EQ PUSH2 0x2016 JUMPI PUSH1 0x40 MLOAD PUSH4 0x7BFA4B9F PUSH1 0xE0 SHL DUP2 MSTORE PUSH1 0x4 ADD PUSH1 0x40 MLOAD DUP1 SWAP2 SUB SWAP1 REVERT JUMPDEST PUSH1 0x0 DUP1 SLOAD PUSH1 0xFF AND ISZERO PUSH2 0x203B JUMPI PUSH1 0x40 MLOAD PUSH4 0x38961AF3 PUSH1 0xE2 SHL DUP2 MSTORE PUSH1 0x4 ADD PUSH1 0x40 MLOAD DUP1 SWAP2 SUB SWAP1 REVERT JUMPDEST PUSH1 0x0 DUP1 SLOAD PUSH1 0xFF NOT AND PUSH1 0x1 SWAP1 DUP2 OR SWAP1 SWAP2 SSTORE PUSH1 0x40 DUP1 MLOAD SWAP2 DUP3 MSTORE TIMESTAMP PUSH1 0x20 DUP4 ADD MSTORE PUSH1 0x0 DUP1 MLOAD PUSH1 0x20 PUSH2 0x2F79 DUP4 CODECOPY DUP2 MLOAD SWAP2 MSTORE SWAP2 ADD PUSH2 0x1FC2 JUMP JUMPDEST CALLER PUSH1 0x1 PUSH1 0x1 PUSH1 0xA0 SHL SUB PUSH32 0x0 AND EQ PUSH2 0x20B7 JUMPI PUSH1 0x40 MLOAD PUSH4 0x7BFA4B9F PUSH1 0xE0 SHL DUP2 MSTORE PUSH1 0x4 ADD PUSH1 0x40 MLOAD DUP1 SWAP2 SUB SWAP1 REVERT JUMPDEST PUSH1 0x1 PUSH1 0x1 PUSH1 0xA0 SHL SUB DUP4 AND PUSH1 0x0 SWAP1 DUP2 MSTORE PUSH1 0xF PUSH1 0x20 MSTORE PUSH1 0x40 SWAP1 KECCAK256 PUSH2 0x20DA DUP3 DUP5 DUP4 PUSH2 0x2B8E JUMP JUMPDEST POP POP POP POP JUMP JUMPDEST PUSH1 0x1 PUSH1 0x1 PUSH1 0xA0 SHL SUB DUP2 AND PUSH1 0x0 SWAP1 DUP2 MSTORE PUSH1 0xF PUSH1 0x20 MSTORE PUSH1 0x40 SWAP1 KECCAK256 DUP1 SLOAD PUSH1 0x60 SWAP2 SWAP1 PUSH2 0x2107 SWAP1 PUSH2 0x2AF6 JUMP JUMPDEST DUP1 PUSH1 0x1F ADD PUSH1 0x20 DUP1 SWAP2 DIV MUL PUSH1 0x20 ADD PUSH1 0x40 MLOAD SWAP1 DUP2 ADD PUSH1 0x40 MSTORE DUP1 SWAP3 SWAP2 SWAP1 DUP2 DUP2 MSTORE PUSH1 0x20 ADD DUP3 DUP1 SLOAD PUSH2 0x2133 SWAP1 PUSH2 0x2AF6 JUMP JUMPDEST DUP1 ISZERO PUSH2 0x2180 JUMPI DUP1 PUSH1 0x1F LT PUSH2 0x2155 JUMPI PUSH2 0x100 DUP1 DUP4 SLOAD DIV MUL DUP4 MSTORE SWAP2 PUSH1 0x20 ADD SWAP2 PUSH2 0x2180 JUMP JUMPDEST DUP3 ADD SWAP2 SWAP1 PUSH1 0x0 MSTORE PUSH1 0x20 PUSH1 0x0 KECCAK256 SWAP1 JUMPDEST DUP2 SLOAD DUP2 MSTORE SWAP1 PUSH1 0x1 ADD SWAP1 PUSH1 0x20 ADD DUP1 DUP4 GT PUSH2 0x2163 JUMPI DUP3 SWAP1 SUB PUSH1 0x1F AND DUP3 ADD SWAP2 JUMPDEST POP POP POP POP POP SWAP1 POP SWAP2 SWAP1 POP JUMP JUMPDEST CALLER PUSH1 0x1 PUSH1 0x1 PUSH1 0xA0 SHL SUB PUSH32 0x0 AND EQ PUSH2 0x21D5 JUMPI PUSH1 0x40 MLOAD PUSH4 0x7BFA4B9F PUSH1 0xE0 SHL DUP2 MSTORE PUSH1 0x4 ADD PUSH1 0x40 MLOAD DUP1 SWAP2 SUB SWAP1 REVERT JUMPDEST PUSH1 0x0 SLOAD PUSH1 0xFF AND PUSH1 0x2 EQ PUSH2 0x21FB JUMPI PUSH1 0x40 MLOAD PUSH4 0x751DD613 PUSH1 0xE1 SHL DUP2 MSTORE PUSH1 0x4 ADD PUSH1 0x40 MLOAD DUP1 SWAP2 SUB SWAP1 REVERT JUMPDEST PUSH1 0x0 JUMPDEST PUSH1 0x1 SLOAD DUP2 LT ISZERO PUSH2 0x2261 JUMPI PUSH1 0x1 DUP1 DUP3 DUP2 SLOAD DUP2 LT PUSH2 0x221C JUMPI PUSH2 0x221C PUSH2 0x2C96 JUMP JUMPDEST PUSH1 0x0 SWAP2 DUP3 MSTORE PUSH1 0x20 DUP1 DUP4 KECCAK256 PUSH1 0x4 SWAP3 SWAP1 SWAP3 MUL SWAP1 SWAP2 ADD PUSH1 0x2 ADD DUP1 SLOAD PUSH1 0xFF NOT AND SWAP4 ISZERO ISZERO SWAP4 SWAP1 SWAP4 OR SWAP1 SWAP3 SSTORE DUP3 DUP2 MSTORE PUSH1 0x6 SWAP1 SWAP2 MSTORE PUSH1 0x40 DUP2 KECCAK256 SSTORE DUP1 PUSH2 0x2259 DUP2 PUSH2 0x2CC2 JUMP JUMPDEST SWAP2 POP POP PUSH2 0x21FE JUMP JUMPDEST POP PUSH1 0x0 JUMPDEST PUSH1 0x7 SLOAD DUP2 LT ISZERO PUSH2 0x22DD JUMPI PUSH1 0x0 PUSH1 0x7 DUP3 DUP2 SLOAD DUP2 LT PUSH2 0x2284 JUMPI PUSH2 0x2284 PUSH2 0x2C96 JUMP JUMPDEST PUSH1 0x0 SWAP2 DUP3 MSTORE PUSH1 0x20 DUP1 DUP4 KECCAK256 SWAP1 SWAP2 ADD SLOAD PUSH1 0x1 PUSH1 0x1 PUSH1 0xA0 SHL SUB AND DUP3 MSTORE PUSH1 0x3 DUP2 MSTORE PUSH1 0x40 DUP1 DUP4 KECCAK256 DUP4 SWAP1 SSTORE PUSH1 0x4 DUP3 MSTORE DUP1 DUP4 KECCAK256 DUP1 SLOAD PUSH1 0xFF NOT SWAP1 DUP2 AND SWAP1 SWAP2 SSTORE PUSH1 0x5 SWAP1 SWAP3 MSTORE SWAP1 SWAP2 KECCAK256 DUP1 SLOAD SWAP1 SWAP2 AND SWAP1 SSTORE POP DUP1 PUSH2 0x22D5 DUP2 PUSH2 0x2CC2 JUMP JUMPDEST SWAP2 POP POP PUSH2 0x2265 JUMP JUMPDEST POP PUSH2 0x22EA PUSH1 0x7 PUSH1 0x0 PUSH2 0x254D JUMP JUMPDEST PUSH1 0x8 PUSH1 0x0 PUSH2 0x22F8 DUP3 DUP3 PUSH2 0x258F JUMP JUMPDEST PUSH2 0x2306 PUSH1 0x1 DUP4 ADD PUSH1 0x0 PUSH2 0x258F JUMP JUMPDEST PUSH2 0x2314 PUSH1 0x2 DUP4 ADD PUSH1 0x0 PUSH2 0x258F JUMP JUMPDEST PUSH2 0x2322 PUSH1 0x3 DUP4 ADD PUSH1 0x0 PUSH2 0x258F JUMP JUMPDEST POP PUSH1 0x0 PUSH1 0x4 DUP3 ADD DUP2 SWAP1 SSTORE PUSH1 0x5 SWAP1 SWAP2 ADD DUP1 SLOAD PUSH1 0xFF NOT SWAP1 DUP2 AND SWAP1 SWAP2 SSTORE DUP2 SLOAD AND DUP2 SSTORE PUSH1 0x40 MLOAD PUSH32 0x8D1085CD9ECEAAB0B77FD20C66DEA55DF08E5EF2D52859C2CB4A1E16BA9476C0 SWAP2 SWAP1 LOG1 PUSH1 0x0 SLOAD PUSH1 0x40 DUP1 MLOAD PUSH1 0xFF SWAP1 SWAP3 AND DUP3 MSTORE TIMESTAMP PUSH1 0x20 DUP4 ADD MSTORE PUSH1 0x0 DUP1 MLOAD PUSH1 0x20 PUSH2 0x2F79 DUP4 CODECOPY DUP2 MLOAD SWAP2 MSTORE SWAP2 ADD PUSH2 0xD39 JUMP JUMPDEST PUSH1 0x8 DUP1 SLOAD DUP2 SWAP1 PUSH2 0x1BF4 SWAP1 PUSH2 0x2AF6 JUMP JUMPDEST PUSH1 0x1 SLOAD PUSH1 0x0 SWAP1 DUP3 SWAP1 DUP2 LT PUSH2 0x23C8 JUMPI PUSH1 0x40 MLOAD PUSH4 0x347247E1 PUSH1 0xE2 SHL DUP2 MSTORE PUSH1 0x4 ADD PUSH1 0x40 MLOAD DUP1 SWAP2 SUB SWAP1 REVERT JUMPDEST PUSH1 0x1 DUP2 DUP2 SLOAD DUP2 LT PUSH2 0x23DB JUMPI PUSH2 0x23DB PUSH2 0x2C96 JUMP JUMPDEST PUSH1 0x0 SWAP2 DUP3 MSTORE PUSH1 0x20 SWAP1 SWAP2 KECCAK256 PUSH1 0x2 PUSH1 0x4 SWAP1 SWAP3 MUL ADD ADD SLOAD PUSH1 0xFF AND PUSH2 0x240F JUMPI PUSH1 0x40 MLOAD PUSH4 0x23581DB1 PUSH1 0xE1 SHL DUP2 MSTORE PUSH1 0x4 ADD PUSH1 0x40 MLOAD DUP1 SWAP2 SUB SWAP1 REVERT JUMPDEST PUSH1 0x0 DUP4 DUP2 MSTORE PUSH1 0x6 PUSH1 0x20 MSTORE PUSH1 0x40 SWAP1 KECCAK256 SLOAD SWAP2 POP JUMPDEST POP SWAP2 SWAP1 POP JUMP JUMPDEST PUSH1 0x40 MLOAD PUSH12 0xFFFFFFFFFFFFFFFFFFFFFFFF NOT PUSH1 0x60 DUP4 SWAP1 SHL AND PUSH1 0x20 DUP3 ADD MSTORE PUSH1 0x0 SWAP1 DUP2 SWAP1 PUSH1 0x34 ADD PUSH1 0x40 MLOAD PUSH1 0x20 DUP2 DUP4 SUB SUB DUP2 MSTORE SWAP1 PUSH1 0x40 MSTORE DUP1 MLOAD SWAP1 PUSH1 0x20 ADD KECCAK256 SWAP1 POP PUSH1 0x0 JUMPDEST DUP5 MLOAD DUP2 LT ISZERO PUSH2 0x253F JUMPI DUP5 DUP2 DUP2 MLOAD DUP2 LT PUSH2 0x2481 JUMPI PUSH2 0x2481 PUSH2 0x2C96 JUMP JUMPDEST PUSH1 0x20 MUL PUSH1 0x20 ADD ADD MLOAD DUP3 LT PUSH2 0x24DF JUMPI DUP5 DUP2 DUP2 MLOAD DUP2 LT PUSH2 0x24A1 JUMPI PUSH2 0x24A1 PUSH2 0x2C96 JUMP JUMPDEST PUSH1 0x20 MUL PUSH1 0x20 ADD ADD MLOAD DUP3 PUSH1 0x40 MLOAD PUSH1 0x20 ADD PUSH2 0x24C4 SWAP3 SWAP2 SWAP1 SWAP2 DUP3 MSTORE PUSH1 0x20 DUP3 ADD MSTORE PUSH1 0x40 ADD SWAP1 JUMP JUMPDEST PUSH1 0x40 MLOAD PUSH1 0x20 DUP2 DUP4 SUB SUB DUP2 MSTORE SWAP1 PUSH1 0x40 MSTORE DUP1 MLOAD SWAP1 PUSH1 0x20 ADD KECCAK256 PUSH2 0x252B JUMP JUMPDEST DUP2 DUP6 DUP3 DUP2 MLOAD DUP2 LT PUSH2 0x24F2 JUMPI PUSH2 0x24F2 PUSH2 0x2C96 JUMP JUMPDEST PUSH1 0x20 MUL PUSH1 0x20 ADD ADD MLOAD PUSH1 0x40 MLOAD PUSH1 0x20 ADD PUSH2 0x2514 SWAP3 SWAP2 SWAP1 SWAP2 DUP3 MSTORE PUSH1 0x20 DUP3 ADD MSTORE PUSH1 0x40 ADD SWAP1 JUMP JUMPDEST PUSH1 0x40 MLOAD PUSH1 0x20 DUP2 DUP4 SUB SUB DUP2 MSTORE SWAP1 PUSH1 0x40 MSTORE DUP1 MLOAD SWAP1 PUSH1 0x20 ADD KECCAK256 JUMPDEST SWAP2 POP DUP1 PUSH2 0x2537 DUP2 PUSH2 0x2CC2 JUMP JUMPDEST SWAP2 POP POP PUSH2 0x2466 JUMP JUMPDEST POP PUSH1 0x2 SLOAD EQ SWAP1 POP JUMPDEST SWAP3 SWAP2 POP POP JUMP JUMPDEST POP DUP1 SLOAD PUSH1 0x0 DUP3 SSTORE SWAP1 PUSH1 0x0 MSTORE PUSH1 0x20 PUSH1 0x0 KECCAK256 SWAP1 DUP2 ADD SWAP1 PUSH2 0x256B SWAP2 SWAP1 PUSH2 0x25C5 JUMP JUMPDEST POP JUMP JUMPDEST POP DUP1 SLOAD PUSH1 0x0 DUP3 SSTORE PUSH1 0x4 MUL SWAP1 PUSH1 0x0 MSTORE PUSH1 0x20 PUSH1 0x0 KECCAK256 SWAP1 DUP2 ADD SWAP1 PUSH2 0x256B SWAP2 SWAP1 PUSH2 0x25DE JUMP JUMPDEST POP DUP1 SLOAD PUSH2 0x259B SWAP1 PUSH2 0x2AF6 JUMP JUMPDEST PUSH1 0x0 DUP3 SSTORE DUP1 PUSH1 0x1F LT PUSH2 0x25AB JUMPI POP POP JUMP JUMPDEST PUSH1 0x1F ADD PUSH1 0x20 SWAP1 DIV SWAP1 PUSH1 0x0 MSTORE PUSH1 0x20 PUSH1 0x0 KECCAK256 SWAP1 DUP2 ADD SWAP1 PUSH2 0x256B SWAP2 SWAP1 JUMPDEST JUMPDEST DUP1 DUP3 GT ISZERO PUSH2 0x25DA JUMPI PUSH1 0x0 DUP2 SSTORE PUSH1 0x1 ADD PUSH2 0x25C6 JUMP JUMPDEST POP SWAP1 JUMP JUMPDEST DUP1 DUP3 GT ISZERO PUSH2 0x25DA JUMPI PUSH1 0x0 DUP1 DUP3 SSTORE PUSH2 0x25F8 PUSH1 0x1 DUP4 ADD DUP3 PUSH2 0x258F JUMP JUMPDEST PUSH1 0x2 DUP3 ADD DUP1 SLOAD PUSH1 0xFF NOT AND SWAP1 SSTORE PUSH2 0x2612 PUSH1 0x3 DUP4 ADD PUSH1 0x0 PUSH2 0x258F JUMP JUMPDEST POP PUSH1 0x4 ADD PUSH2 0x25DE JUMP JUMPDEST PUSH1 0x0 DUP1 DUP4 PUSH1 0x1F DUP5 ADD SLT PUSH2 0x262D JUMPI PUSH1 0x0 DUP1 REVERT JUMPDEST POP DUP2 CALLDATALOAD PUSH8 0xFFFFFFFFFFFFFFFF DUP2 GT ISZERO PUSH2 0x2645 JUMPI PUSH1 0x0 DUP1 REVERT JUMPDEST PUSH1 0x20 DUP4 ADD SWAP2 POP DUP4 PUSH1 0x20 DUP3 DUP6 ADD ADD GT ISZERO PUSH2 0x265D JUMPI PUSH1 0x0 DUP1 REVERT JUMPDEST SWAP3 POP SWAP3 SWAP1 POP JUMP JUMPDEST PUSH1 0x0 DUP1 PUSH1 0x20 DUP4 DUP6 SUB SLT ISZERO PUSH2 0x2677 JUMPI PUSH1 0x0 DUP1 REVERT JUMPDEST DUP3 CALLDATALOAD PUSH8 0xFFFFFFFFFFFFFFFF DUP2 GT ISZERO PUSH2 0x268E JUMPI PUSH1 0x0 DUP1 REVERT JUMPDEST PUSH2 0x269A DUP6 DUP3 DUP7 ADD PUSH2 0x261B JUMP JUMPDEST SWAP1 SWAP7 SWAP1 SWAP6 POP SWAP4 POP POP POP POP JUMP JUMPDEST PUSH1 0x0 DUP2 MLOAD DUP1 DUP5 MSTORE PUSH1 0x0 JUMPDEST DUP2 DUP2 LT ISZERO PUSH2 0x26CC JUMPI PUSH1 0x20 DUP2 DUP6 ADD DUP2 ADD MLOAD DUP7 DUP4 ADD DUP3 ADD MSTORE ADD PUSH2 0x26B0 JUMP JUMPDEST POP PUSH1 0x0 PUSH1 0x20 DUP3 DUP7 ADD ADD MSTORE PUSH1 0x20 PUSH1 0x1F NOT PUSH1 0x1F DUP4 ADD AND DUP6 ADD ADD SWAP2 POP POP SWAP3 SWAP2 POP POP JUMP JUMPDEST PUSH1 0x0 PUSH1 0x20 DUP1 DUP4 ADD DUP2 DUP5 MSTORE DUP1 DUP6 MLOAD DUP1 DUP4 MSTORE PUSH1 0x40 SWAP3 POP DUP3 DUP7 ADD SWAP2 POP DUP3 DUP2 PUSH1 0x5 SHL DUP8 ADD ADD DUP5 DUP9 ADD PUSH1 0x0 JUMPDEST DUP4 DUP2 LT ISZERO PUSH2 0x277C JUMPI PUSH1 0x3F NOT DUP10 DUP5 SUB ADD DUP6 MSTORE DUP2 MLOAD PUSH1 0x80 DUP2 MLOAD DUP6 MSTORE DUP9 DUP3 ADD MLOAD DUP2 DUP11 DUP8 ADD MSTORE PUSH2 0x2741 DUP3 DUP8 ADD DUP3 PUSH2 0x26A6 JUMP JUMPDEST SWAP2 POP POP DUP8 DUP3 ADD MLOAD ISZERO ISZERO DUP9 DUP7 ADD MSTORE PUSH1 0x60 DUP1 DUP4 ADD MLOAD SWAP3 POP DUP6 DUP3 SUB DUP2 DUP8 ADD MSTORE POP PUSH2 0x2768 DUP2 DUP4 PUSH2 0x26A6 JUMP JUMPDEST SWAP7 DUP10 ADD SWAP7 SWAP5 POP POP POP SWAP1 DUP7 ADD SWAP1 PUSH1 0x1 ADD PUSH2 0x2713 JUMP JUMPDEST POP SWAP1 SWAP9 SWAP8 POP POP POP POP POP POP POP POP JUMP JUMPDEST PUSH1 0x0 PUSH1 0x20 DUP3 DUP5 SUB SLT ISZERO PUSH2 0x279C JUMPI PUSH1 0x0 DUP1 REVERT JUMPDEST POP CALLDATALOAD SWAP2 SWAP1 POP JUMP JUMPDEST PUSH1 0x20 DUP2 MSTORE PUSH1 0x0 DUP3 MLOAD PUSH1 0xC0 PUSH1 0x20 DUP5 ADD MSTORE PUSH2 0x27BF PUSH1 0xE0 DUP5 ADD DUP3 PUSH2 0x26A6 JUMP JUMPDEST SWAP1 POP PUSH1 0x20 DUP5 ADD MLOAD PUSH1 0x1F NOT DUP1 DUP6 DUP5 SUB ADD PUSH1 0x40 DUP7 ADD MSTORE PUSH2 0x27DD DUP4 DUP4 PUSH2 0x26A6 JUMP JUMPDEST SWAP3 POP PUSH1 0x40 DUP7 ADD MLOAD SWAP2 POP DUP1 DUP6 DUP5 SUB ADD PUSH1 0x60 DUP7 ADD MSTORE PUSH2 0x27FA DUP4 DUP4 PUSH2 0x26A6 JUMP JUMPDEST SWAP3 POP PUSH1 0x60 DUP7 ADD MLOAD SWAP2 POP DUP1 DUP6 DUP5 SUB ADD PUSH1 0x80 DUP7 ADD MSTORE POP PUSH2 0x2818 DUP3 DUP3 PUSH2 0x26A6 JUMP JUMPDEST SWAP2 POP POP PUSH1 0x80 DUP5 ADD MLOAD PUSH1 0xA0 DUP5 ADD MSTORE PUSH1 0xA0 DUP5 ADD MLOAD ISZERO ISZERO PUSH1 0xC0 DUP5 ADD MSTORE DUP1 SWAP2 POP POP SWAP3 SWAP2 POP POP JUMP JUMPDEST PUSH1 0x0 DUP1 PUSH1 0x0 DUP1 PUSH1 0x40 DUP6 DUP8 SUB SLT ISZERO PUSH2 0x2851 JUMPI PUSH1 0x0 DUP1 REVERT JUMPDEST DUP5 CALLDATALOAD PUSH8 0xFFFFFFFFFFFFFFFF DUP1 DUP3 GT ISZERO PUSH2 0x2869 JUMPI PUSH1 0x0 DUP1 REVERT JUMPDEST PUSH2 0x2875 DUP9 DUP4 DUP10 ADD PUSH2 0x261B JUMP JUMPDEST SWAP1 SWAP7 POP SWAP5 POP PUSH1 0x20 DUP8 ADD CALLDATALOAD SWAP2 POP DUP1 DUP3 GT ISZERO PUSH2 0x288E JUMPI PUSH1 0x0 DUP1 REVERT JUMPDEST POP PUSH2 0x289B DUP8 DUP3 DUP9 ADD PUSH2 0x261B JUMP JUMPDEST SWAP6 SWAP9 SWAP5 SWAP8 POP SWAP6 POP POP POP POP JUMP JUMPDEST DUP5 DUP2 MSTORE PUSH1 0x80 PUSH1 0x20 DUP3 ADD MSTORE PUSH1 0x0 PUSH2 0x28C0 PUSH1 0x80 DUP4 ADD DUP7 PUSH2 0x26A6 JUMP JUMPDEST DUP5 ISZERO ISZERO PUSH1 0x40 DUP5 ADD MSTORE DUP3 DUP2 SUB PUSH1 0x60 DUP5 ADD MSTORE PUSH2 0x28DA DUP2 DUP6 PUSH2 0x26A6 JUMP JUMPDEST SWAP8 SWAP7 POP POP POP POP POP POP POP JUMP JUMPDEST PUSH1 0x0 DUP1 PUSH1 0x0 PUSH1 0x40 DUP5 DUP7 SUB SLT ISZERO PUSH2 0x28FA JUMPI PUSH1 0x0 DUP1 REVERT JUMPDEST DUP4 CALLDATALOAD SWAP3 POP PUSH1 0x20 DUP5 ADD CALLDATALOAD PUSH8 0xFFFFFFFFFFFFFFFF DUP1 DUP3 GT ISZERO PUSH2 0x2919 JUMPI PUSH1 0x0 DUP1 REVERT JUMPDEST DUP2 DUP7 ADD SWAP2 POP DUP7 PUSH1 0x1F DUP4 ADD SLT PUSH2 0x292D JUMPI PUSH1 0x0 DUP1 REVERT JUMPDEST DUP2 CALLDATALOAD DUP2 DUP2 GT ISZERO PUSH2 0x293C JUMPI PUSH1 0x0 DUP1 REVERT JUMPDEST DUP8 PUSH1 0x20 DUP3 PUSH1 0x5 SHL DUP6 ADD ADD GT ISZERO PUSH2 0x2951 JUMPI PUSH1 0x0 DUP1 REVERT JUMPDEST PUSH1 0x20 DUP4 ADD SWAP5 POP DUP1 SWAP4 POP POP POP POP SWAP3 POP SWAP3 POP SWAP3 JUMP JUMPDEST PUSH1 0x0 DUP2 MLOAD DUP1 DUP5 MSTORE PUSH1 0x20 DUP1 DUP6 ADD SWAP5 POP DUP1 DUP5 ADD PUSH1 0x0 JUMPDEST DUP4 DUP2 LT ISZERO PUSH2 0x2994 JUMPI DUP2 MLOAD DUP8 MSTORE SWAP6 DUP3 ADD SWAP6 SWAP1 DUP3 ADD SWAP1 PUSH1 0x1 ADD PUSH2 0x2978 JUMP JUMPDEST POP SWAP5 SWAP6 SWAP5 POP POP POP POP POP JUMP JUMPDEST PUSH1 0x20 DUP2 MSTORE PUSH1 0x0 PUSH2 0x29B2 PUSH1 0x20 DUP4 ADD DUP5 PUSH2 0x2964 JUMP JUMPDEST SWAP4 SWAP3 POP POP POP JUMP JUMPDEST PUSH1 0x0 DUP1 PUSH1 0x40 DUP4 DUP6 SUB SLT ISZERO PUSH2 0x29CC JUMPI PUSH1 0x0 DUP1 REVERT JUMPDEST POP POP DUP1 CALLDATALOAD SWAP3 PUSH1 0x20 SWAP1 SWAP2 ADD CALLDATALOAD SWAP2 POP JUMP JUMPDEST DUP1 CALLDATALOAD PUSH1 0x1 PUSH1 0x1 PUSH1 0xA0 SHL SUB DUP2 AND DUP2 EQ PUSH2 0x29F2 JUMPI PUSH1 0x0 DUP1 REVERT JUMPDEST SWAP2 SWAP1 POP JUMP JUMPDEST PUSH1 0x0 PUSH1 0x20 DUP3 DUP5 SUB SLT ISZERO PUSH2 0x2A09 JUMPI PUSH1 0x0 DUP1 REVERT JUMPDEST PUSH2 0x29B2 DUP3 PUSH2 0x29DB JUMP JUMPDEST PUSH1 0x20 DUP2 MSTORE PUSH1 0x0 PUSH2 0x29B2 PUSH1 0x20 DUP4 ADD DUP5 PUSH2 0x26A6 JUMP JUMPDEST PUSH1 0xC0 DUP2 MSTORE PUSH1 0x0 PUSH2 0x2A38 PUSH1 0xC0 DUP4 ADD DUP10 PUSH2 0x26A6 JUMP JUMPDEST DUP3 DUP2 SUB PUSH1 0x20 DUP5 ADD MSTORE PUSH2 0x2A4A DUP2 DUP10 PUSH2 0x26A6 JUMP JUMPDEST SWAP1 POP DUP3 DUP2 SUB PUSH1 0x40 DUP5 ADD MSTORE PUSH2 0x2A5E DUP2 DUP9 PUSH2 0x26A6 JUMP JUMPDEST SWAP1 POP DUP3 DUP2 SUB PUSH1 0x60 DUP5 ADD MSTORE PUSH2 0x2A72 DUP2 DUP8 PUSH2 0x26A6 JUMP JUMPDEST PUSH1 0x80 DUP5 ADD SWAP6 SWAP1 SWAP6 MSTORE POP POP SWAP1 ISZERO ISZERO PUSH1 0xA0 SWAP1 SWAP2 ADD MSTORE SWAP5 SWAP4 POP POP POP POP JUMP JUMPDEST PUSH1 0x0 DUP1 PUSH1 0x0 PUSH1 0x40 DUP5 DUP7 SUB SLT ISZERO PUSH2 0x2AA2 JUMPI PUSH1 0x0 DUP1 REVERT JUMPDEST PUSH2 0x2AAB DUP5 PUSH2 0x29DB JUMP JUMPDEST SWAP3 POP PUSH1 0x20 DUP5 ADD CALLDATALOAD PUSH8 0xFFFFFFFFFFFFFFFF DUP2 GT ISZERO PUSH2 0x2AC7 JUMPI PUSH1 0x0 DUP1 REVERT JUMPDEST PUSH2 0x2AD3 DUP7 DUP3 DUP8 ADD PUSH2 0x261B JUMP JUMPDEST SWAP5 SWAP8 SWAP1 SWAP7 POP SWAP4 SWAP5 POP POP POP POP JUMP JUMPDEST PUSH4 0x4E487B71 PUSH1 0xE0 SHL PUSH1 0x0 MSTORE PUSH1 0x41 PUSH1 0x4 MSTORE PUSH1 0x24 PUSH1 0x0 REVERT JUMPDEST PUSH1 0x1 DUP2 DUP2 SHR SWAP1 DUP3 AND DUP1 PUSH2 0x2B0A JUMPI PUSH1 0x7F DUP3 AND SWAP2 POP JUMPDEST PUSH1 0x20 DUP3 LT DUP2 SUB PUSH2 0x2421 JUMPI PUSH4 0x4E487B71 PUSH1 0xE0 SHL PUSH1 0x0 MSTORE PUSH1 0x22 PUSH1 0x4 MSTORE PUSH1 0x24 PUSH1 0x0 REVERT JUMPDEST PUSH1 0x1F DUP3 GT ISZERO PUSH2 0x2B74 JUMPI PUSH1 0x0 DUP2 DUP2 MSTORE PUSH1 0x20 DUP2 KECCAK256 PUSH1 0x1F DUP6 ADD PUSH1 0x5 SHR DUP2 ADD PUSH1 0x20 DUP7 LT ISZERO PUSH2 0x2B51 JUMPI POP DUP1 JUMPDEST PUSH1 0x1F DUP6 ADD PUSH1 0x5 SHR DUP3 ADD SWAP2 POP JUMPDEST DUP2 DUP2 LT ISZERO PUSH2 0x2B70 JUMPI DUP3 DUP2 SSTORE PUSH1 0x1 ADD PUSH2 0x2B5D JUMP JUMPDEST POP POP POP JUMPDEST POP POP POP JUMP JUMPDEST PUSH1 0x0 NOT PUSH1 0x3 DUP4 SWAP1 SHL SHR NOT AND PUSH1 0x1 SWAP2 SWAP1 SWAP2 SHL OR SWAP1 JUMP JUMPDEST PUSH8 0xFFFFFFFFFFFFFFFF DUP4 GT ISZERO PUSH2 0x2BA6 JUMPI PUSH2 0x2BA6 PUSH2 0x2AE0 JUMP JUMPDEST PUSH2 0x2BBA DUP4 PUSH2 0x2BB4 DUP4 SLOAD PUSH2 0x2AF6 JUMP JUMPDEST DUP4 PUSH2 0x2B2A JUMP JUMPDEST PUSH1 0x0 PUSH1 0x1F DUP5 GT PUSH1 0x1 DUP2 EQ PUSH2 0x2BE8 JUMPI PUSH1 0x0 DUP6 ISZERO PUSH2 0x2BD6 JUMPI POP DUP4 DUP3 ADD CALLDATALOAD JUMPDEST PUSH2 0x2BE0 DUP7 DUP3 PUSH2 0x2B79 JUMP JUMPDEST DUP5 SSTORE POP PUSH2 0x2C42 JUMP JUMPDEST PUSH1 0x0 DUP4 DUP2 MSTORE PUSH1 0x20 SWAP1 KECCAK256 PUSH1 0x1F NOT DUP7 AND SWAP1 DUP4 JUMPDEST DUP3 DUP2 LT ISZERO PUSH2 0x2C19 JUMPI DUP7 DUP6 ADD CALLDATALOAD DUP3 SSTORE PUSH1 0x20 SWAP5 DUP6 ADD SWAP5 PUSH1 0x1 SWAP1 SWAP3 ADD SWAP2 ADD PUSH2 0x2BF9 JUMP JUMPDEST POP DUP7 DUP3 LT ISZERO PUSH2 0x2C36 JUMPI PUSH1 0x0 NOT PUSH1 0xF8 DUP9 PUSH1 0x3 SHL AND SHR NOT DUP5 DUP8 ADD CALLDATALOAD AND DUP2 SSTORE JUMPDEST POP POP PUSH1 0x1 DUP6 PUSH1 0x1 SHL ADD DUP4 SSTORE JUMPDEST POP POP POP POP POP JUMP JUMPDEST DUP2 DUP4 MSTORE DUP2 DUP2 PUSH1 0x20 DUP6 ADD CALLDATACOPY POP PUSH1 0x0 DUP3 DUP3 ADD PUSH1 0x20 SWAP1 DUP2 ADD SWAP2 SWAP1 SWAP2 MSTORE PUSH1 0x1F SWAP1 SWAP2 ADD PUSH1 0x1F NOT AND SWAP1 SWAP2 ADD ADD SWAP1 JUMP JUMPDEST PUSH1 0x40 DUP2 MSTORE PUSH1 0x0 PUSH2 0x2C86 PUSH1 0x40 DUP4 ADD DUP6 DUP8 PUSH2 0x2C49 JUMP JUMPDEST SWAP1 POP DUP3 PUSH1 0x20 DUP4 ADD MSTORE SWAP5 SWAP4 POP POP POP POP JUMP JUMPDEST PUSH4 0x4E487B71 PUSH1 0xE0 SHL PUSH1 0x0 MSTORE PUSH1 0x32 PUSH1 0x4 MSTORE PUSH1 0x24 PUSH1 0x0 REVERT JUMPDEST PUSH4 0x4E487B71 PUSH1 0xE0 SHL PUSH1 0x0 MSTORE PUSH1 0x11 PUSH1 0x4 MSTORE PUSH1 0x24 PUSH1 0x0 REVERT JUMPDEST PUSH1 0x0 PUSH1 0x1 DUP3 ADD PUSH2 0x2CD4 JUMPI PUSH2 0x2CD4 PUSH2 0x2CAC JUMP JUMPDEST POP PUSH1 0x1 ADD SWAP1 JUMP JUMPDEST DUP2 MLOAD PUSH8 0xFFFFFFFFFFFFFFFF DUP2 GT ISZERO PUSH2 0x2CF5 JUMPI PUSH2 0x2CF5 PUSH2 0x2AE0 JUMP JUMPDEST PUSH2 0x2D09 DUP2 PUSH2 0x2D03 DUP5 SLOAD PUSH2 0x2AF6 JUMP JUMPDEST DUP5 PUSH2 0x2B2A JUMP JUMPDEST PUSH1 0x20 DUP1 PUSH1 0x1F DUP4 GT PUSH1 0x1 DUP2 EQ PUSH2 0x2D38 JUMPI PUSH1 0x0 DUP5 ISZERO PUSH2 0x2D26 JUMPI POP DUP6 DUP4 ADD MLOAD JUMPDEST PUSH2 0x2D30 DUP6 DUP3 PUSH2 0x2B79 JUMP JUMPDEST DUP7 SSTORE POP PUSH2 0x2B70 JUMP JUMPDEST PUSH1 0x0 DUP6 DUP2 MSTORE PUSH1 0x20 DUP2 KECCAK256 PUSH1 0x1F NOT DUP7 AND SWAP2 JUMPDEST DUP3 DUP2 LT ISZERO PUSH2 0x2D67 JUMPI DUP9 DUP7 ADD MLOAD DUP3 SSTORE SWAP5 DUP5 ADD SWAP5 PUSH1 0x1 SWAP1 SWAP2 ADD SWAP1 DUP5 ADD PUSH2 0x2D48 JUMP JUMPDEST POP DUP6 DUP3 LT ISZERO PUSH2 0x2D85 JUMPI DUP8 DUP6 ADD MLOAD PUSH1 0x0 NOT PUSH1 0x3 DUP9 SWAP1 SHL PUSH1 0xF8 AND SHR NOT AND DUP2 SSTORE JUMPDEST POP POP POP POP POP PUSH1 0x1 SWAP1 DUP2 SHL ADD SWAP1 SSTORE POP JUMP JUMPDEST DUP6 DUP2 MSTORE PUSH1 0x60 PUSH1 0x20 DUP3 ADD MSTORE PUSH1 0x0 PUSH2 0x2DAF PUSH1 0x60 DUP4 ADD DUP7 DUP9 PUSH2 0x2C49 JUMP JUMPDEST DUP3 DUP2 SUB PUSH1 0x40 DUP5 ADD MSTORE PUSH2 0x2DC2 DUP2 DUP6 DUP8 PUSH2 0x2C49 JUMP JUMPDEST SWAP9 SWAP8 POP POP POP POP POP POP POP POP JUMP JUMPDEST DUP2 DUP2 SUB PUSH2 0x2DD9 JUMPI POP POP JUMP JUMPDEST PUSH2 0x2DE3 DUP3 SLOAD PUSH2 0x2AF6 JUMP JUMPDEST PUSH8 0xFFFFFFFFFFFFFFFF DUP2 GT ISZERO PUSH2 0x2DFB JUMPI PUSH2 0x2DFB PUSH2 0x2AE0 JUMP JUMPDEST PUSH2 0x2E09 DUP2 PUSH2 0x2D03 DUP5 SLOAD PUSH2 0x2AF6 JUMP JUMPDEST PUSH1 0x0 PUSH1 0x1F DUP3 GT PUSH1 0x1 DUP2 EQ PUSH2 0x2E37 JUMPI PUSH1 0x0 DUP4 ISZERO PUSH2 0x2E25 JUMPI POP DUP5 DUP3 ADD SLOAD JUMPDEST PUSH2 0x2E2F DUP5 DUP3 PUSH2 0x2B79 JUMP JUMPDEST DUP6 SSTORE POP PUSH2 0x2C42 JUMP JUMPDEST PUSH1 0x0 DUP6 DUP2 MSTORE PUSH1 0x20 SWAP1 KECCAK256 PUSH1 0x1F NOT DUP5 AND SWAP1 PUSH1 0x0 DUP7 DUP2 MSTORE PUSH1 0x20 SWAP1 KECCAK256 DUP5 JUMPDEST DUP4 DUP2 LT ISZERO PUSH2 0x2E71 JUMPI DUP3 DUP7 ADD SLOAD DUP3 SSTORE PUSH1 0x1 SWAP6 DUP7 ADD SWAP6 SWAP1 SWAP2 ADD SWAP1 PUSH1 0x20 ADD PUSH2 0x2E51 JUMP JUMPDEST POP DUP6 DUP4 LT ISZERO PUSH2 0x2D85 JUMPI SWAP4 ADD SLOAD PUSH1 0x0 NOT PUSH1 0xF8 PUSH1 0x3 DUP8 SWAP1 SHL AND SHR NOT AND SWAP1 SWAP3 SSTORE POP POP PUSH1 0x1 SWAP1 DUP2 SHL ADD SWAP1 SSTORE POP JUMP JUMPDEST DUP2 DUP2 SUB DUP2 DUP2 GT ISZERO PUSH2 0x2547 JUMPI PUSH2 0x2547 PUSH2 0x2CAC JUMP JUMPDEST PUSH1 0x20 DUP2 MSTORE PUSH1 0x0 PUSH2 0x2EC2 PUSH1 0x20 DUP4 ADD DUP5 DUP7 PUSH2 0x2C49 JUMP JUMPDEST SWAP5 SWAP4 POP POP POP POP JUMP JUMPDEST DUP1 DUP3 ADD DUP1 DUP3 GT ISZERO PUSH2 0x2547 JUMPI PUSH2 0x2547 PUSH2 0x2CAC JUMP JUMPDEST PUSH1 0x40 DUP2 MSTORE PUSH1 0x0 PUSH2 0x2EF0 PUSH1 0x40 DUP4 ADD DUP6 PUSH2 0x2964 JUMP JUMPDEST PUSH1 0x20 DUP4 DUP3 SUB DUP2 DUP6 ADD MSTORE PUSH1 0x0 DUP6 SLOAD PUSH2 0x2F06 DUP2 PUSH2 0x2AF6 JUMP JUMPDEST DUP1 DUP6 MSTORE PUSH1 0x1 DUP3 DUP2 AND DUP1 ISZERO PUSH2 0x2F21 JUMPI PUSH1 0x1 DUP2 EQ PUSH2 0x2F3B JUMPI PUSH2 0x2F69 JUMP JUMPDEST PUSH1 0xFF NOT DUP5 AND DUP8 DUP8 ADD MSTORE DUP3 ISZERO ISZERO PUSH1 0x5 SHL DUP8 ADD DUP7 ADD SWAP5 POP PUSH2 0x2F69 JUMP JUMPDEST DUP10 PUSH1 0x0 MSTORE DUP6 PUSH1 0x0 KECCAK256 PUSH1 0x0 JUMPDEST DUP5 DUP2 LT ISZERO PUSH2 0x2F61 JUMPI DUP2 SLOAD DUP10 DUP3 ADD DUP10 ADD MSTORE SWAP1 DUP4 ADD SWAP1 DUP8 ADD PUSH2 0x2F46 JUMP JUMPDEST DUP9 ADD DUP8 ADD SWAP6 POP POP JUMPDEST POP SWAP3 SWAP10 SWAP9 POP POP POP POP POP POP POP POP POP JUMP INVALID 0xE6 MSTORE PUSH5 0x342B0C60A0 PUSH26 0xC9C89C73855AC517088348498810186D8C8AE6C7848BA1A26469 PUSH17 0x667358221220C3743FDE81DB71AC10CA0A DUP9 0xD4 POP SWAP14 CHAINID 0xBE BYTE 0x4B MUL 0xC7 0xF REVERT GASPRICE 0xC4 0x5D SLOAD INVALID 0x29 ADDRESS 0xEA 0xF8 PUSH5 0x736F6C6343 STOP ADDMOD EQ STOP CALLER "},"methodIdentifiers":{"addCandidate(string,string)":"26541b56","admin()":"f851a440","archiveResults(string)":"4ac8bea1","archivedElections(uint256)":"84632dc0","candidateCount()":"a9a981a3","candidates(uint256)":"3477ee2e","clearAllCandidates()":"1d29de63","commitVote(bytes32,bytes32[])":"489a1f4c","commits(address)":"7b43a8e6","currentElection()":"fcae83a7","emergencyReset()":"16388836","finishElection()":"90173864","getArchivedElection(uint256)":"6d5304a2","getArchivedElectionsCount()":"020b9379","getCandidates()":"06a49fce","getCurrentElectionData()":"0baa1304","getTally()":"53b2b8d6","getVoterProofIPFS(address)":"df48b377","getVoterStatus(address)":"78e3ef20","getVotes(uint256)":"ff981099","hasCommitted(address)":"c6dbe15a","hasRevealed(address)":"b9a53013","merkleRoot()":"2eb4a7ab","phase()":"b1c9fe6e","removeCandidate(uint256)":"09e9d7e2","resetElection()":"e8f30523","revealVote(uint256,bytes32)":"69edbcda","setAuditTrailIPFS(string)":"8e112430","setKYCDataIPFS(string)":"00f1a308","setMerkleRoot(bytes32)":"7cb64759","setVoterListIPFS(string)":"55a6ecd6","setVoterProofIPFS(address,string)":"b8056d71","startReveal()":"ad72202b","tally(uint256)":"ed8b6b31","voterProofIPFS(address)":"75885ede"}}}}}